:020000040800F2
:1000000058070020591100088D0100088F010008D1
:1000100000000000000000000000000000000000E0
:100020000000000000000000000000009101000836
:100030000000000000000000930100089501000886
:100040006B1100086B1100086B1100086B110008A0
:100050006B110008E10400086B110008A5040008FA
:100060006B1100086B1100086B1100086B11000880
:100070006B1100086B1100086B1100086B11000870
:100080006B1100086B110008000000006B110008E4
:100090006B110008970100086B1100086B11000834
:1000A0006B1100086B1100086B1100086B11000840
:1000B0006B110008000000006B1100080000000038
:1000C00000F002F800F03EF80CA030C80838241800
:1000D0002D18A246671EAB4654465D46AC4201D180
:1000E00000F030F87E460F3E0FCCB6460126334274
:1000F00000D0FB1AA246AB46334318473027000016
:1001000050270000103A02D378C878C1FAD85207B5
:1001100001D330C830C101D504680C6070470000BD
:100120000023002400250026103A01D378C1FBD813
:10013000520700D330C100D50B6070471FB51FBDFB
:1001400010B510BD02F03EFB1146FFF7F7FF00F0BF
:1001500009F802F056FB03B4FFF7F2FF03BC02F00C
:100160005DFB000010B500F063FA00F0EBFF00F05B
:10017000EBF900F0C2F900220121034800F0ABFFC7
:1001800000F08EFF002010BDF50200087047FEE76A
:1001900070477047704710B5064C0121204601F0AA
:1001A000B5FE002805D000F0C8FF0121204601F06F
:1001B000B9FE10BD0044014010B547480168012256
:1001C000114301604168454A114041600168444A59
:1001D000114001600168012292049143016041686D
:1001E0003F22120491434160C16A09090901C162B9
:1001F000016BFF22543291430163416B490849006E
:1002000041630021816000F02EF810BD70B5324DC1
:1002100069680C2001403348334C03D0042901D0D5
:10022000082901D0206014E06A68696801239202FD
:100230001B04160F1940B61C002907D0E96A0907EC
:10024000090F491C02F00EFA7043EBE727484643BA
:100250002660686824490006000F091D085C2168B3
:10026000C140216070BD38B500201B4C0090206853
:1002700001210904884320601D48016810221143B0
:10028000016001680122114301606068606060687C
:10029000606060683F2109048843606060680521F0
:1002A000C90408436060052001F0F4F820680121CA
:1002B00009060843206020688001FCD5606880083A
:1002C0008000606060680221084360606068000729
:1002D000800F0228FAD138BD001002400CB8FFF898
:1002E000FFFFF6FE00127A000000002000093D002A
:1002F0000020024010B500F0CDFC03220121064889
:1003000000F0E9FE002000F0FCFE10BD10B5322127
:100310000F2000F0FFFE10BD7905000830B5232046
:1003200085B00121400401F083F90121480401F066
:1003300091F90121084601F084F90025684605710C
:10034000C5710221417101246946AE48009400F054
:1003500046FF0021012002F041F96846029405732E
:100360000C214173847302A802F0B0F868468474CB
:1003700004A801F0C1F9684644740521017404A879
:1003800001F0BAF905B030BD70B50926F6060121B5
:10039000304600F072FF012806D00121304600F0FF
:1003A0006CFF00283ED079E000226421012000F09B
:1003B000B5FD00226421022000F0B0FD002264217E
:1003C000032000F0ABFD00226421042000F0A6FD14
:1003D00000226421052000F0A1FD0021022000F090
:1003E00018FB0021032000F014FB0021042000F082
:1003F00010FB0021084600F00CFB00252C460520D0
:1004000000F03FF90121304600F037FF012801D10B
:100410006D1CEDB2641CE4B2052CF0D3052D3DD16A
:10042000002070BD00226421012000F077FD002231
:100430006421022000F072FD00226421032000F0FC
:100440006DFD00226421042000F068FD002264217B
:10045000052000F063FD0021022000F0DAFA0021FF
:10046000032000F0D6FA0021042000F0D2FA002187
:10047000084600F0CEFA00252C46052000F001F9D0
:100480000121304600F0F9FE002801D16D1CEDB2CB
:10049000641CE4B2052CF0D3052D01D0032070BDFF
:1004A000022070BD70B5012002F05AF8002813D068
:1004B0000925ED060121284600F0DFFE524C0128F7
:1004C00006D00121284600F0D8FE002802D003E023
:1004D000002000E002202070012002F03EF870BDF4
:1004E00010B5012002F03CF8002802D04649022055
:1004F000C870012002F031F810BD10B5434900204A
:10050000086000F095F800F01DFEFFF755FEFFF7BC
:10051000F1FE10BD7CB523200121400401F088F8D4
:10052000092464020320694600944871012008717F
:1005300000208871334DC871284600F050FE2146D6
:10054000284600F0ACFE7CBD10B5FFF7E7FEFFF7D4
:10055000E1FF0121080701F07DF80121084601F0C3
:1005600063FE10BD10B50121002000F052FA1421E5
:10057000012000F0CFFD10BD70B5234C0125E078BF
:10058000022810D101211F4800F077FE0021002829
:1005900004D02171A1700320E07019E02079322885
:1005A00005D0401C2071E078032811D014E021719F
:1005B000A078002807D00020A070002805D0617026
:1005C0000420E0700EE00120F6E76570E1700FE0B6
:1005D000FFF7BAFFFFF791FFE078042802D0002868
:1005E00006D009E00121002000F013FAE57003E0D5
:1005F000FFF7AAFFFFF781FF1421032000F08AFD17
:1006000070BD000000040048140000202C000020F1
:10061000064908800028FDD1704710B500F01AF88F
:1006200010BD10B500B200F02CF810BD1A0000206B
:1006300010B50420C04301F08BF81E481C49006827
:1006400002F010F81C4940B27D220870D2005043DD
:10065000488010BD184900228A5618495043486105
:1006600000228A6108690123184308610869C307E9
:1006700001D0C003FAD508694008400008618A61CA
:1006800070470D4902228A5E0C495043486100229E
:100690008A6108690123184308610869C30701D00A
:1006A000C003FAD508694008400008618A617047B4
:1006B00000127A00000000201C00002000E000E092
:1006C0001CB50121480400F0B3FF03204002009054
:1006D00001206946087188710022CA714871092099
:1006E000C00600F07CFD1CBD1CB5012080020090FE
:1006F00001206946087188710020C8710320487183
:100700000920C00600F06BFD1CBD1CB50120800255
:10071000009000206946087101228A71C871032087
:1007200048710920C00600F05AFD1CBD70B5FFF7E6
:10073000DBFF0125AD020920C00685616C108461D4
:100740000520FFF76AFF994E35810520FFF765FF09
:10075000348170BD70B501249448A40204816010F6
:100760000925ED06A8610520FFF757FFAC610520BC
:10077000FFF753FF70BD70B5FFF7B6FF01208B4C3C
:100780008002208145100920C00685610520FFF701
:1007900044FF25810520FFF740FF70BD10B5FFF72E
:1007A000A3FF012189020920C00681614C108461E8
:1007B0000520FFF732FF7D4804810520FFF72DFF5C
:1007C00010BD70B50120002580020924E406A06157
:1007D0000520FFF722FF01267602A6610520FFF71C
:1007E0001CFFFFF792FF1420FFF717FF208AFFF787
:1007F0007BFF0520FFF711FF6C4806811920FFF7EA
:100800000CFF284670BDF8B509270024FF06012615
:10081000054676022806664801D5B86101E06349BD
:1008200008816806050E0520FFF7F7FEBE6105206A
:10083000FFF7F3FE5D4806810520FFF7EEFE641C1E
:10084000E4B2082CE6D3F8BDF8B50024FFF75DFF4D
:100850000126002576020927FF06BE610520FFF765
:10086000DCFE6006398A000E4905CC0F04434F4870
:1008700006810520FFF7D1FE6D1CEDB2082DECD3EB
:100880002046F8BD10B5FFF71BFFFFF74FFF002014
:10089000FFF7B9FFFFF795FF0620FFF7B4FF10BD84
:1008A00010B5FFF743FF3120FFF7ADFFFFF789FFDA
:1008B000FFF7CAFF3F490870FFF770FFFFF74AFFD5
:1008C0000520FFF7AAFE10BD10B5FFF7F9FEFFF7F0
:1008D0002DFF3020FFF797FFFFF773FFAA20FFF7E8
:1008E00092FFFFF76EFF0020FFF78DFFFFF769FF14
:1008F0000020FFF788FFFFF764FFFFF72BFF10BD15
:1009000010B5FFF713FF3120FFF77DFFFFF759FF09
:10091000FFF79AFF274C6070FFF72DFFFFF794FF5A
:10092000A070FFF728FFFFF78FFFE070FFF723FFAE
:10093000FFF78AFF2071FFF731FFFFF70BFF6078A9
:10094000A17800024018E1780004090240182179DA
:10095000401810BD10B50446FFF7E8FE2046FFF72B
:1009600052FFFFF72EFF0020FFF74DFFFFF729FF93
:10097000FFF7F0FEFFF7DAFE641CE0B2FFF743FF7B
:10098000FFF71FFFFFF760FF0A4C6071FFF7F3FEF0
:10099000FFF75AFFA071FFF7EEFEFFF7DBFE60796D
:1009A000A1790002401880B210BD0000200000486C
:1009B00000040000200000201FB50121480400F0C1
:1009C00040FE1521684601730024447301218173A0
:1009D00003A800F091FEFF487D21C900006801F0E6
:1009E00041FE01906846048004814480FA4C6946C7
:1009F000204600F00BFF0121204601F084FA01227D
:100A00001146204601F06EFA0121204600F06FFFEA
:100A10001FBD10B5F14A00280AD0012807D10846A9
:100A2000012109030128104606D000F038FC10BD52
:100A3000084601214902F5E700F033FC10BD1CB562
:100A40000920400200900120694608710020887149
:100A5000C8710320E14C4871204600F0C0FB012121
:100A60004902204600F01BFC01210903204600F04A
:100A700016FC1CBD7CB501242403012069460094AA
:100A8000087100208871C871032009254871ED069E
:100A9000284600F0A4FB2146284600F002FC7CBD5D
:100AA0007CB50324A402012069460094087100204B
:100AB0008871C8710320C94D4871284600F08FFB2A
:100AC0002146284600F0EDFB7CBD1CB50120C0038B
:100AD00000900021684601710121C1716946BF483B
:100AE00000F07DFB1CBD1CB5302000900021684645
:100AF00001710121C171032141716946B74800F0BC
:100B00006EFB1CBD7CB50124E40301206946009402
:100B1000087100228A71C871032009254871ED0609
:100B2000284600F05CFB2146284600F0B8FB7CBD5F
:100B30001CB501200090002069460871A74800F00C
:100B40004EFB1CBD1CB501204003009000206946EF
:100B50000871A24800F043FB1CBDF0B585B0074604
:100B60001421684601F07CFD00253220FFF789FD45
:100B700000246E469020FFF7EDFE61007052401990
:100B800085B20520FFF766FD641CE4B20A2CF1D3A0
:100B90000A21284601F066FD388005B0F0BD1CB57D
:100BA000012000900020694608710920C00600F06D
:100BB00016FB1CBD7CB5012464030120694600942A
:100BC000087100228A71C8710320854D487128463A
:100BD00000F005FB2146284600F061FB7CBD7CB59A
:100BE0000124E403012069460094087100228A71FF
:100BF000C8710320794D4871284600F0F0FA21466B
:100C0000284600F04CFB7CBD7CB50124E4030120A8
:100C100069460094087188710020C8710320092575
:100C20004871ED06284600F0DAFA2146284600F021
:100C300036FB7CBD1CB50220009000216846017186
:100C40000321417109206946C00600F0C8FA1CBDA5
:100C50001CB50420009000216846017103214171F8
:100C600009206946C00600F0BAFA1CBD1CB58020F8
:100C7000009001206946087100228A71C871032022
:100C8000564C4871204600F0AAFA8021204600F018
:100C900006FB1CBD10B523200121400400F0C8FC58
:100CA000FFF7CDFE10BD10B509200121C00600F0F0
:100CB000E4FA10BD0120704770470120704770476B
:100CC0000120704770471CB50121880400F0B0FC7A
:100CD00001200022694600900A71C8713F4800F067
:100CE0007EFA1CBDF0B5012193B0480400F0A0FCD1
:100CF0000121880400F09CFC022603216846069628
:100D000001770024C477092006A9C00600F067FA1D
:100D1000012706A93148069700F061FA012148022F
:100D200000F08FFC0121084600F082FC2D4D284682
:100D300001F0B0FA2C4801F0ABF92A4809A940307B
:100D400008902A4851C1802046000D90C0000F90A5
:100D5000202010900C94000211900E9608A9129475
:100D6000214801F0C7F901211F4801F0ECF90221E7
:100D7000284601F06EFB0121284601F060FB684621
:100D800001F0A9FA684600940771042005900294C6
:100D900069460494284601F08BFA0722022128466E
:100DA00001F006FB07223146284601F001FB2846E8
:100DB00001F021FB0121284601F095FA0C4C284650
:100DC000214601F056FB0028F9D0284601F02FFB00
:100DD00013B0F0BD000000200044014000040048B2
:100DE00000080048002401400800024028000020BC
:100DF00001000001F0B58DB0A1480690A1496846F8
:100E0000818200248483A04FC48205A9384600F063
:100E1000FDFC05A99D4800F0F9FC05A99C4800F0DF
:100E2000F5FC05A99B4800F0F1FC05A99A4800F0E3
:100E3000EDFCBD1568468584C4840485448501267F
:100E4000868508A9914800F05CFD08A9914800F04A
:100E500058FD08A9904800F054FD602168460180C3
:100E6000468002948481C481058244826946384662
:100E700000F06DFD0821384600F0B0FE6946844858
:100E800000F065FD0821824800F0A8FE69467F4811
:100E900000F05DFD08217D4800F0A0FE69467D4818
:100EA00000F0F7FD08217B4800F0ABFE69467A4868
:100EB00000F04DFD0821784800F090FE01213846F1
:100EC00000F0FCFC0121724800F0F8FC01216F48A1
:100ED00000F0F4FC01216F4800F0F0FC01216E48A5
:100EE00000F0ECFC0121384600F001FD01216848CA
:100EF00000F0FDFC0121654800F0F9FC0121654886
:100F000000F0F5FC0121644800F0F1FC0DB0F0BDEB
:100F100010B500F059F8FFF76DFF10BD70B516461B
:100F20000546574A481E88B0904239D8642E37D8B3
:100F3000501C01F097FB401E069052496846818282
:100F400000248483C48206986421401C704301F00D
:100F500089FB01466022684602800122428002919C
:100F60008481012D0BD0022D0CD0032D1AD0042D1D
:100F70001BD0052D14D1C48105A9474C05E005A956
:100F8000414C02E0C481414C05A9204600F03EFCE2
:100F90006946204600F0DBFC0821204600F01EFEDA
:100FA00008B070BD05A93A4CEFE7C481394C05A9DA
:100FB000204600F02BFC6946204600F06AFD08211F
:100FC000204600F01EFEEBE7FEB523200121400481
:100FD00000F02EFB0121022000F03CFB01218804DF
:100FE00000F02FFB0121080200F034FB0121CC02AC
:100FF000204600F026FB0121080400F022FB022518
:1010000069460D7100208871C87103204871092656
:10101000F60601220621304600F04DF940200090EE
:101020006946304600F0DBF805220721304600F023
:1010300042F9802000906946304600F0D0F8174F02
:1010400000220121384600F036F9694638460095FD
:1010500000F0C5F802220B21304600F02CF9694659
:101060003046009400F0BBF801220E21384600F013
:1010700022F9E00000906946384600F0B0F8FEBD65
:101080007FBB0000E703000000040040004801406F
:1010900000200040002C01400040014000040048B6
:1010A0002B4D2C4C0026666061680C20414348198A
:1010B0004279012A09D1C3888268D21823689A42EA
:1010C00003D28660C680685880476068401C6060B4
:1010D0000F28E9D3E7E730B50C2314461C4D5C43D9
:1010E000631959711A7128510020D880986030BD59
:1010F0000E2805D80C225043154A01218018417151
:1011000070470E2805D80C225043114A0021801840
:101110004171704710B50E280ED80E4A13680C2284
:1011200050430B4A84187D20C00048437D21C900EC
:10113000A36001F097FAE08010BD06480168491CE1
:101140000160704710B5FFF737FC10BD7047000015
:10115000440000202C000020074880470748004733
:10116000FEE7FEE7FEE7FEE7FEE7FEE70448054987
:10117000054A064B70470000B9010008C10000088D
:101180005801002058070020580300205803002071
:10119000092110B5C906884202D101214C0404E09E
:1011A0004D49884209D101210402204600F05BFA32
:1011B0000021204600F057FA10BD4849884202D16C
:1011C00001210402F1E74649884202D101210C05C0
:1011D000EBE744498842EFD101218C05E5E7F0B502
:1011E0000022012423460D6893401D409D422AD1D0
:1011F0000D79012D01D0022D12D1876855000326EB
:10120000AE40B74387604E79AE4085682E43866016
:1012100085889D43858085888B7993401D43858093
:10122000066855000323AB409E4306600E790768AD
:10123000AE403E430660C6689E43C660CB79AB4075
:10124000C5682B43C360521C102ACBD3F0BD26497E
:10125000016000210171022242718171C1717047E8
:10126000012208B512040A430092C261C1610099CB
:10127000C161C169C069009008BD0246128A0020A0
:101280000A4200D001207047008A70470246928AC5
:1012900000200A4200D001207047808A7047816197
:1012A000704701857047002A01D081617047018530
:1012B0007047818270474B07DB0E9A40C90810B512
:1012C00089000818016A0F249C40A1430162016A49
:1012D0001143016210BD00000004004800080048EE
:1012E000000C004800140048FFFF0000F7480168A8
:1012F0000122114301604168F54A114041600168D3
:10130000F44A114001600168012292049143016096
:1013100041683F22120491434160C16A09090901F1
:10132000C162016BFF22543291430163416B490852
:1013300049004163002181607047E44900228A70BE
:101340008870704703460020E0495A090CD0012AF2
:101350000CD0022A0CD0496BDA06D20E012393403E
:101360000B4200D0012070470968F5E7096AF3E7EE
:10137000496AF1E718B500200524240200901120E5
:10138000FFF7E0FF0099491C0091A14201D000281D
:10139000F5D01120FFF7D6FF002800D0012018BD9E
:1013A000CA4A1168F8239943C00008431060704787
:1013B000C6490028086802D00122104301E0400815
:1013C000400008607047C14A516BF8239943C00040
:1013D000084350637047BD490028486B02D0012282
:1013E000104301E04008400048637047B7490422B9
:1013F0000028486B01D0904300E0104348637047D9
:10140000B2490A6A520852000A620A6A04239A43DD
:101410000A620A6A02430A627047AC490A6A1823E0
:101420009A430A620A6A02430A627047A74900287F
:10143000486A02D00122104301E04008400048629F
:10144000704710B5A14A53683D242404A343536058
:10145000536808430343536010BD01229B491206A1
:101460000028086801D0104300E0904308607047EE
:10147000964AD16A090909010143D16270470122E4
:101480009249D2040028086801D0104300E090433C
:10149000086070478D49C87170478C4A5168890847
:1014A0008900014351607047884840680C2108401A
:1014B0007047864A5168F023994301435160704751
:1014C000824A516807231B029943014351607047C8
:1014D0007E494A6801239B039A434A604A6883B263
:1014E0001A434A600A6B8B159A430A630A6B000C15
:1014F00002430A63704775490A6B40239A430A63A3
:101500000A6B02430A63704770490A6B10239A43BF
:101510000A630A6B02430A6370476C490A6B9208BC
:1015200092000A630A6B02430A637047F8B5674D7D
:10153000044668680C21684E084003D0042801D096
:10154000082801D0266012E06968686801228902D3
:1015500012040F0F1040BF1C00281CD0E86A0107BE
:10156000090F3046491C01F07DF878432060686817
:101570005A4B0006000F1A5C20680146D14061609A
:101580006A685205520F9A5CD140A1602A6BD2055D
:1015900005D4534A09E0534847432760E7E76A68A0
:1015A000520401D44A0800E08A08E2602A6B53061C
:1015B0004D4A03D44C4B1233236100E022612B6B64
:1015C000DB0601D4666100E060612B6B9B070FD0E6
:1015D000296B8907890F01290CD0286B8007800FA0
:1015E000022809D0286BC043800700D1A661F8BD4E
:1015F000A161F8BDA061F8BDA261F8BD33490A6AD6
:1016000002430A62704731490028374A086A01D00C
:10161000104300E090430862704701222B491204F6
:101620000028086A01D0104300E090430862704728
:10163000264A0029516901D0014300E081435161EC
:101640007047224A0029916901D0014300E081439B
:10165000916170471D4A0029D16901D0014300E022
:101660008143D1617047194A0029916A01D0014331
:1016700000E0814391627047144A0029D16801D08B
:10168000014300E08143D1607047104A002911698D
:1016900001D0014300E08143116170470B4A0029EA
:1016A000517A01D0014300E08143517270470748ED
:1016B000416A01221206114341627047034A014602
:1016C000926800200A4200D00120704700100240BA
:1016D0000CB8FFF8FFFFF6FE00127A00340000207D
:1016E000809FD50000093D000080000001498872FC
:1016F000EBE700000010024030B58378012102784A
:10170000002B15D09408174BA400E4182368920707
:10171000D50EFF22AA40934342789207120EAA40A8
:101720001A4322600078C006C00E81400E4804E0D3
:10173000D006C00E81400C488030016030BD0B4A9D
:101740000029116901D0014300E081431161704714
:10175000042207490428086902D0904308617047B1
:101760001043FBE700E400E000E100E000ED00E0F2
:1017700000E000E0F84910B5884202D10121C4140C
:1017800030E001218907884206D101210846FFF790
:101790007CFF0021012008E0F049884208D10121A6
:1017A0000220FFF772FF00210220FFF76EFF10BD3D
:1017B000EB49884206D101211020FFF766FF002186
:1017C0001020F2E7E749884207D18415012120461D
:1017D000FFF75BFF00212046E7E7E349884209D194
:1017E00001210C042046FFF747FF00212046FFF7A8
:1017F00043FF10BDDD49884202D101214C04F1E7CD
:10180000DB498842F5D101218C04EBE710B5028851
:10181000D14B984206D00124A407A04202D0CF4C5D
:10182000A04203D17024A2434C882243CC4CA04256
:1018300003D0D04C22400C89224302804A68C26205
:101840000A880285984208D0C74A904205D0C74A04
:10185000904202D0C64A904201D1897A0186012184
:10186000818210BD0021C9434160002101800181B6
:10187000418081727047018582827047028870239F
:101880009A430A430280704741627047C1627047C1
:10189000406A7047008D704702220029018801D0FC
:1018A000114300E091430180704704220029018820
:1018B00001D0114300E0914301807047802200294C
:1018C000018801D0114300E09143018070470288F4
:1018D00008239A43028002880A43028070470288E4
:1018E000A44B1A40028002880A43028070470029F4
:1018F000018802D00122114301E04908490001801A
:10190000704710B50A884B88CC881A438B882343CC
:101910001A430B891A434B8989891A430A43403079
:10192000828010BD0021018041808180C1800181C1
:1019300041818181704740300029818803D0012294
:10194000D203114301E04904490C8180704730B54E
:10195000028C520852000284038C8288048B70250A
:10196000AC43A4080D88A40025430224A3438C891A
:101970001C434B882343784CA04208D07A4CA042A9
:1019800005D07A4CA04202D0794CA0420DD1082457
:10199000A343CC891C4304239C438B882343754C6D
:1019A00022400C8A14434A8A224382800583896834
:1019B0004163038430BD70B5028C10239A430284C6
:1019C000048C8288038B6C4D2B400D782D062D0CDA
:1019D0001D4320239C438B891B051E0C4B882643EB
:1019E0001B051B0C5C4C3343A04215D18024A34340
:1019F000CC892405240C1C4340239C438B881B0565
:101A00001B0C23435D4C22400C8AA404240C144379
:101A10004A8A9204120C224382800583896881637A
:101A2000038470BD30B5028C554B1A400284038C80
:101A30008288848B7025AC43A4080D88A4002543BC
:101A4000504C23400C7B2406240C1C438B781B0633
:101A50001B0C2343404CA04215D14B4C23408C7BA4
:101A60002406240C1C43494B1C400B791B061B0C01
:101A70002343474C22400C8A2405240C14434A8AF1
:101A80001205120C2243828085838968C163038416
:101A900030BD30B5028C3F4B1A400284048C8388E1
:101AA000828B354D2A400D782D062D0C15433A4A70
:101AB00014400A7B1207120C22438C782407240C52
:101AC0001443254A904205D1344A13400A8A9205AC
:101AD000120C13438380858389680164048430BDBC
:101AE000002101804180818081608181C1810182EA
:101AF0004182704730B5034618330124058C8C4071
:101B0000A5430584002910D008290ED0091F080418
:101B1000400CC018016807231B039943016001684A
:101B20001206120C1143016030BD4808C01801684C
:101B30007023994301600168F4E741637047816352
:101B40007047C163704701647047028B70239A43EA
:101B50000A43028370470000002C0140000400404B
:101B600000100040002000400040014000440140BF
:101B700000480140FFFC0000FF8C0000FFF3000064
:101B8000FFFE0000FFFD0000FFF70000FFFB00006C
:101B9000FFCF0000FFEF0000FFDF0000FFBF0000ED
:101BA000028BF64B09021A4011430183D2E7828B64
:101BB00070239A430A438283CCE7828BEF4B09025E
:101BC0001A4011438183C5E70029818802D0012290
:101BD000114301E0490849008180BBE7028B0823DB
:101BE0009A430A430283B5E7028BE54B09021A4088
:101BF00011430183AEE7828B08239A430A43828311
:101C0000A8E7828BDE4B09021A4011438183A1E7CA
:101C1000028B04239A430A4302839BE7028BD94B2E
:101C200009021A401143018394E7828B04239A43EB
:101C30000A4382838EE7828BD24B09021A401143FA
:101C4000818387E7028B80239A430A43028381E7DB
:101C5000028B5204520C0902114301837AE7828BF2
:101C600080239A430A43828374E7828B5204520C86
:101C70000902114381836DE7028C02239A430A43D0
:101C8000028467E7028C08239A430A43028461E7CF
:101C9000028C20239A430901114301845AE7028CE4
:101CA00080239A4309011143018453E7028CB64B08
:101CB00009021A40114301844CE7028CB04B09021F
:101CC0001A401143018445E7028CB04B09031A40C6
:101CD000114301843EE7028908239A430281028965
:101CE0000A43028136E710B50123048C8B409C43E4
:101CF0000484038C8A401343038410BD10B504236D
:101D0000048C8B409C430484038C8A4013430384DB
:101D100010BD04220029818801D0114300E09143C5
:101D2000818017E7828B9A4B1A408283828B09024B
:101D30000A4382830EE7828B0C239A438283828B31
:101D40000A43828306E7028B914B1A400283028B7F
:101D500009020A430283FDE6F0B5048C1026B44361
:101D60000484058B048C8B4F1B0309013D402B43DE
:101D700012021A43A0239C430C433443028304847D
:101D8000F0BD028B0C239A430283028B0A43028329
:101D9000E0E670B5048C640864000484058B048C50
:101DA0001B011343F3260A22B54394432B430C43F0
:101DB00001210C430383048470BDF8B504460888F0
:101DC0004E888A880B890D4600281DD0042824D00F
:101DD0000828208C2AD0704908402084A08B278CAA
:101DE00031036C4E120230400243180310436B4A19
:101DF000A08317400F43012109030F432784E9887B
:101E00002046FFF78FFFF8BD31462046FFF7C1FFA0
:101E1000E9882046FFF7B5FFF8BD31462046FFF7B9
:101E20009BFFE9882046FFF78EFFF8BD5C4908401C
:101E30002084A18B208C3702F3261B01B14313436E
:101E40000B435849A3830840FF213843013108431D
:101E50002084E9882046FFF76EFFF8BD002101804D
:101E6000418001228280C180018173E6F8B50C4671
:101E70004988002601250746002900D10226A288AC
:101E8000012A00D10225208823890028384610D055
:101E9000FFF762FFE1883846FFF755FF23892A469E
:101EA00031463846FFF775FFE1883846FFF769FF8E
:101EB000F8BDFFF76EFFE1883846FFF762FF238920
:101EC0002A4631463846FFF747FFE1883846FFF794
:101ED0003AFFF8BD406B3DE6806B3BE6C06B39E6F0
:101EE000006C37E6002A828901D00A4300E08A4369
:101EF00082812FE681822DE60246128A00200A4264
:101F000000D0012026E6C943018223E60246138A57
:101F1000002092890B400A40002B02D0002A00D0FA
:101F2000012017E6C943018214E6114340300181C4
:101F300010E6002A828901D00A4300E08A438281A8
:101F400008E608220029818801D0114300E091436E
:101F50008180FFE50189C908C9000181FAE502898C
:101F600070239A430A430281F4E510B50446FFF753
:101F7000F6FF208907210843208110BDFF8F000054
:101F8000FFF70000FFFB0000FFFD0000FFDF000087
:101F9000FFF30000FF0C0000FFEF0000FF5F0000F8
:101FA000FFFE0000FFF5000070B516460D46044622
:101FB00060290CD001223146FFF7EBFE294620466E
:101FC000FFF7CDFF208907210843208170BD012242
:101FD0003146FFF7C1FEF1E710B504891B02134338
:101FE000E4B20B432343038110BD10B50446FFF751
:101FF000F3FF2089C108C9000720014370208143F5
:102000000143218110BD10B50446FFF7E5FF20898B
:10201000012189030843208110BD828870239A43DF
:10202000828082880A43828094E50289D208D200A5
:10203000028102890A4302818CE5028980239A4346
:10204000028102890A43028184E570B50689048B06
:10205000058CF608F6000E430C4906810C40FF2162
:1020600002310C43AA218D431901114329430483F2
:10207000018470BD80220029818801D0114300E0D5
:102080009143818066E54030018263E5FCFC0000FD
:102090000168454A11400160002101604160816092
:1020A000C1604249414A0839904202D148680F2232
:1020B00005E03E4A1432904204D14868F0221043B1
:1020C00048607047394A2832904203D148680F224D
:1020D0001202F4E7354A3C32904203D148680F229D
:1020E0001203ECE7314A50329042EAD148680F229D
:1020F0001204E4E730B503682D4A0C6A13408A687D
:102100004D6922430C692C4322438C692243CC69DC
:1021100022434C6A22438C6A22431A430260CA68F3
:1021200042600A6882604968C16030BD0021016078
:1021300041608160C160016141618161C161016291
:102140004162816270470029016802D00122114377
:1021500001E0154A114001607047416070474068D6
:1021600080B27047002A026801D00A4300E08A4327
:102170000260704701460D4A0020083A12680A4280
:1021800000D001207047094908394860704701466E
:10219000064A0020083A12680A4200D0012070471F
:1021A0000249083948607047FEFF000008000240FD
:1021B0000F80FFFF10B501210C072046FFF765FADD
:1021C00000212046FFF761FA10BD30498A1500282A
:1021D000086801D0104300E09043086070472B4A24
:1021E0001168E02399430143116070472749102289
:1021F0000028086801D0104300E090430860704751
:10220000224A0029516801D0014300E08143516016
:1022100070471F490A6904239A430A61012801D0C3
:1022200020BF704730BF7047184B1A689208920061
:1022300002431A601648036904221343036101290B
:1022400004D020BF016991430161704730BFF9E7B5
:102250000E48026804210A430260026802231A43FE
:1022600002600B4802690A43026130BF7047074AA7
:102270000146526800200A4200D0012070470349FD
:102280000A68800002430A60704700000070004046
:1022900000ED00E0854910B5884208D144150121C0
:1022A0002046FFF7E9F900212046FFF7E5F910BDC8
:1022B00030B5C3687E4A8C6813400A680D792243A2
:1022C000CC686D032C4322430C69496922430A43BD
:1022D0001A43C26030BD0021016001718160C1609C
:1022E0000161416170470029816801D0012200E04D
:1022F0000222114381607047002A026901D00A431B
:1023000000E08A43026170470122D2030029C168BC
:1023100001D0114300E09143C16070470122920354
:102320000029C16801D0114300E09143C1607047AA
:102330000122D2050029C16801D0114300E0914378
:10234000C16070470904114301627047C2681F23CE
:102350009B069A430A43C2607047012292050029F6
:10236000C16801D0114300E09143C1607047012270
:102370005049D2050028886801D0104300E09043FE
:102380008860704701224B4992050028886801D077
:10239000104300E0904388607047012245491206CF
:1023A0000028886801D0104300E09043886070479F
:1023B000836A0B4383624261704701225203002902
:1023C000C16801D0114300E09143C1607047012210
:1023D00012040029C16801D0114300E09143C1609B
:1023E0007047012212030029C16801D0114300E0A7
:1023F0009143C1607047826800210123DB071A43C3
:1024000082600F231B038268491CD20FD2079942B6
:1024100001D0002AF7D18168002901DB006C7047E8
:1024200000207047816810221143816070478168E5
:102430000422114381607047006C80B2704700290C
:10244000C16802D00122114301E049084900C1607E
:102450007047C26802239A43C260C2680A43C260DE
:102460007047002A426801D00A4300E08A43426074
:10247000704702460020CB0104D5926801231B0659
:102480009A4300E012680A4200D0012070470160C0
:10249000704702465368002012680B400A4202D07F
:1024A000002B00D0012070470160704700240140DC
:1024B00003D2FFFF0027014032483149016000216B
:1024C00041608160C16030494161704710B58379D6
:1024D0002C490268002B26D00B6893430B604A6896
:1024E00003689A434A6002795218136804682343C8
:1024F00013608A6803689A438A60CA6803689A43CB
:10250000CA604279102A05D051180A68006802434F
:102510000A6010BD8A6803681A438A60CA68006846
:102520000243CA6010BD0079401801689143016000
:1025300010BD0021016001710C2242718171704750
:1025400010490A6902430A6170470E4A01465269FE
:1025500000200A4200D0012070470A4948617047B4
:10256000084A01461368002052690B400A4202D013
:10257000002B00D0012070470249486170470000DD
:102580000000940F00040140FFFF6B002448016825
:102590008907890F016000218160C160016141618B
:1025A000816982151143816170471D4A116889084C
:1025B0008900014311607047194A0029116801D050
:1025C000014300E0814311607047154A00291168FA
:1025D00001D0014300E08143116070478A07130F67
:1025E00010B50F229A408C080D49A40061188C6820
:1025F00094438C608A68984002438A6010BD084901
:102600008A6902438A617047054900208969C905C2
:1026100000D50120704702498A6902438A617047E8
:102620000000014001E004C0091F0429FBD28B0710
:1026300001D50280801CC90700D0027070470029B4
:102640000BD0C30702D00270401C491E022904D3DC
:10265000830702D50280801C891EE3E70022EEE793
:102660000022DFE7002203098B422CD3030A8B42AE
:1026700011D300239C464EE003460B433CD400227A
:1026800043088B4231D303098B421CD3030A8B428C
:1026900001D394463FE0C3098B4201D3CB01C01A5A
:1026A000524183098B4201D38B01C01A5241430925
:1026B0008B4201D34B01C01A524103098B4201D313
:1026C0000B01C01A5241C3088B4201D3CB00C01A80
:1026D000524183088B4201D38B00C01A52414308F8
:1026E0008B4201D34B00C01A5241411A00D201461D
:1026F0005241104670475DE0CA0F00D049420310B6
:1027000000D34042534000229C4603098B422DD304
:10271000030A8B4212D3FC22890112BA030A8B42AC
:102720000CD3890192118B4208D3890192118B42FB
:1027300004D389013AD0921100E08909C3098B4280
:1027400001D3CB01C01A524183098B4201D38B01C3
:10275000C01A524143098B4201D34B01C01A524166
:1027600003098B4201D30B01C01A5241C3088B42AB
:1027700001D3CB00C01A524183088B4201D38B0096
:10278000C01A5241D9D243088B4201D34B00C01A20
:102790005241411A00D20146634652415B10104635
:1027A00001D34042002B00D54942704763465B107D
:1027B00000D3404201B50020C046C04602BD70476C
:1027C00070477047754600F025F8AE46050069462B
:1027D0005346C008C000854618B020B5FEF7C6FCB9
:1027E00060BC00274908B6460026C0C5C0C5C0C5A4
:1027F000C0C5C0C5C0C5C0C5C0C5403D49008D46A7
:10280000704710B50446C046C0462046FDF7A3FCFD
:1028100010BD000000487047F80000200149182052
:10282000ABBEFEE726000200704700004C280008FF
:102830000000002044000000040100089028000867
:10284000440000201407000020010008006CDC0296
:102850000000000000000000010203040607080950
:102860000301000100000000000000000000000063
:102870000000000000000000000000000000000058
:102880000000000001020304010203040607080916
:040000050800115985
:00000001FF
