:020000040800F2
:10000000B80D00208D1B0008C5010008C7010008BD
:1000100000000000000000000000000000000000E0
:10002000000000000000000000000000C9010008FE
:100030000000000000000000CB010008CD01000816
:100040009F1B00089F1B00089F1B00089F1B0008A8
:100050009F1B0008A50600089F1B000869060008F2
:100060009F1B00089F1B00089F1B00089F1B000888
:100070009F1B00089F1B00089F1B00089F1B000878
:100080009F1B00089F1B0008000000009F1B00082A
:100090009F1B0008CF0100089F1B00089F1B000842
:1000A0009F1B00089F1B00089F1B00089F1B000848
:1000B0009F1B0008000000009F1B000800000000BC
:1000C00000F002F800F03EF80CA030C80838241800
:1000D0002D18A246671EAB4654465D46AC4201D180
:1000E00000F030F87E460F3E0FCCB6460126334274
:1000F00000D0FB1AA246AB4633431847AC3A000087
:10010000CC3A0000103A02D378C878C1FAD8520726
:1001100001D330C830C101D504680C6070470000BD
:100120000023002400250026103A01D378C1FBD813
:10013000520700D330C100D50B6070471FB51FBDFB
:1001400010B510BD03F0F1FC1146FFF7F7FF00F00A
:1001500025F803F009FD03B4FFF7F2FF03BC03F039
:100160000FFD000070B505460C46164602E00FCCA8
:100170000FC5103E102EFAD2082E02D303CC03C5B1
:10018000083E042E07D301CC01C5361F03E02178B9
:100190002970641C6D1C761EF9D270BD10B500F07C
:1001A00021FE01F0E9FC00F09FFA00F089FA00223C
:1001B0000121034801F0A9FC01F08CFC002010BDD6
:1001C0002D0300087047FEE770477047704710B571
:1001D000064C0121204602F0E5FD002805D001F083
:1001E000C6FC0121204602F0E9FD10BD004401409B
:1001F00010B5474801680122114301604168454A32
:10020000114041600168444A1140016001680122C7
:1002100092049143016041683F221204914341607E
:10022000C16A09090901C162016BFF22543291437D
:100230000163416B4908490041630021816000F07E
:100240002EF810BD70B5324D69680C20014033485E
:10025000334C03D0042901D0082901D0206014E0D8
:100260006A686968012392021B04160F1940B61CC4
:10027000002907D0E96A0907090F491C03F0A5FB0B
:100280007043EBE727484643266068682449000628
:10029000000F091D085C2168C140216070BD38B5A0
:1002A00000201B4C00902068012109048843206035
:1002B0001D480168102211430160016801221143A9
:1002C0000160606860606068606060683F21090488
:1002D0008843606060680521C904084360600520A8
:1002E00001F0F2FD20680121090608432060206822
:1002F0008001FCD560688008800060606068022131
:100300000843606060680007800F0228FAD138BD9A
:10031000001002400CB8FFF8FFFFF6FE00127A0052
:100320000000002000093D000020024010B501F04F
:10033000B7F9154801F017F9FF220532134914489F
:1003400000F098FD4821134800F030FE114858385D
:1003500000F0E3FD092201210F4801F0D6FB0A223B
:1003600001210E4801F0D1FB012211460C4801F099
:10037000CCFB002001F0DFFB10BD10B532210F20B7
:1003800001F0E2FB10BD000044000020C803002083
:10039000BC0300207403002087040008B90400088F
:1003A0000107000810B500224378012104E0445CF5
:1003B000A218491C92B289B29942F8D3110AC154C9
:1003C000C018427010BDF8B5414D424800F0C0FD64
:1003D00086B20027404C52E03E4800F0AFFD217845
:1003E000002941D0617800292ED0A1786854491C99
:1003F000A170E078401E0006000EE0703DD10022A2
:100400006978012003E02B5C9A1892B2401C884264
:10041000F9DB685C691849780002401890420BD1FA
:10042000FF222B495F32881803F06EFA2B4800F048
:100430007DFC022000F0FFFC2770FF2167705F3118
:10044000234803F0C0FA18E0FF22411E5D329142BA
:1004500008D21F4AA1785054E07001206070491CF6
:10046000A1700AE0277008E0FF2806D1184908703B
:10047000012020706770A070E770761EB6B2002E63
:10048000AAD10120F8BD10B5FF24CCB02D342146EF
:10049000684603F098FA0F4822466946A03000F0FB
:1004A0001FFD010002D0684600F0F9FD1C21092063
:1004B00001F04AFB4CB010BD10B5064800F04FFDEE
:1004C000FFF781FF64210A2001F03EFB10BD000010
:1004D000600000201C03002016000020BE01002048
:1004E00070B5232086B00121400401F0BBFD01213D
:1004F000480401F0C9FD0121084601F0BCFD0025BA
:1005000068460571C5710226467101246946C248D4
:10051000009401F07EFB0021012003F0D1F9684630
:10052000029405730C214173847302A803F040F90F
:100530006846847404A801F0F9FD684646740521F4
:10054000017404A801F0F2FD06B070BD70B5092673
:10055000F6060121304601F0AAFB012806D0012150
:10056000304601F0A4FB00283ED079E0002264214F
:10057000012001F0EDF900226421022001F0E8F9E8
:1005800000226421032001F0E3F900226421042009
:1005900001F0DEF900226421052001F0D9F90021E3
:1005A000022000F03CFF0021032000F038FF002172
:1005B000042000F034FF0021084600F030FF002541
:1005C0002C46052000F037FC0121304601F06FFB7E
:1005D000012801D16D1CEDB2641CE4B2052CF0D3EE
:1005E000052D3DD1002070BD00226421012001F0C5
:1005F000AFF900226421022001F0AAF9002264214F
:10060000032001F0A5F900226421042001F0A0F9E3
:1006100000226421052001F09BF90021022000F056
:10062000FEFE0021032000F0FAFE0021042000F06D
:10063000F6FE0021084600F0F2FE00252C460520BB
:1006400000F0F9FB0121304601F031FB002801D117
:100650006D1CEDB2641CE4B2052CF0D3052D01D065
:10066000032070BD022070BD70B5012003F0EAF8D0
:10067000002813D00925ED060121284601F017FBBB
:10068000664C012806D00121284601F010FB002805
:1006900002D003E0002000E002202070012003F0DF
:1006A000CEF870BD10B5012003F0CCF8002802D0C0
:1006B0005A490220C870FF20013003F0C0F810BD75
:1006C00010B557490020086000F08CFB01F054FA87
:1006D000FFF78EFDFFF72AFE10BD10B52320012184
:1006E000400401F0BFFC10BD10B5FFF7F9FE012179
:1006F000080701F0C9FC0121084602F0E1FC10BD29
:100700001CB5FF24013401206946009408710022C1
:100710008A71414DC871284601F07BFA214628466E
:1007200001F0D7FA0A2000F056FB00F0D3FD0A20B2
:1007300000F051FB394C00F0CDFD052000F04BFBE3
:1007400000F0B4FD052000F046FB00F0DFFDA060E6
:10075000F1E770B5314C0125E078022820D1012164
:100760002D4801F0A4FA0021002804D02171A078BE
:1007700000281ED014E02079322802D0401C2071BD
:100780000EE02171A07800280ED00020A070002873
:100790000CD061700420E0700121002000F03FFEC9
:1007A000E078032807D00AE00120EFE76570E170E8
:1007B00028E00320E070FFF797FFFFF781FFE07864
:1007C000042802D000281DD020E016480078002818
:1007D0001CD00121002000F022FE134800780128DF
:1007E00004D0022805D0032806D009E00121022008
:1007F00004E00121032001E00121042000F00FFEAC
:10080000E57003E0FFF770FFFFF75AFF14210320A4
:1008100001F09AF970BD0000000400481C0000209F
:1008200048000020140000201500002000B5D9B0B9
:10083000FF2269460A7008224A7000228A70032249
:10084000CA700871020A4A71020C8A71000EC871DE
:100850006846FFF7A7FD69464A78FC48921C00F0FD
:100860001FFB59B000BDF8B5FF270546D9373946FB
:10087000F74803F0A6F8F74E0020F54C30803946D3
:10088000204603F09EF828792070687960702178FE
:1008900008183080F8BDF8B516460F460024054606
:1008A00002F05CFC352002F062FE284602F087FC74
:1008B000FF2E12D913E0A000395CC0194278120251
:1008C00089188278C0781204000610180918284682
:1008D00002F0A7FC641CA4B22D1DB442EBD302F0BD
:1008E00046FC2046F8BDF0B5FF269B36D84DD94CC6
:1008F00091B0112936D0122949D013295DD0212970
:1009000075D022296FD023296ED031296DD032299C
:100910006CD0332924D1071DA8190F903C216846BB
:1009200003F051F800206A46397811542388401C9E
:10093000C9187F1C21803C28F6DB3C2269460F98B1
:1009400002F0E2FF2088A919020A20310A774877CD
:100950007622BF49C048FFF79EFFC04901200870BA
:1009600011B0F0BD061D30216846AD1C03F02BF818
:1009700000216846327842542388491CD218761CDC
:1009800022803029F6DB01463022284612E0B04EA4
:10099000051D32363021684603F015F800216846FF
:1009A0002A7842542388491CD2186D1C2280302991
:1009B000F6DB7DE002F0A8FFD2E7A54E051D62360A
:1009C0003C21684602F0FFFF002168462A78425425
:1009D0002388491CD2186D1C22803C29F6DB3EE09E
:1009E000014651E003E015E027E03AE04EE0984E82
:1009F000051D9E363021684602F0E5FF002168465D
:100A00002A7842542388491CD2186D1C2280302930
:100A1000F6DB4DE08E4E051DCE363021684602F0E5
:100A2000D2FF002168462A7842542388491CD218F4
:100A30006D1C22803029F6DB3AE0854E051DFE361E
:100A40003C21684602F0BFFF002168462A784254E4
:100A50002388491CD2186D1C22803C29F6DB3C22DD
:100A6000BEE7051D7E4E3021684602F0ACFF002136
:100A70006A46287850542388491CC0186D1C208071
:100A80003029F6DB30226946304693E7744E051D67
:100A900030363021684602F096FF002168462A78F9
:100AA00042542388491CD2186D1C22803029F6DB61
:100AB000302295E77CB5FF21684601700521417021
:100AC000002484700821654DC17029780171FFF7F9
:100AD00069FC6846427869465C48921C00F0E0F97F
:100AE0002C707CBD0068704730B50023002907D00A
:100AF00004E09D0010C85B1C4C519BB29342F8D39C
:100B000030BD30B5FFB07624D0B0A500294658A836
:100B100002F059FF224658A94F48FFF7E5FF2A4641
:100B200058A94B4802F0F0FEFF2069460870A22049
:100B30004870002088700920C870454802780A7102
:100B400042784A7102216A46801C03785418401C7E
:100B5000491C23719E29F8DB1046FFF723FC6846E9
:100B6000427869463948921C00F09AF97FB050B03B
:100B700030BD30B5D9B0FF2168460170A021417069
:100B8000002181700A21C17035499E209C39FF23C4
:100B90006A463B3314180D78A03C401C491CA571D3
:100BA0009842F7DB1046FFF7FDFB6846427869463E
:100BB0002648921C00F074F959B030BD30B5D9B058
:100BC000FF2168460170A0214170002181700B2136
:100BD000C170FF2022493B30FF236A46D7331418E7
:100BE0000D78FF3C413C401C491CA5729842F6DB45
:100BF0001046FFF7D7FB6846427869461348921CB7
:100C000000F04EF9D8E700787047F7B56946C88814
:100C10004E880A790D78801B511B00D54942002867
:100C200000DA404202F0DBFE84B269464889097A64
:100C3000801B491B00D54942002800DA404202F0DF
:100C4000CEFE80B220184008FEBD0000BC0300208C
:100C5000CC0400201A0000200078000828000020A2
:100C600006060020F0B58FB0FF21684601730F2300
:100C70004373002181734F4F6021C1733E7806702A
:100C8000FC1C228842807D7805716188C180BF7814
:100C90000772A48844810674160A46748274C57467
:100CA0000A0A027541758775210AC17504764248A2
:100CB00002A9008803315854010A02A802301954CD
:100CC00003A8FFF76FFB6846427B03A93B48921CD1
:100CD00000F0E6F86B4607CBFFF797FF0E90012276
:100CE0000EA93748FFF7D7FD0FB0F0BD10B5314A58
:100CF000D41C01290CD0022911D0032907D1007975
:100D00009070902000F02CFBA080FFF7ABFF10BD8F
:100D100000791070902000F023FB208010BD007936
:100D20005070902000F01CFB608010BD10B5C178A1
:100D300021292BD00CDC091F0B0002F028FF101F0B
:100D40002D302A1E1E1E1E331E1E1E1E2224261E6F
:100D500033291BD008DC222918D0232916D03129A9
:100D600014D0322909D111E050291ED051291ED0AA
:100D7000522902D10321FFF7B9FF10BDFFF773FD20
:100D800010BD112102E0122100E01321FFF7ABFD9D
:100D900010BDFFF78FFE10BDFFF7B3FE10BDFFF7CC
:100DA000E8FE10BDFFF70AFF10BD0121E3E70221B5
:100DB000E1E700002900002044000020BC030020DF
:100DC00000680008064908800028FDD1704710B56A
:100DD00000F01AF810BD10B500B200F02CF810BDEC
:100DE0003200002010B50420C04301F0CBF91E48AA
:100DF0001C49006802F0E9FD1C4940B27D220870E0
:100E0000D2005043488010BD184900228A56184924
:100E10005043486100228A61086901231843086130
:100E20000869C30701D0C003FAD50869400840002B
:100E300008618A6170470D4902228A5E0C4950435D
:100E4000486100228A610869012318430861086922
:100E5000C30701D0C003FAD5086940084000086103
:100E60008A61704700127A000000002034000020E0
:100E700000E000E0816000218180C280418001802B
:100E80007047002181804180018070478188C0883F
:100E9000814201D30120704700207047808870474D
:100EA000F0B5C4888388A41AA34201DD0020F0BDF8
:100EB00000231D460DE00488C688B44200D3058097
:100EC00007888668CC5CF4550488641C5B1C04802D
:100ED0009BB29342EFD38188891881800120F0BDB5
:100EE00070B58388934200D81A4600231D460DE052
:100EF0004488C688B44200D3458046888468A45D8F
:100F0000CC544488641C5B1C44809BB29342EFD356
:100F10008188891A8180104670BD0022C264826473
:100F20004821426501657047826C8154816C491C7F
:100F30008164482901D1002181647047C16C425C01
:100F4000491CC164482901D10021C1641046704781
:100F5000C26C816C881A914200DA4830704770B5D3
:100F6000044600F0A8F8216D814201DB0D1A01E072
:100F70000D1A4835002320650EE0C118482903DB0F
:100F800001191846103002E0011918465830095C62
:100F90002046FFF7C9FF5B1C606DAB42EDDB4019DB
:100FA0006065482801DB4838606570BDF3B50121F4
:100FB0004C0493B0204601F055F80121084601F099
:100FC00051F80121204601F05FF80926F6060122BA
:100FD0000321304600F089FE01220221304600F054
:100FE00084FE0C2502206946009508710320487193
:100FF00000248C710120C871304600F00AFEE12007
:101000004002304F12940D900E940F9410940DA93D
:101010001195384601F0E3F82B4801F085FF294887
:1010200080252830029010200994460203940594EC
:1010300006940795049008940A9402A90B960C94C0
:10104000214801F0A3FF2048143001F06DFF1D4836
:1010500005A924300290139803901498049431C188
:1010600020200A9018480894099402A90B960C9421
:10107000143001F08BFF0122C021384601F05EFAE6
:1010800011480121143001F0AAFF01210E4801F09E
:10109000A6FF0121384601F014F915B0F0BD0A4A47
:1010A00013685B085B001360D06051601068012119
:1010B000084310607047044810B5143001F09BFFDE
:1010C00010BD000000440040440002401CB5012156
:1010D000480400F0C7FF0320400200900120694649
:1010E000087188710022CA7148710920C00600F099
:1010F00090FD1CBD1CB501208002009001206946B6
:10110000087188710020C871032048710920C00649
:1011100000F07FFD1CBD1CB5012080020090002066
:101120006946087101228A71C8710320487109203B
:10113000C00600F06EFD1CBD70B5FFF7DBFF01259A
:10114000AD020920C00685616C1084610520FFF79F
:101150003EFE994E35810520FFF739FE348170BD82
:1011600070B501249448A402048160100925ED069D
:10117000A8610520FFF72BFEAC610520FFF727FED5
:1011800070BD70B5FFF7B6FF01208B4C8002208147
:1011900045100920C00685610520FFF718FE25814E
:1011A0000520FFF714FE70BD10B5FFF7A3FF012166
:1011B00089020920C00681614C1084610520FFF777
:1011C00006FE7D4804810520FFF701FE10BD70B5C5
:1011D0000120002580020924E406A0610520FFF714
:1011E000F6FD01267602A6610520FFF7F0FDFFF768
:1011F00092FF1420FFF7EBFD208AFFF77BFF05200D
:10120000FFF7E5FD6C4806811920FFF7E0FD284651
:1012100070BDF8B509270024FF06012605467602B1
:101220002806664801D5B86101E06349088168066F
:10123000050E0520FFF7CBFDBE610520FFF7C7FDBA
:101240005D4806810520FFF7C2FD641CE4B2082C4E
:10125000E6D3F8BDF8B50024FFF75DFF01260025B1
:1012600076020927FF06BE610520FFF7B0FD600684
:10127000398A000E4905CC0F04434F4806810520EA
:10128000FFF7A5FD6D1CEDB2082DECD32046F8BD8F
:1012900010B5FFF71BFFFFF74FFF0020FFF7B9FF67
:1012A000FFF795FF0620FFF7B4FF10BD10B5FFF75D
:1012B00043FF3120FFF7ADFFFFF789FFFFF7CAFFBC
:1012C0003F490870FFF770FFFFF74AFF0520FFF75F
:1012D0007EFD10BD10B5FFF7F9FEFFF72DFF3020A2
:1012E000FFF797FFFFF773FFAA20FFF792FFFFF7C3
:1012F0006EFF0020FFF78DFFFFF769FF0020FFF76B
:1013000088FFFFF764FFFFF72BFF10BD10B5FFF755
:1013100013FF3120FFF77DFFFFF759FFFFF79AFF1B
:10132000274C6070FFF72DFFFFF794FFA070FFF7C9
:1013300028FFFFF78FFFE070FFF723FFFFF78AFF1B
:101340002071FFF731FFFFF70BFF6078A1780002F3
:101350004018E1780004090240182179401810BDB6
:1013600010B50446FFF7E8FE2046FFF752FFFFF7EF
:101370002EFF0020FFF74DFFFFF729FFFFF7F0FEDC
:10138000FFF7DAFE641CE0B2FFF743FFFFF71FFF31
:10139000FFF760FF0A4C6071FFF7F3FEFFF75AFF9B
:1013A000A071FFF7EEFEFFF7DBFE6079A179000286
:1013B000401880B210BD000020000048000400006A
:1013C000380000201FB50121480400F054FE15210B
:1013D00068460173002444730121817303A800F05F
:1013E000A5FEFF487D21C900006802F0EEFA0190D9
:1013F0006846048004814480FA4C6946204601F026
:1014000051F90121204601F0CAFC01221146204673
:1014100001F0B4FC0121204601F0B5F91FBD10B563
:10142000F14A00280AD0012807D1084601214902C3
:101430000128104606D000F04CFC10BD08460121E2
:101440000903F5E700F047FC10BD1CB50920400278
:10145000009001206946087100208871C87103203E
:10146000E14C4871204600F0D4FB012109032046DD
:1014700000F02FFC01214902204600F02AFC1CBD8F
:101480007CB50124240301206946009408710020E2
:101490008871C871032009254871ED06284600F0BF
:1014A000B8FB2146284600F016FC7CBD7CB5032421
:1014B000A402012069460094087100208871C87157
:1014C0000320C94D4871284600F0A3FB2146284659
:1014D00000F001FC7CBD1CB50120C0030090002180
:1014E000684601710121C1716946BF4800F091FB56
:1014F0001CBD1CB5302000900021684601710121FF
:10150000C171032141716946B74800F082FB1CBDDF
:101510007CB50124E403012069460094087100228F
:101520008A71C871032009254871ED06284600F02C
:1015300070FB2146284600F0CCFB7CBD1CB5012089
:101540000090002069460871A74800F062FB1CBDAE
:101550001CB5012040030090002069460871A24894
:1015600000F057FB1CBDF0B585B007461421684656
:1015700002F029FA00253220FFF75DFC00246E46B8
:101580009020FFF7EDFE61007052401985B20520F2
:10159000FFF73AFC641CE4B20A2CF1D30A21284676
:1015A00002F013FA388005B0F0BD1CB501200090A0
:1015B0000020694608710920C00600F02AFB1CBD06
:1015C0007CB501246403012069460094087100225F
:1015D0008A71C8710320854D4871284600F019FBB7
:1015E0002146284600F075FB7CBD7CB50124E40350
:1015F000012069460094087100228A71C871032095
:10160000794D4871284600F004FB2146284600F039
:1016100060FB7CBD7CB50124E40301206946009495
:10162000087188710020C871032009254871ED06F2
:10163000284600F0EEFA2146284600F04AFB7CBD21
:101640001CB5022000900021684601710321417100
:1016500009206946C00600F0DCFA1CBD1CB5042058
:1016600000900021684601710321417109206946FB
:10167000C00600F0CEFA1CBD1CB5802000900120F1
:101680006946087100228A71C8710320564C48715E
:10169000204600F0BEFA8021204600F01AFB1CBD57
:1016A00010B523200121400400F0DCFCFFF7CDFE43
:1016B000FFF77BFFFFF7AEFFFFF740FFFFF780FF6D
:1016C000FFF793FFFFF7BCFFFFF7C8FFFFF7D4FF5B
:1016D000FFF700FE10BD10B509200121C00600F083
:1016E000E6FA10BD0120704770470120704770472F
:1016F0000120704770471CB50121880400F0B2FC3E
:1017000001200022694600900A71C871364800F035
:1017100080FA1CBDF0B5012193B0480400F0A2FC92
:101720000121880400F09EFC0226032168460696EB
:1017300001770024C477092006A9C00600F069FAE1
:10174000012706A92848069700F063FA01214802FC
:1017500000F091FC0121084600F084FC244D28464D
:1017600001F00AFF234801F0DFFB214809A94030BE
:101770000890214851C1802046000D90C0000F9074
:10178000202010900C94000211900E9608A912943B
:10179000184801F0FBFB0121164801F020FC022152
:1017A000284601F0C8FF0121284601F0BAFF68462B
:1017B00001F003FF6846009407710420059002942D
:1017C00069460494284601F0E5FE072202212846D6
:1017D00001F060FF07223146284601F05BFF0DE073
:1017E00000000020004401400004004800080048B8
:1017F000002401400800024040000020284601F07B
:101800006CFF0121284601F0E0FE064C28462146E7
:1018100001F0A1FF0028F9D0284601F07AFF13B0AB
:10182000F0BD000001000001F0B58DB0A1480690A8
:10183000A1496846818200248483A04FC48205A9FF
:10184000384600F02FFF05A99D4800F02BFF05A9A1
:101850009C4800F027FF05A99B4800F023FF05A93D
:101860009A4800F01FFFBD1568468584C48404852E
:1018700044850126868508A9914800F08EFF08A9B5
:10188000914800F08AFF08A9904800F086FF602187
:1018900068460180468002948481C4810582448226
:1018A0006946384600F09FFF0821384601F0E2F80B
:1018B0006946844800F097FF0821824801F0DAF871
:1018C00069467F4800F08FFF08217D4801F0D2F87B
:1018D00069467D4801F029F808217B4801F0DDF8D0
:1018E00069467A4800F07FFF0821784801F0C2F885
:1018F0000121384600F02EFF0121724800F02AFF36
:1019000001216F4800F026FF01216F4800F022FFFF
:1019100001216E4800F01EFF0121384600F033FF20
:101920000121684800F02FFF0121654800F02BFFDE
:101930000121654800F027FF0121644800F023FFE2
:101940000DB0F0BD10B500F059F8FFF76DFF10BDF8
:1019500070B516460546574A481E88B0904239D899
:10196000642E37D8501C02F030F8401E06905249C1
:101970006846818200248483C48206986421401CC6
:10198000704302F022F8014660226846028001227C
:10199000428002918481012D0BD0022D0CD0032DA9
:1019A0001AD0042D1BD0052D14D1C48105A9474C94
:1019B00005E005A9414C02E0C481414C05A920463F
:1019C00000F070FE6946204600F00DFF0821204619
:1019D00001F050F808B070BD05A93A4CEFE7C4819A
:1019E000394C05A9204600F05DFE6946204600F00E
:1019F0009CFF0821204601F050F8EBE7FEB52320BC
:101A00000121400400F02EFB0121022000F03CFBEC
:101A10000121880400F02FFB0121080200F034FBB3
:101A20000121CC02204600F026FB0121080400F031
:101A300022FB022569460D7100208871C8710320C0
:101A400048710926F60601220621304600F04DF9BC
:101A5000402000906946304600F0DBF8052207215F
:101A6000304600F042F9802000906946304600F090
:101A7000D0F8174F00220121384600F036F96946A8
:101A80003846009500F0C5F802220B21304600F0E0
:101A90002CF969463046009400F0BBF801220E2173
:101AA000384600F022F9E00000906946384600F020
:101AB000B0F8FEBD7FBB0000E7030000000400405B
:101AC0000048014000200040002C0140004001403F
:101AD000000400482B4D2C4C0026666061680C20E9
:101AE000414348194279012A09D1C3888268D21832
:101AF00023689A4203D28660C6806858804760682F
:101B0000401C60600F28E9D3E7E730B50C2314468A
:101B10001C4D5C43631959711A7128510020D880FB
:101B2000986030BD0E2805D80C225043154A01217B
:101B30008018417170470E2805D80C225043114A75
:101B4000002180184171704710B50E280ED80E4A3A
:101B500013680C2250430B4A84187D20C000484370
:101B60007D21C900A36001F030FFE08010BD064870
:101B70000168491C0160704710B5FFF723FC10BDD8
:101B800070470000A4060020480000200748804756
:101B900007480047FEE7FEE7FEE7FEE7FEE7FEE751
:101BA00004480549054A064B70470000F10100084A
:101BB000C1000008B8070020B80D0020B8090020B7
:101BC000B8090020092110B5C906884202D10121B7
:101BD0004C0404E04D49884209D101210402204609
:101BE00000F05BFA0021204600F057FA10BD48498A
:101BF000884202D101210402F1E74649884202D11C
:101C000001210C05EBE744498842EFD101218C0505
:101C1000E5E7F0B50022012423460D6893401D40FE
:101C20009D422AD10D79012D01D0022D12D1876854
:101C300055000326AE40B74387604E79AE408568B5
:101C40002E43866085889D43858085888B79934067
:101C50001D438580066855000323AB409E43066004
:101C60000E790768AE403E430660C6689E43C66074
:101C7000CB79AB40C5682B43C360521C102ACBD331
:101C8000F0BD26490160002101710222427181717B
:101C9000C1717047012208B512040A430092C26163
:101CA000C1610099C161C169C069009008BD024667
:101CB000128A00200A4200D001207047008A704733
:101CC0000246928A00200A4200D001207047808A92
:101CD00070478161704701857047002A01D081619A
:101CE000704701857047818270474B07DB0E9A4031
:101CF000C90810B589000818016A0F249C40A14347
:101D00000162016A1143016210BD00000004004835
:101D100000080048000C004800140048FFFF0000C5
:101D2000F74801680122114301604168F54A1140FA
:101D300041600168F44A1140016001680122920487
:101D40009143016041683F22120491434160C16A9E
:101D500009090901C162016BFF22543291430163F9
:101D6000416B490849004163002181607047E449A3
:101D700000228A708870704703460020E0495A09A3
:101D80000CD0012A0CD0022A0CD0496BDA06D20EF4
:101D9000012393400B4200D0012070470968F5E70A
:101DA000096AF3E7496AF1E718B50020052424021F
:101DB00000901120FFF7E0FF0099491C0091A1421B
:101DC00001D00028F5D01120FFF7D6FF002800D061
:101DD000012018BDCA4A1168F8239943C00008437E
:101DE00010607047C6490028086802D001221043DD
:101DF00001E04008400008607047C14A516BF82379
:101E00009943C000084350637047BD490028486BA0
:101E100002D00122104301E04008400048637047AF
:101E2000B74904220028486B01D0904300E01043DA
:101E300048637047B2490A6A520852000A620A6A45
:101E400004239A430A620A6A02430A627047AC4951
:101E50000A6A18239A430A620A6A02430A627047AE
:101E6000A7490028486A02D00122104301E0400837
:101E700040004862704710B5A14A53683D242404CD
:101E8000A3435360536808430343536010BD0122CA
:101E90009B4912060028086801D0104300E09043D7
:101EA00008607047964AD16A090909010143D16265
:101EB000704701229249D2040028086801D01043DB
:101EC00000E09043086070478D49C87170478C4AA4
:101ED000516889088900014351607047884840680B
:101EE0000C2108407047864A5168F023994301430A
:101EF00051607047824A516807231B02994301438E
:101F0000516070477E494A6801239B039A434A60A7
:101F10004A6883B21A434A600A6B8B159A430A6374
:101F20000A6B000C02430A63704775490A6B402331
:101F30009A430A630A6B02430A63704770490A6B4B
:101F400010239A430A630A6B02430A6370476C4981
:101F50000A6B920892000A630A6B02430A63704795
:101F6000F8B5674D044668680C21684E084003D0F8
:101F7000042801D0082801D0266012E0696868684A
:101F80000122890212040F0F1040BF1C00281CD030
:101F9000E86A0107090F3046491C01F016FD784335
:101FA000206068685A4B0006000F1A5C20680146E2
:101FB000D14061606A685205520F9A5CD140A160BD
:101FC0002A6BD20505D4534A09E05348474327609A
:101FD000E7E76A68520401D44A0800E08A08E26030
:101FE0002A6B53064D4A03D44C4B1233236100E055
:101FF00022612B6BDB0601D4666100E060612B6B14
:102000009B070FD0296B8907890F01290CD0286BFA
:102010008007800F022809D0286BC043800700D1B9
:10202000A661F8BDA161F8BDA061F8BDA261F8BDCF
:1020300033490A6A02430A62704731490028374A25
:10204000086A01D0104300E0904308627047012203
:102050002B4912040028086A01D0104300E0904385
:1020600008627047264A0029516901D0014300E007
:10207000814351617047224A0029916901D001438F
:1020800000E08143916170471D4A0029D16901D068
:10209000014300E08143D1617047194A0029916AE8
:1020A00001D0014300E0814391627047144A002946
:1020B000D16801D0014300E08143D1607047104AEC
:1020C0000029116901D0014300E08143116170478B
:1020D0000B4A0029517A01D0014300E0814351723B
:1020E00070470748416A0122120611434162704756
:1020F000034A0146926800200A4200D0012070473E
:10210000001002400CB8FFF8FFFFF6FE00127A0044
:1021100050000020809FD50000093D000080000095
:1021200001498872EBE700000010024030B5837867
:1021300001210278002B15D09408174BA400E41855
:1021400023689207D50EFF22AA4093434278920754
:10215000120EAA401A4322600078C006C00E8140C9
:102160000E4804E0D006C00E81400C48803001606B
:1021700030BD0B4A0029116901D0014300E08143C1
:1021800011617047042207490428086902D090436E
:10219000086170471043FBE700E400E000E100E065
:1021A00000ED00E000E000E0F74910B5884209D1F9
:1021B00001218C032046FFF779FF00212046FFF71D
:1021C00075FF10BDF1498842FBD101214C04204626
:1021D000FFF775FF00212046FFF771FF10BD70B5B6
:1021E0000446006888B00D464008400020606168E1
:1021F000032000038143A868084360602168E44825
:10220000EA680140686810432A690A431043206065
:10221000A06803210902884369690143A1606846F7
:10222000FFF79EFED848844201D1069800E002984C
:1022300021680904296801D5490000E089001922B4
:10224000504301F0C2FB0546642101F0BEFB0601CC
:102250003009642148432168281A090407D5C000C1
:102260006421323001F0B1FB4007400F06E000016D
:102270006421323001F0A9FB0007000F3043A08138
:1022800008B070BD4B21C90101600021416081602F
:102290000C22C16002614161704710B542680F2392
:1022A0001B029A4318C923430C6849680C43234313
:1022B0001343436010BD0021016041608160C16033
:1022C00070470029016802D00122114301E049084A
:1022D000490001607047002A026801D00A4300E00B
:1022E0008A43026070470122D2030029016801D0AD
:1022F000114300E09143016070470122D20200299E
:10230000816801D0114300E0914381607047012250
:10231000D2040029416801D0114300E0914341609B
:102320007047012292040029416801D0114300E066
:10233000914341607047002A426801D00A4300E09F
:102340008A43426070470122D2030029416801D0CC
:10235000114300E09143416070470122D2050029FA
:10236000416801D0114300E09143416070474269E8
:10237000120E1206426142690A4342617047028AA4
:10238000120A12020282028A0A4302827047022261
:102390000029016801D0114300E0914301607047BA
:1023A000826803231B059A43826082680A43826025
:1023B0007047012212050029416801D0114300E055
:1023C000914341607047426803235B059A43426032
:1023D00042680A4342607047C1690122D2039143B7
:1023E000C1617047C905C90D01857047808CC00562
:1023F000C00D704742681202120A42604268090624
:102400000A4342607047012252030029016801D04B
:10241000114300E091430160704702680123DB0231
:102420009A43026002680A430260704742681023C0
:102430009A43426042680A434260704742682023E0
:102440009A43426042680A43426070470122920305
:102450000029416801D0114300E091434160704779
:1024600008220029816801D0114300E09143816076
:102470007047028AD2B20282028A09020A430282A9
:10248000704720220029816801D0114300E0914368
:102490008160704710220029816801D0114300E05B
:1024A000914381607047826807235B049A4382608E
:1024B000826849040A438260704742691202120A24
:1024C0004261426909060A434261704782680423F7
:1024D0009A43826082680A43826070470222002920
:1024E000816801D0114300E091438160704701226F
:1024F00092030029816801D0114300E0914381607B
:10250000704782680123DB039A43826082680A4332
:102510008260704702681F235B059A43026002686D
:1025200049050A430260704702681F231B049A434F
:102530000260026809040A4302607047002A826848
:1025400001D00A4300E08A43826070478268012319
:102550005B039A43826082680A438260704710B5C9
:102560000B041C0E01238B40022C02D0032C02D042
:1025700002E0001D00E008300168002A01D0194384
:1025800000E09943016010BD003801400044004064
:10259000F3E9FFFF002A028B01D00A4300E08A43DF
:1025A00002837047826801231B039A43826082681A
:1025B0000A43826070470246D26900200A4200D076
:1025C000012070470162704730B50A04130E0122E2
:1025D000144600258C40012B0ED0022B0ED08368B0
:1025E000090C2340C0698A401040002B02D000280B
:1025F00000D00125284630BD0368F1E74368EFE7C6
:102600000A0C01219140016270470000F84910B5A1
:10261000884202D10121C41430E001218907884297
:1026200006D101210846FFF74AFD0021012008E0FC
:10263000F049884208D101210220FFF740FD002126
:102640000220FFF73CFD10BDEB49884206D1012175
:102650001020FFF734FD00211020F2E7E7498842FF
:1026600007D1841501212046FFF729FD00212046CE
:10267000E7E7E349884209D101210C042046FFF72E
:1026800015FD00212046FFF711FD10BDDD498842F0
:1026900002D101214C04F1E7DB498842F5D1012147
:1026A0008C04EBE710B50288D14B984206D0012488
:1026B000A407A04202D0CF4CA04203D17024A24371
:1026C0004C882243CC4CA04203D0D04C22400C89F1
:1026D000224302804A68C2620A880285984208D072
:1026E000C74A904205D0C74A904202D0C64A90429B
:1026F00001D1897A01860121818210BD0021C9435F
:102700004160002101800181418081727047018513
:1027100082827047028870239A430A43028070477E
:1027200041627047C1627047406A7047008D7047D0
:1027300002220029018801D0114300E09143018069
:10274000704704220029018801D0114300E0914321
:102750000180704780220029018801D0114300E0E8
:10276000914301807047028808239A4302800288BF
:102770000A43028070470288A44B1A4002800288F4
:102780000A43028070470029018802D001221143C8
:1027900001E0490849000180704710B50A884B885C
:1027A000CC881A438B8823431A430B891A434B89DD
:1027B00089891A430A434030828010BD002101807C
:1027C00041808180C1800181418181817047403099
:1027D0000029818803D00122D203114301E049047A
:1027E000490C8180704730B5028C52085200028437
:1027F000038C8288048B7025AC43A4080D88A40048
:1028000025430224A3438C891C434B882343784CE3
:10281000A04208D07A4CA04205D07A4CA04202D007
:10282000794CA0420DD10824A343CC891C43042336
:102830009C438B882343754C22400C8A14434A8A5C
:1028400022438280058389684163038430BD70B56B
:10285000028C10239A430284048C8288038B6C4D73
:102860002B400D782D062D0C1D4320239C438B8976
:102870001B051E0C4B8826431B051B0C5C4C33436D
:10288000A04215D18024A343CC892405240C1C43E9
:1028900040239C438B881B051B0C23435D4C22402B
:1028A0000C8AA404240C14434A8A9204120C224376
:1028B0008280058389688163038470BD30B5028C92
:1028C000554B1A400284038C8288848B7025AC435C
:1028D000A4080D88A4002543504C23400C7B2406FB
:1028E000240C1C438B781B061B0C2343404CA0423A
:1028F00015D14B4C23408C7B2406240C1C43494BA4
:102900001C400B791B061B0C2343474C22400C8AAE
:102910002405240C14434A8A1205120C2243828097
:1029200085838968C163038430BD30B5028C3F4B19
:102930001A400284048C8388828B354D2A400D789E
:102940002D062D0C15433A4A14400A7B1207120C2F
:1029500022438C782407240C1443254A904205D145
:10296000344A13400A8A9205120C134383808583EC
:1029700089680164048430BD002101804180818028
:1029800081608181C18101824182704730B50346F7
:1029900018330124058C8C40A5430584002910D0F0
:1029A00008290ED0091F0804400CC018016807232D
:1029B0001B039943016001681206120C1143016068
:1029C00030BD4808C0180168702399430160016850
:1029D000F4E74163704781637047C16370470164E6
:1029E0007047028B70239A430A43028370470000AA
:1029F000002C014000040040001000400020004076
:102A0000004001400044014000480140FFFC00003C
:102A1000FF8C0000FFF30000FFFE0000FFFD000040
:102A2000FFF70000FFFB0000FFCF0000FFEF0000FA
:102A3000FFDF0000FFBF0000028BF64B09021A40C7
:102A400011430183D2E7828B70239A430A43828326
:102A5000CCE7828BEF4B09021A4011438183C5E713
:102A60000029818802D00122114301E04908490070
:102A70008180BBE7028B08239A430A430283B5E7B0
:102A8000028BE54B09021A4011430183AEE7828BAA
:102A900008239A430A438283A8E7828BDE4B09020C
:102AA0001A4011438183A1E7028B04239A430A430E
:102AB00002839BE7028BD94B09021A401143018321
:102AC00094E7828B04239A430A4382838EE7828BA6
:102AD000D24B09021A401143818387E7028B80237E
:102AE0009A430A43028381E7028B5204520C090283
:102AF000114301837AE7828B80239A430A438283BE
:102B000074E7828B5204520C0902114381836DE7F2
:102B1000028C02239A430A43028467E7028C08234B
:102B20009A430A43028461E7028C20239A430901F5
:102B3000114301845AE7028C80239A43090111430F
:102B4000018453E7028CB64B09021A4011430184F9
:102B50004CE7028CB04B09021A401143018445E74F
:102B6000028CB04B09031A40114301843EE70289ED
:102B700008239A43028102890A43028136E710B58D
:102B80000123048C8B409C430484038C8A401343B0
:102B9000038410BD10B50423048C8B409C43048433
:102BA000038C8A401343038410BD042200298188CA
:102BB00001D0114300E09143818017E7828B9A4B4B
:102BC0001A408283828B09020A4382830EE7828B3A
:102BD0000C239A438283828B0A43828306E7028B0B
:102BE000914B1A400283028B09020A430283FDE6DD
:102BF000F0B5048C1026B4430484058B048C8B4FF1
:102C00001B0309013D402B4312021A43A0239C439E
:102C10000C43344302830484F0BD028B0C239A439B
:102C20000283028B0A430283E0E670B5048C6408D9
:102C300064000484058B048C1B011343F3260A22D1
:102C4000B54394432B430C4301210C430383048479
:102C500070BDF8B5044608884E888A880B890D46F1
:102C600000281DD0042824D00828208C2AD07049A0
:102C700008402084A08B278C31036C4E1202304018
:102C80000243180310436B4AA08317400F430121EE
:102C900009030F432784E9882046FFF78FFFF8BD1B
:102CA00031462046FFF7C1FFE9882046FFF7B5FF10
:102CB000F8BD31462046FFF79BFFE9882046FFF725
:102CC0008EFFF8BD5C4908402084A18B208C370220
:102CD000F3261B01B14313430B435849A383084018
:102CE000FF213843013108432084E9882046FFF75B
:102CF0006EFFF8BD00210180418001228280C180E9
:102D0000018173E6F8B50C4649880026012507467F
:102D1000002900D10226A288012A00D1022520889C
:102D200023890028384610D0FFF762FFE188384633
:102D3000FFF755FF23892A4631463846FFF775FFCE
:102D4000E1883846FFF769FFF8BDFFF76EFFE188BD
:102D50003846FFF762FF23892A4631463846FFF797
:102D600047FFE1883846FFF73AFFF8BD406B3DE684
:102D7000806B3BE6C06B39E6006C37E6002A82893F
:102D800001D00A4300E08A4382812FE681822DE64A
:102D90000246128A00200A4200D0012026E6C943DA
:102DA000018223E60246138A002092890B400A40E2
:102DB000002B02D0002A00D0012017E6C94301826F
:102DC00014E611434030018110E6002A828901D0C7
:102DD0000A4300E08A43828108E6082200298188AC
:102DE00001D0114300E091438180FFE50189C908CA
:102DF000C9000181FAE5028970239A430A430281DE
:102E0000F4E510B50446FFF7F6FF208907210843D3
:102E1000208110BDFF8F0000FFF70000FFFB0000C6
:102E2000FFFD0000FFDF0000FFF30000FF0C0000CB
:102E3000FFEF0000FF5F0000FFFE0000FFF5000055
:102E400070B516460D46044660290CD00122314665
:102E5000FFF7EBFE29462046FFF7CDFF208907212B
:102E60000843208170BD01223146FFF7C1FEF1E722
:102E700010B504891B021343E4B20B4323430381BF
:102E800010BD10B50446FFF7F3FF2089C108C90043
:102E900007200143702081430143218110BD10B5FB
:102EA0000446FFF7E5FF20890121890308432081BB
:102EB00010BD828870239A43828082880A43828070
:102EC00094E50289D208D200028102890A43028174
:102ED0008CE5028980239A43028102890A43028198
:102EE00084E570B50689048B058CF608F6000E4360
:102EF0000C4906810C40FF2102310C43AA218D436D
:102F00001901114329430483018470BD80220029E3
:102F1000818801D0114300E09143818066E5403013
:102F2000018263E5FCFC00000168454A1140016034
:102F30000021016041608160C1604249414A083915
:102F4000904202D148680F2205E03E4A1432904276
:102F500004D14868F022104348607047394A28324B
:102F6000904203D148680F221202F4E7354A3C32FE
:102F7000904203D148680F221203ECE7314A5032E5
:102F80009042EAD148680F221204E4E730B50368A2
:102F90002D4A0C6A13408A684D6922430C692C4300
:102FA00022438C692243CC6922434C6A22438C6AB7
:102FB00022431A430260CA6842600A688260496814
:102FC000C16030BD0021016041608160C16001616C
:102FD00041618161C1610162416281627047002982
:102FE000016802D00122114301E0154A114001603D
:102FF000704741607047406880B27047002A02689D
:1030000001D00A4300E08A430260704701460D4A3E
:103010000020083A12680A4200D00120704709498E
:103020000839486070470146064A0020083A12688D
:103030000A4200D0012070470249083948607047B1
:10304000FEFF0000080002400F80FFFF10B50121C5
:103050000C072046FFF733F800212046FFF72FF832
:1030600010BD30498A150028086801D0104300E0DF
:103070009043086070472B4A1168E023994301434D
:1030800011607047274910220028086801D01043BA
:1030900000E0904308607047224A0029516801D03F
:1030A000014300E08143516070471F490A690423CE
:1030B0009A430A61012801D020BF704730BF704792
:1030C000184B1A689208920002431A601648036966
:1030D000042213430361012904D020BF01699143F5
:1030E0000161704730BFF9E70E48026804210A43C6
:1030F0000260026802231A4302600B4802690A4315
:10310000026130BF7047074A0146526800200A42F8
:1031100000D00120704703490A68800002430A601A
:10312000704700000070004000ED00E0FE4A1168AA
:1031300049084900014311607047FB4910220028EB
:10314000086801D0104300E0904308607047F649DA
:1031500000200968890600D501207047F2480169FE
:10316000090603D5F1494160F14941607047EE48D5
:1031700001698022114301617047EB490420CA684C
:10318000D20701D001207047CA68D20601D50220BB
:103190007047C9684907FBD50320704700B503464F
:1031A000FFF7EBFF02E0FFF7E8FF5B1E012803D00B
:1031B000002B00D1052000BD002BF4D1FAE7F0B5BB
:1031C0000B2706463F043846FFF7E8FF04280FD1D7
:1031D000D54C206902252843206166612069402181
:1031E000084320613846FFF7D9FF2169A9432161CF
:1031F000F0BD70B50B252D042846FFF7CFFF04283E
:103200000ED1C94C20690426304320612069402139
:10321000084320612846FFF7C1FF2169B1432161BE
:1032200070BDF8B5064600200B273F0400900D4600
:103230003846FFF7B3FF042815D1BB4C20690121A4
:103240000843206135803846FFF7A8FF042806D1DF
:10325000B61C280C009630803846FFF79FFF216986
:10326000490849002161F8BDF0B50B2706463F0427
:103270000D463846FFF792FF04280CD1AA4C20696E
:1032800001210843206135803846FFF787FF216917
:10329000490849002161F0BDA3480169890503D4AB
:1032A000A2498160A249816070479F480169421527
:1032B0009143016170479C48016901225203114307
:1032C0000161704798490020C9694907890F00D0FA
:1032D00001207047F0B5AA25FFF7F4FF002800D0C1
:1032E00000250B273F043846FFF758FF042813D169
:1032F0008D4C2069202630432061206940210843FD
:1033000020613846FFF74AFF1021042805D0052820
:1033100002D022698A432261F0BD2069B043206156
:1033200020690E4630432061824805803846FFF709
:1033300035FF0528F0D02169B1432161F0BDF0B51A
:10334000C043C6B20004050E0B200004FFF726FFA1
:1033500004281BD1744C2169102211432161754F3F
:10336000FF2E06D03E810B200004FFF717FF042834
:1033700006D1FF2D06D07D810B200004FFF70EFF44
:10338000052803D0226910218A432261F0BDF0B5DF
:103390000B26074636043046FFF700FF04281ED1EF
:1033A000614C206920252843206120694021084381
:1033B00020613046FFF7F2FE04280BD12069A843B4
:1033C000206120691025284320615A480780304633
:1033D000FFF7E4FE052802D02169A9432161F0BD71
:1033E000F0B505460B2094460F460004FFF7D6FEC5
:1033F000042814D14C4C20691026304320613D43F1
:1034000060460543F82005434A4845800B200004E8
:10341000FFF7C4FE052802D02169B1432161F0BD48
:10342000F0B50B2705463F043846FFF7B7FE0428E2
:1034300010D13D4C2069102630432061EF20054318
:103440003C4845803846FFF7A9FE052802D021698F
:10345000B1432161F0BDF0B50B2705463F04384666
:10346000FFF79CFE042810D12F4C20691026304312
:103470002061DF2005432F4845803846FFF78EFE48
:10348000052802D02169B1432161F0BDF0B50B27B9
:1034900005463F043846FFF781FE042810D1224C30
:1034A0002069102630432061BF2005432148458014
:1034B0003846FFF773FE052802D02169B143216128
:1034C000F0BDF0B50B2705463F043846FFF766FE12
:1034D000042810D1144C2069102630432061882024
:1034E0000543144845803846FFF758FE052802D0AA
:1034F0002169B1432161F0BDF0B507460B200E46AE
:103500000004FFF74BFE042817D1074C2069102553
:10351000284320613E800B200004FFF73FFE052872
:103520000BD02169A94307E0002002402301674531
:10353000AB89EFCD00F8FF1F2161F0BD0D48C069D8
:103540000004000E70470B48006A7047094A0029C2
:10355000116901D0014300E0814311617047054AC0
:103560000146D26800200A4200D00120704701497C
:10357000C860704700200240854910B5884208D1D4
:10358000441501212046FEF791FD00212046FEF75B
:103590008DFD10BD30B5C3687E4A8C6813400A6843
:1035A0000D792243CC686D032C4322430C69496991
:1035B00022430A431A43C26030BD002101600171F9
:1035C0008160C1600161416170470029816801D05B
:1035D000012200E00222114381607047002A026943
:1035E00001D00A4300E08A43026170470122D203FE
:1035F0000029C16801D0114300E09143C1607047C8
:10360000012292030029C16801D0114300E09143D7
:10361000C16070470122D2050029C16801D0114361
:1036200000E09143C1607047090411430162704793
:10363000C2681F239B069A430A43C2607047012257
:1036400092050029C16801D0114300E09143C16097
:10365000704701225049D2050028886801D01043E4
:1036600000E090438860704701224B499205002892
:10367000886801D0104300E09043886070470122C1
:10368000454912060028886801D0104300E09043A5
:1036900088607047836A0B438362426170470122EE
:1036A00052030029C16801D0114300E09143C16079
:1036B0007047012212040029C16801D0114300E0C3
:1036C0009143C1607047012212030029C16801D0F3
:1036D000114300E09143C1607047826800210123DB
:1036E000DB071A4382600F231B038268491CD20F39
:1036F000D207994201D0002AF7D18168002901DB65
:10370000006C70470020704781681022114381606F
:10371000704781680422114381607047006C80B259
:1037200070470029C16802D00122114301E0490815
:103730004900C1607047C26802239A43C260C268F0
:103740000A43C2607047002A426801D00A4300E081
:103750008A434260704702460020CB0104D592683C
:1037600001231B069A4300E012680A4200D00120A0
:1037700070470160704702465368002012680B4092
:103780000A4202D0002B00D0012070470160704730
:103790000024014003D2FFFF002701403248314995
:1037A0000160002141608160C16030494161704722
:1037B00010B583792C490268002B26D00B689343FF
:1037C0000B604A6803689A434A600279521813688A
:1037D0000468234313608A6803689A438A60CA684E
:1037E00003689A43CA604279102A05D051180A68C2
:1037F000006802430A6010BD8A6803681A438A6041
:10380000CA6800680243CA6010BD007940180168A8
:103810009143016010BD0021016001710C224271D1
:103820008171704710490A6902430A6170470E4A64
:103830000146526900200A4200D0012070470A491F
:1038400048617047084A01461368002052690B40DE
:103850000A4202D0002B00D0012070470249486183
:10386000704700000000940F00040140FFFF6B0050
:10387000244801688907890F016000218160C160C7
:1038800001614161816982151143816170471D4A5F
:10389000116889088900014311607047194A00299D
:1038A000116801D0014300E0814311607047154A5F
:1038B0000029116801D0014300E081431160704785
:1038C0008A07130F10B50F229A408C080D49A400E7
:1038D00061188C6894438C608A68984002438A60BF
:1038E00010BD08498A6902438A6170470549002072
:1038F0008969C90500D50120704702498A690243D8
:103900008A61704700000140F8B5042A2CD3830770
:1039100012D00B78491C0370401C521E83070BD039
:103920000B78491C0370401C521E830704D00B788F
:10393000491C0370401C521E8B079B0F05D0C91AEF
:10394000DF002023DE1B08C90AE0FCF70BFCF8BDF2
:103950001D4608C9FD401C46B4402C4310C0121F30
:10396000042AF5D2F308C91A521EF0D40B78491C68
:103970000370401C521EEAD40B78491C0370401C93
:10398000012AE4D409780170F8BD01E004C0091FE0
:103990000429FBD28B0701D50280801CC90700D007
:1039A0000270704700290BD0C30702D00270401C80
:1039B000491E022904D3830702D50280801C891E78
:1039C000E3E70022EEE70022DFE7002203098B4253
:1039D0002CD3030A8B4211D300239C464EE00346AE
:1039E0000B433CD4002243088B4231D303098B4262
:1039F0001CD3030A8B4201D394463FE0C3098B4298
:103A000001D3CB01C01A524183098B4201D38B01F0
:103A1000C01A524143098B4201D34B01C01A524193
:103A200003098B4201D30B01C01A5241C3088B42D8
:103A300001D3CB00C01A524183088B4201D38B00C3
:103A4000C01A524143088B4201D34B00C01A524165
:103A5000411A00D201465241104670475DE0CA0F3C
:103A600000D04942031000D34042534000229C46FC
:103A700003098B422DD3030A8B4212D3FC22890106
:103A800012BA030A8B420CD3890192118B4208D3DC
:103A9000890192118B4204D389013AD0921100E03E
:103AA0008909C3098B4201D3CB01C01A5241830952
:103AB0008B4201D38B01C01A524143098B4201D37F
:103AC0004B01C01A524103098B4201D30B01C01AAA
:103AD0005241C3088B4201D3CB00C01A5241830824
:103AE0008B4201D38B00C01A5241D9D243088B427A
:103AF00001D34B00C01A5241411A00D2014663461D
:103B000052415B10104601D34042002B00D5494280
:103B1000704763465B1000D3404201B50020C046A9
:103B2000C04602BD704770477047754600F024F8E4
:103B3000AE46050069465346C008C000854618B029
:103B400020B5FEF72DF860BC00274908B6460026D0
:103B5000C0C5C0C5C0C5C0C5C0C5C0C5C0C5C0C53D
:103B6000403D49008D46704710B50446C046C046EA
:103B70002046FCF7F0FA10BD0048704758070020B7
:103B800001491820ABBEFEE726000200704730B4A2
:103B90007446641E2578641CAB4200D21D46635DEA
:103BA0005B00E31830BC1847C83B00080000002049
:103BB0006000000004010008283C000860000020AC
:103BC000580D000020010008006CDC02000000001D
:103BD00000000000010203040607080900010000BC
:103BE00000000000030100010000000000000000D0
:103BF00000000000000000000000000000000000C5
:103C000000000000000000000000000000000000B4
:103C1000000000000000000000000000010203049A
:083C2000010203040607080974
:0400000508001B8D47
:00000001FF
