:020000040800F2
:10000000E0040020D500000859040008CD030008D2
:1000100000000000000000000000000000000000E0
:100020000000000000000000000000009907000828
:10003000000000000000000031050008B1080008C1
:100040000501000800000000050100080501000886
:100050000501000835020008050100080501000837
:100060000000000005010008050100080501000866
:100070000501000805010008050100080000000056
:100080000501000805010008050100080501000838
:1000900005010008E1090008050100080501000844
:1000A0000501000805010008050100080501000818
:1000B0000501000805010008000000000501000816
:1000C0000348854600F048F800480047C90C00087E
:1000D000E00400200C4880F308880C480168090EF1
:1000E0000B4A914205D10B480B4901600B480C4962
:1000F00001600C4880470C480047FEE7FEE7FEE73A
:10010000FEE7FEE7FEE70000E00400200400000038
:100110001F00000018100240010000000000014014
:100120000000000065090008C100000830B50B465A
:10013000014600202022012409E00D46D5409D42C1
:1001400005D31D469540491B254695404019154647
:10015000521E002DF1DC30BD064C0125064E05E097
:10016000E36807CC2B430C3C98471034B442F7D3D8
:10017000FFF7AAFF940E0008B40E00081CB5012179
:100180000320400400F0F2F909204002009003210E
:100190006846417101210171002181710121C17104
:1001A0006946044800F0BCF809214902014800F002
:1001B0000BF91CBD0004004800B585B001210320E7
:1001C000400400F0D3F90121480400F0DFF90121D7
:1001D000084600F0EBF90121480400F0E7F900219E
:1001E00068460174C17441740120039003A910484A
:1001F00000F096F80021012000F0D0FA01200190D3
:100200000021684601720C2141720121817201A80E
:1002100000F034F8012168464170817000F01EF949
:1002200005216846017000F019F905B000BD000015
:100230000004004810B5012000F012F8002802D098
:10024000022003490870012000F004F810BD0000EE
:100250001B00002001494861704700000004014074
:1002600001460020044A52690A40002A01D00120B8
:1002700000E00020704700000004014000212049F8
:100280008279002A35D00A46126803689A430B46E1
:100290001A600A46526803689A430B465A6002790C
:1002A00051180A6803681A430A60154A926803687D
:1002B0009A43134B9A601A46D26803689A43104BCC
:1002C000DA604279102A0CD11A46926803681A4300
:1002D0000B4B9A601A46D26803681A43084BDA60DF
:1002E0000DE00749427951180A6803681A430A6009
:1002F00005E0027951180A6803689A430A6070475A
:100300000004014010B5FFF757FFFFF737FF012149
:10031000080700F03BF90121084600F0D7F810BDAE
:10032000F0B50A4600210023002400BF3DE001256E
:100330008D402B4615681D402C469C4234D11579C2
:10034000012D02D01579022D16D185684F000326A4
:10035000BE40B543856055794E00B540866835434B
:100360008560858801268E40B5438580858896798D
:100370008E40B6B23543858005684F000326BE40E7
:10038000B543056015794E00B540066835430560F4
:10039000C5684F000326BE40B543C560D5794E0001
:1003A000B540C6683543C560491C1029BFD3F0BDB0
:1003B00002460020138A0B40002B01D0012000E0F0
:1003C00000207047018570478161704700BFFEE7DC
:1003D0001CB50120400300900121684601710021F5
:1003E00081710121C1710321417169460448FFF700
:1003F00097FF012149030248FFF7E6FF1CBD0000FB
:10040000000800481CB50920400200900121684600
:10041000017100218171C171032141716946074851
:10042000FFF77EFF012149020448FFF7CDFF0121BC
:1004300009030248FFF7C8FF1CBD00000004004884
:100440001CB5012000900020694608710148FFF7A3
:1004500067FF1CBD0004004870470000002182783F
:10046000002A27D0184A03231B02D21803789B10B6
:100470009B00D15802789207D30EFF229A400B4678
:100480009343194642789207120E03789B07DB0EBE
:100490009A4011430C4A03231B02D21803789B1085
:1004A0009B00D1500278D306DB0E01229A40064B06
:1004B0001A6007E00278D306DB0E01229A40024B55
:1004C00080331A607047000000E100E010B502467A
:1004D0000020154B18688008800003461343184617
:1004E000114B1860114B1B69042423430F4C2361EB
:1004F000012907D130BF23461B690424A3430B4CB9
:1005000023610FE0022907D120BF084B1B69042497
:10051000A343064C236105E0044B1B6902242343DB
:10052000024C236110BD00000070004000ED00E0AF
:10053000704700000C4949680122920391430A4A1E
:1005400051601146496882B21143074A5160114611
:10055000096B92159143044A11631146096B020C11
:100560001143014A1163704700100240002905D071
:10057000054A52690243044B5A6104E0024A526937
:100580008243014B5A61704700100240002905D098
:10059000054AD2690243044BDA6104E0024AD26997
:1005A0008243014BDA61704700100240002905D0F8
:1005B000054A92690243044B9A6104E0024A926937
:1005C0008243014B9A6170470010024010B500F061
:1005D00025F80521C904002000F0BEF8012000F034
:1005E000A7F800BF192000F055F80028FAD0022023
:1005F00000F0C4F800BF00F071F80828FBD100201B
:1006000000F074F8002000F081F80348FFF792FF33
:1006100000F050F910BD00000040000119480068CA
:1006200001210843174908600846406816490840F8
:100630001449486008460068144908401149086098
:10064000084600680121890488430E49086008466D
:1006500040683F21090488430A4948600846C06A47
:1006600000090001C8620846006B094908400549B5
:1006700008630846406B40084000486300208860DB
:1006800070470000001002400CB8FF08FFFFF6FEA4
:10069000ACFEF0FF10B502460021002300205111EE
:1006A000002902D10C4C23680BE0012902D10A4C2D
:1006B000236A06E0022902D1074C636A01E0064C76
:1006C000636BD106C90E01248C401C40002C01D064
:1006D000012000E0002010BD0010024002484068E8
:1006E0000C21084070470000001002400146002025
:1006F000054A5068F02302469A43104602460A43D0
:100700001046014A50607047001002400146002028
:10071000064A506807231B0202469A4310460246C7
:100720000A431046014A5060704700000010024022
:10073000002807D007490968012212061143054A1B
:10074000116006E003490968012212069143014A3B
:100750001160704700100240074A52687B23DB0398
:100760009A43054B5A601A46526803460B431A4394
:10077000014B5A6070470000001002400146002003
:10078000044A50688008800002460A431046014A25
:1007900050607047001002407047000030B50022E2
:1007A0008B071C0F0F23A3401A460B4B8C10A40081
:1007B0001B599343084C8D10AD00635123468C1098
:1007C000A4001B598C07250F0446AC402343024C60
:1007D0008D10AD00635130BD080001400CB5002004
:1007E00001900090274800680121084325490860CE
:1007F0000846006802210840002802D00820009026
:1008000001E0012000900098082839D111201E49EC
:1008100008601C4840681B494860084640684860BA
:10082000084640687F21C903884316494860084646
:100830004068152149040843124948600846006889
:100840000121090608430F49086000BF0D480068F0
:100850000121490608400028F8D00A48406880086D
:10086000800008494860084640680221084305495D
:10087000486000BF034840680C2108400828F9D1AF
:100880000CBD00000010024000200240042806D1E8
:100890000649096904221143044A116105E003492C
:1008A000096904229143014A1161704700E000E0A8
:1008B00070470000F8B500250024002600272448D2
:1008C00040680C2108400546002D04D0042D06D0B8
:1008D000082D2AD107E01F481F49086029E01D485C
:1008E0001D49086025E01A4840680F218904084026
:1008F0000446174840680321C90308400646A00C77
:10090000841C002E04D115486043134908600BE095
:100910000F48C06A0007000F471C39460D48FFF713
:1009200005FC60430C49086003E00A480A49086076
:1009300000BF00BF06484068F02108400009084990
:100940000D5C05480068E84003490860F8BD0000F8
:100950000010024000127A000000002000093D0053
:100960000400002010B51B48006801210843194904
:10097000086008464068184908401649486008461B
:1009800000681649084013490860084600680121BC
:10099000890488430F490860084640683F210904DC
:1009A00088430C4948600846C06A00090001C862D3
:1009B0000846006BFF215431884306490863084606
:1009C000406B40084000486300208860FFF706FF46
:1009D00010BD0000001002400CB8FF08FFFFF6FE3B
:1009E00010B50121054800F01FF8002805D000F0DF
:1009F000C7F90121014800F006F810BD004401408C
:100A0000CA4302827047CA4302827047002904D059
:100A1000028801231A43028003E00288014B1A4036
:100A200002807047FEFF000030B502460020002320
:100A30000024158A0D402B4695890D402C46002B2D
:100A400003D0002C01D0012000E0002030BD002A9E
:100A500003D083890B43838102E083898B438381A5
:100A60007047000000220288154B984206D00123EF
:100A70009B07984202D0134B984203D1124B1A4065
:100A80004B881A43114B984203D0114B1A400B89E3
:100A90001A4302804B68C3620B880385084B984257
:100AA00008D00C4B984205D00B4B984202D00B4B10
:100AB000984201D18B7A038601238382704700001C
:100AC000002C0140000400408FFF00000010004097
:100AD000FFFC00000040014000440140004801408C
:100AE00002E008C8121F08C1002AFAD170477047F7
:100AF000002001E001C1121F002AFBD17047000055
:100B000010B50420C043FFF7C1FE0849084800683B
:100B1000FFF70CFB40B207490870002008567D2102
:100B2000C900484300B20449088010BD00127A0091
:100B300000000020140000201600002010B5012144
:100B400003204004FFF712FDFFF75CFCFFF778FC81
:100B5000FFF73EFC10BD000010B5002005490860FD
:100B6000FFF734FDFFF7CCFF00F006F900F004F8C2
:100B700010BD00002000002010B5FFF7DFFF0122AC
:100B80001146034800F0B6F8002000F001F910BD4E
:100B9000F90B00081FB501214804FFF707FD1521D7
:100BA000684601700021417001218170FFF756FCF9
:100BB0007D21C9000E480068FFF7B8FA401E029078
:100BC0000021684681808181C180817301A9094823
:100BD000FFF748FF01210748FFF712FF01221146E6
:100BE0000448FFF734FF01210248FFF70FFF1FBD44
:100BF000000000200044014010B52E480078022873
:100C000037D101212C48FFF7D3FB002827D12B48EF
:100C1000007831281DD10020284908702848007824
:100C2000002801D1012000E0002025490870084675
:100C30000078002806D000202249087004201D49B1
:100C4000087016E001201F4908700020194908703B
:100C50000FE01A480078401C1849087009E000208D
:100C60001649087016480078002802D1032011495F
:100C7000087010480078032803D1FFF743FBFFF703
:100C80006BFF0C480078042806D10121002000F0F9
:100C9000D9F801200749087006480078002803D1D8
:100CA000FFF730FBFFF758FF1421012000F040F858
:100CB00010BD00001B000020000400481D000020A3
:100CC0001A0000201900002010B5FFF77FFCFFF785
:100CD00017FF00F051F8FFF715FBFFF73DFF00226B
:100CE0000121034800F006F800F064F8002010BD70
:100CF000790B000870B5034600BF10460C2444432E
:100D00000A4D641961710C244443641922710C2446
:100D100044432B5100250C244443044EA419E58080
:100D20000C244443A419A56070BD00002C000020D1
:100D300070B504460D460E2C00DD70BD00BF264682
:100D40000B4801680C2070430A4A801881607D219D
:100D5000C900694308467D21C900FFF7E7F981B260
:100D60000C207043034A8018C18000BF00BFE4E735
:100D7000200000202C00002010B5FFF70BFF10BD55
:100D800002480068401C01490860704720000020AC
:100D900010B50E2800DD10BD00BF014600230C2257
:100DA0004A43034C1219537100BF00BFF3E7000020
:100DB0002C0000203EE000201F49086036E01E485D
:100DC00000680C2148431D4940184079012828D16A
:100DD000194800680C214843184940188168164892
:100DE00000680C225043154A8018C088081814491E
:100DF0000968884215D800210F4800680C2250432A
:100E00000E4A801881600C4800680C2250430B4A3F
:100E10008018C180084909680C225143074A50587C
:100E2000804705480068401C034908600248006884
:100E30000F28C4D3BFE70000280000202C000020AA
:100E40002000002070B505460C46002D02D0012D73
:100E50001AD10CE0012C04D161020D48FFF7B2FA5F
:100E600004E0012149020A48FFF7AEFA0DE0012C27
:100E700004D121030648FFF7A5FA04E00121090384
:100E80000348FFF7A1FA00E000BF00BF70BD0000FB
:100E900000040048B40E0008000000202C000000F0
:100EA000E00A0008E00E00082C000020B404000056
:100EB000F00A0008006CDC020000000000000000E6
:100EC00001020304060708090000000003010001F5
:100ED0000000000000000000000000000000000012
:04000005080000C12E
:00000001FF
