:020000040800F2
:10000000E8040020D5000008B107000871020008CC
:1000100000000000000000000000000000000000E0
:100020000000000000000000000000006D0A000851
:10003000000000000000000025080008450B000833
:100040000501000800000000050100080501000886
:1000500005010008950100080501000805010008D8
:100060000000000005010008050100080501000866
:100070000501000805010008050100080000000056
:100080000501000805010008050100080501000838
:1000900005010008750C00080501000805010008AD
:1000A0000501000805010008050100080501000818
:1000B0000501000805010008000000000501000816
:1000C0000348854600F048F800480047550F0008EF
:1000D000E80400200C4880F308880C480168090EE9
:1000E0000B4A914205D10B480B4901600B480C4962
:1000F00001600C4880470C480047FEE7FEE7FEE73A
:10010000FEE7FEE7FEE70000E80400200400000030
:100110001F00000018100240010000000000014014
:1001200000000000F90B0008C100000830B50B46C4
:10013000014600202022012409E00D46D5409D42C1
:1001400005D31D469540491B254695404019154647
:10015000521E002DF1DC30BD064C0125064E05E097
:10016000E36807CC2B430C3C98471034B442F7D3D8
:10017000FFF7AAFFC4100008E410000810B50446F9
:1001800020B200F025FE10BD10B50446204600F058
:1001900049FE10BD10B5012000F012F8002802D071
:1001A000022003490870012000F004F810BD00008F
:1001B000230000200149486170470000000401400D
:1001C00001460020044A52690A40002A01D0012059
:1001D00000E000207047000000040140F0B50A462E
:1001E00000210023002400BF3DE001258D402B4667
:1001F00015681D402C469C4234D11579012D02D042
:100200001579022D16D185684F000326BE40B543EF
:10021000856055794E00B540866835438560858890
:1002200001268E40B5438580858896798E40B6B28A
:100230003543858005684F000326BE40B543056001
:1002400015794E00B540066835430560C5684F0016
:100250000326BE40B543C560D5794E00B540C6689B
:100260003543C560491C1029BFD3F0BD01857047D7
:1002700000BFFEE710B50024082011498861052061
:10028000FFF782FF10200E4988610520FFF77CFFF1
:1002900000F03CF81420FFF777FF0948008A082196
:1002A0000840C41000F046F80520FFF76DFF10204D
:1002B0000349203108811920FFF766FF204610BD51
:1002C0000004004870B5002400F020F8002516E076
:1002D00010200D4988610520FFF756FF6006040EC7
:1002E0000948008A08210840C0100443102006492C
:1002F000203108810520FFF747FF681CC5B2082D93
:10030000E6DB204670BD0000000400481CB5082054
:100310000090002168460171012181710021C171A5
:100320000321417169460248FFF758FF1CBD0000D8
:10033000000400481CB508200090012168460171A6
:1003400081710021C1710321417169460148FFF7A4
:1003500045FF1CBD0004004810B5FFF7EBFF082067
:100360000749088110200649203988610520FFF7D8
:100370000BFF1020024908810520FFF705FF10BD83
:100380002004004870B5044600251FE0802020406E
:10039000002803D008200F49886103E008200D4998
:1003A000203108816006040E0520FFF7EDFE1020C5
:1003B000084988610520FFF7E7FE10200549203134
:1003C00008810520FFF7E0FE681CC5B2082DDDDBC3
:1003D00070BD00000004004810B5FFF7ABFF082017
:1003E00007498861102088610520FFF7CDFE1020A5
:1003F0000349203108810520FFF7C6FE10BD00002B
:100400000004004810B5FFF795FF082009498861EE
:10041000102088610520FFF7B7FE0820054920312C
:1004200008810520FFF7B0FE102002492031088125
:1004300010BD00000004004810B5082008490881DC
:1004400010200749203988610520FFF79DFE08200C
:100450000349203988610520FFF796FE10BD000092
:10046000200400481CB50121880400F0F9F910208F
:10047000009001216846017181710021C171032141
:10048000417169460148FFF7A9FE1CBD0004004800
:1004900010B500F043F800F01FF9EE2000F0DCF892
:1004A00000F052F81E2000F0D7F800F04DF800F0F0
:1004B0002DF910BD1CB58020009001216846017106
:1004C000002181710121C1710321417169460448F4
:1004D000FFF784FE80210248FFF7C8FE1CBD000024
:1004E0000004004810B5FFF7BDFFFFF78BFF302079
:1004F000FFF748FFFFF7BEFEAA20FFF743FFFFF715
:10050000B9FE0020FFF73EFFFFF7B4FE0020FFF723
:1005100039FFFFF7AFFEFFF78FFF10BD1CB50121BC
:10052000880400F09DF96020009001216846017167
:1005300081710021C1710321417169460148FFF7B2
:100540004DFE1CBD0004004810B5002420201149B8
:1005500088610520FFF718FE40200E4988610520BC
:10056000FFF712FE00F03CF81420FFF70DFE0948DB
:10057000008A20210840441100F046F80520FFF7CA
:1005800003FE40200349203108811920FFF7FCFDBC
:10059000204610BD0004004870B5002400F020F88B
:1005A000002516E040200D4988610520FFF7ECFD8D
:1005B0006006040E0948008A2021084040110443C7
:1005C00040200649203108810520FFF7DDFD681C29
:1005D000C5B2082DE6DB204670BD000000040048CF
:1005E0001CB5202000900021684601710121817115
:1005F0000021C1710321417169460248FFF7EEFDF8
:100600001CBD0000000400481CB520200090012102
:100610006846017181710021C171032141716946F0
:100620000148FFF7DBFD1CBD0004004810B5FFF7D3
:10063000EBFF2020074908814020064920398861C6
:100640000520FFF7A1FD4020024908810520FFF7A2
:100650009BFD10BD2004004870B5044600251FE036
:1006600080202040002803D020200F49886103E02B
:1006700020200D49203108816006040E0520FFF777
:1006800083FD4020084988610520FFF77DFD40205B
:100690000549203108810520FFF776FD681CC5B2A9
:1006A000082DDDDB70BD00000004004810B5FFF729
:1006B000ABFF202007498861402088610520FFF7B3
:1006C00063FD40200349203108810520FFF75CFDD0
:1006D00010BD00000004004810B5FFF795FF202072
:1006E00009498861402088610520FFF74DFD2020E1
:1006F0000549203108810520FFF746FD40200249C9
:100700002031088110BD00000004004810B52020F1
:100710000849088140200749203988610520FFF7F2
:1007200033FD20200349203988610520FFF72CFD87
:1007300010BD00002004004810B5FFF7CDFFEE20EB
:10074000FFF78AFFFFF700FF4820FFF785FFFFF75D
:10075000FBFEFFF7DBFF10BD70B5FFF7BDFFEE201E
:10076000FFF77AFFFFF7F0FE0020FFF775FFFFF7B6
:10077000EBFEFFF7CBFFFFF7AFFFEF20FFF76CFFBC
:10078000FFF7E2FEFFF708FF0446FFF74FFFFFF712
:1007900003FF0546FFF74AFFFFF7FEFE0646FFF799
:1007A00085FFFFF7B3FF200429024018801970BDB0
:1007B0007047000000218278002A27D0184A0323BE
:1007C0001B02D21803789B109B00D1580278920725
:1007D000D30EFF229A400B46934319464278920764
:1007E000120E03789B07DB0E9A4011430C4A032339
:1007F0001B02D21803789B109B00D1500278D306BD
:10080000DB0E01229A40064B1A6007E00278D306FD
:10081000DB0E01229A40024B80331A6070470000C1
:1008200000E100E0704700000C4949680122920392
:1008300091430A4A51601146496882B21143074AFE
:1008400051601146096B92159143044A1163114698
:10085000096B020C1143014A1163704700100240FA
:10086000002905D0054A52690243044B5A6104E04D
:10087000024A52698243014B5A617047001002409C
:10088000002905D0054A92690243044B9A6104E0AD
:10089000024A92698243014B9A61704700100240FC
:1008A00010B500F025F80521C904002000F0BEF8BD
:1008B000012000F0A7F800BF192000F055F800282B
:1008C000FAD0022000F0C4F800BF00F071F8082848
:1008D000FBD1002000F074F8002000F081F80348FC
:1008E000FFF7A2FF00F030F910BD0000004000014A
:1008F0001948006801210843174908600846406804
:1009000016490840144948600846006814490840E0
:1009100011490860084600680121890488430E498E
:100920000860084640683F21090488430A49486036
:100930000846C06A00090001C8620846006B094900
:100940000840054908630846406B4008400048637A
:100950000020886070470000001002400CB8FF08BB
:10096000FFFFF6FEACFEF0FF10B5024600210023AB
:1009700000205111002902D10C4C23680BE0012901
:1009800002D10A4C236A06E0022902D1074C636AAD
:1009900001E0064C636BD106C90E01248C401C405B
:1009A000002C01D0012000E0002010BD001002400A
:1009B000024840680C2108407047000000100240C7
:1009C00001460020054A5068F02302469A4310462B
:1009D00002460A431046014A506070470010024028
:1009E00001460020064A506807231B0202469A432C
:1009F000104602460A431046014A50607047000004
:100A000000100240002807D0074909680122120699
:100A10001143054A116006E00349096801221206E4
:100A20009143014A1160704700100240074A526822
:100A30007B23DB039A43054B5A601A4652680346F0
:100A40000B431A43014B5A607047000000100240EC
:100A500001460020044A50688008800002460A438C
:100A60001046014A50607047001002407047000075
:100A70000CB5002001900090274800680121084330
:100A8000254908600846006802210840002802D075
:100A90000820009001E0012000900098082839D13A
:100AA00011201E4908601C4840681B4948600846E0
:100AB00040684860084640687F21C903884316495A
:100AC00048600846406815214904084312494860B7
:100AD000084600680121090608430F49086000BF65
:100AE0000D4800680121490608400028F8D00A484E
:100AF0004068800880000849486008464068022134
:100B000008430549486000BF034840680C2108407D
:100B10000828F9D10CBD000000100240002002405E
:100B2000042806D10649096904221143044A1161C7
:100B300005E00349096904229143014A11617047A4
:100B400000E000E070470000F8B500250024002612
:100B50000027244840680C2108400546002D04D099
:100B6000042D06D0082D2AD107E01F481F49086030
:100B700029E01D481D49086025E01A4840680F21FA
:100B8000890408400446174840680321C903084007
:100B90000646A00C841C002E04D11548604313495E
:100BA00008600BE00F48C06A0007000F471C394679
:100BB0000D48FFF7BBFA60430C49086003E00A48A0
:100BC0000A49086000BF00BF06484068F02108409D
:100BD000000908490D5C05480068E84003490860C1
:100BE000F8BD00000010024000127A000000002052
:100BF00000093D000400002010B51B4800680121D9
:100C000008431949086008464068184908401649D1
:100C100048600846006816490840134908600846BD
:100C200000680121890488430F490860084640682C
:100C30003F21090488430C4948600846C06A0009FE
:100C40000001C8620846006BFF2154318843064901
:100C500008630846406B40084000486300208860F5
:100C6000FFF706FF10BD0000001002400CB8FF089F
:100C7000FFFFF6FE10B50121054800F01FF800281F
:100C800005D000F09BF90121014800F006F810BDE5
:100C900000440140CA4302827047CA43028270473F
:100CA000002904D0028801231A43028003E002884D
:100CB000014B1A4002807047FEFF000030B502462B
:100CC000002000230024158A0D402B4695890D40F5
:100CD0002C46002B03D0002C01D0012000E0002086
:100CE00030BD002A03D083890B43838102E08389CE
:100CF0008B4383817047000000220288154B984285
:100D000006D001239B07984202D0134B984203D18F
:100D1000124B1A404B881A43114B984203D0114B87
:100D20001A400B891A4302804B68C3620B88038503
:100D3000084B984208D00C4B984205D00B4B984278
:100D400002D00B4B984201D18B7A03860123838218
:100D500070470000002C0140000400408FFF00009D
:100D600000100040FFFC0000004001400044014032
:100D70000048014002E008C8121F08C1002AFAD149
:100D800070477047002001E001C1121F002AFBD10B
:100D90007047000010B50420C043FFF7C1FE0849AA
:100DA00008480068FFF7C2F940B207490870002000
:100DB00008567D21C900484300B20449088010BD8F
:100DC00000127A000000002014000020160000200D
:100DD0000146124A0023D35E0A465A43104B5A6119
:100DE00000229A611A46126901231A430C4B1A61B8
:100DF00000BF0B4A1069C207D20F002A04D001229B
:100E000012040240002AF4D0054A12695208520026
:100E1000034B1A6100229A617047000016000020FF
:100E200000E000E00146124A0023D3560A465A4326
:100E3000104B5A6100229A611A46126901231A4323
:100E40000C4B1A6100BF0B4A1069C207D20F002A6F
:100E500004D0012212040240002AF4D0054A12698B
:100E600052085200034B1A6100229A617047000039
:100E70001400002000E000E0F8B5FFF7C3FA3120CD
:100E8000FFF780FAFFF7F6F9FFF71CFA0446FFF7C1
:100E900063FAFFF717FA0546FFF75EFAFFF712FA53
:100EA0000646FFF759FAFFF70DFA0746FFF794FADF
:100EB000FFF7C2FA20062904401831024018C01971
:100EC000F8BD10B5012103204004FFF7C9FCFFF76E
:100ED000F1FA10BD10B5FFF7F4FF0222012103481B
:100EE00000F04AF8002000F071F810BD81100008F1
:100EF0001FB501214804FFF7C3FC152168460170A6
:100F00000021417001218170FFF754FC7D21C9004F
:100F10000E480068FFF70AF9401E0290002168465B
:100F200081808181C180817301A90948FFF7E4FEB6
:100F300001210748FFF7AEFE012211460448FFF7E2
:100F4000D0FE01210248FFF7ABFE1FBD00000020CC
:100F50000044014010B5FFF7A3FCFFF71BFF00F0B2
:100F600029F800220121034800F006F800F040F8BB
:100F7000002010BDD50E000870B5034600BF104616
:100F80000C2444430A4D641961710C2444436419D0
:100F900022710C2444432B5100250C244443044E5D
:100FA000A419E5800C244443A419A56070BD000079
:100FB0003400002010B5FFF79BFF10BD0248006809
:100FC000401C0149086070472800002010B50E2819
:100FD00000DD10BD00BF014600230C224A43034C34
:100FE0001219537100BF00BFF3E700003400002066
:100FF0003EE000201F49086036E01E4800680C21D2
:1010000048431D4940184079012828D119480068F3
:101010000C214843184940188168164800680C2282
:101020005043154A8018C088081814490968884236
:1010300015D800210F4800680C2250430E4A801832
:1010400081600C4800680C2250430B4A8018C18014
:10105000084909680C225143074A505880470548FF
:101060000068401C03490860024800680F28C4D388
:10107000BFE70000300000203400002028000020DE
:10108000FFF730FA0520FFF779F8FFF701FA05209E
:10109000FFF774F811E0FFF725FA0520FFF76EF867
:1010A000FFF7EAFE05490860FFF746FB0820FFF757
:1010B00065F8FFF751FB02490860ECE718000020D3
:1010C0001C000020E4100008000000203400000094
:1010D000740D00081811000834000020B40400004A
:1010E000840D0008006CDC0200000000000000001D
:1010F00001020304060708090000000000000000C8
:1011000000000000030100010000000000000000DA
:081110000000000000000000D7
:04000005080000C12E
:00000001FF
