:020000040800F2
:1000000038050020D50000083D0A00085503000807
:1000100000000000000000000000000000000000E0
:10002000000000000000000000000000810F000838
:100030000000000000000000B10A0008591000088C
:100040000501000800000000050100080501000886
:10005000050100083102000805010008050100083B
:100060000000000005010008050100080501000866
:100070000501000805010008050100080000000056
:100080000501000805010008050100080501000838
:100090000501000889110008050100080501000894
:1000A0000501000805010008050100088912000883
:1000B0000501000805010008000000000501000816
:1000C0000348854600F096F800480047A51600084A
:1000D000380500200C4880F308880C480168090E98
:1000E0000B4A914205D10B480B4901600B480C4962
:1000F00001600C4880470C480047FEE7FEE7FEE73A
:10010000FEE7FEE7FEE700003805002004000000DF
:100110001F00000018100240010000000000014014
:10012000000000000D110008C100000830B50B46AA
:10013000014600202022012409E00D46D5409D42C1
:1001400005D31D469540491B254695404019154647
:10015000521E002DF1DC30BDF0B51FB486B000207A
:100160000090019002900698069980B2049007983A
:10017000090C02040014114307900027089D0998F8
:1001800006913E463C4603900398A9B20204000C37
:10019000039004982D0C154348430021224600F09B
:1001A00018F8C719714110340E46402CECDB384664
:1001B000029A00F00EF8009A019B801800905941B5
:1001C00002980191103002904028CCDB00980BB0CF
:1001D000F0BD10B5202A04DB0146203A91400020F2
:1001E00010BD914020239C1A0346E34019439040E0
:1001F00010BD0000064C0125064E05E0E36807CC63
:100200002B430C3C98471034B442F7D3FFF75CFF04
:10021000A4190008C419000810B5044620B201F062
:1002200075F910BD10B50446204601F099F910BDCE
:1002300010B5012000F012F8002802D00220034976
:100240000870012000F004F810BD00006F000020CD
:100250000149486170470000000401400146002048
:10026000044A52690A40002A01D0012000E000201F
:100270007047000000040140F0B50A460021002349
:10028000002400BF3DE001258D402B4615681D4030
:100290002C469C4234D11579012D02D01579022DBE
:1002A00016D185684F000326BE40B5438560557959
:1002B0004E00B540866835438560858801268E40AE
:1002C000B5438580858896798E40B6B23543858062
:1002D00005684F000326BE40B543056015794E0002
:1002E000B540066835430560C5684F000326BE402B
:1002F000B543C560D5794E00B540C6683543C56085
:10030000491C1029BFD3F0BDF0B5002300244D07D0
:10031000EE0E1546B5402B46CD10AE0005462035F5
:10032000AD594E07F70E0F26BE40B543CE10B600AE
:1003300007462037BD51CD10AE003D46AD591D4397
:100340002C46CD10AD003E467451F0BD018570477E
:100350008161704700BFFEE710B5002408201149F5
:1003600088610520FFF75EFF10200E498861052097
:10037000FFF758FF00F03CF81420FFF753FF09483F
:10038000008A08210840C41000F046F80520FFF755
:1003900049FF10200349203108811920FFF742FF4F
:1003A000204610BD0004004870B5002400F020F87D
:1003B000002516E010200D4988610520FFF732FF67
:1003C0006006040E0948008A08210840C010044352
:1003D00010200649203108810520FFF723FF681C03
:1003E000C5B2082DE6DB204670BD000000040048C1
:1003F0001CB508200090002168460171012181711F
:100400000021C1710321417169460248FFF734FFA1
:100410001CBD0000000400481CB50820009001210C
:100420006846017181710021C171032141716946E2
:100430000148FFF721FF1CBD0004004810B5FFF77D
:10044000EBFF082007490881102006492039886100
:100450000520FFF7E7FE1020024908810520FFF77D
:10046000E1FE10BD2004004870B5044600251FE0E1
:1004700080202040002803D008200F49886103E035
:1004800008200D49203108816006040E0520FFF781
:10049000C9FE1020084988610520FFF7C3FE10201F
:1004A0000549203108810520FFF7BCFE681CC5B254
:1004B000082DDDDB70BD00000004004810B5FFF71B
:1004C000ABFF082007498861102088610520FFF7ED
:1004D000A9FE10200349203108810520FFF7A2FE64
:1004E00010BD00000004004810B5FFF795FF08207C
:1004F00009498861102088610520FFF793FE0820D4
:100500000549203108810520FFF78CFE10200249A3
:100510002031088110BD00000004004810B50820FB
:100520000849088110200749203988610520FFF714
:1005300079FE08200349203988610520FFF772FE03
:1005400010BD0000200400481CB50121880400F003
:10055000CDFA1020009001216846017181710021BF
:10056000C1710321417169460148FFF785FE1CBD39
:10057000000400481CB5012040030090012168469A
:10058000017100218171C1710321417169460448E3
:10059000FFF772FE012149030148FFF7D7FE1CBD9A
:1005A000000800481CB5092040020090012168465F
:1005B000017100218171C1710321417169460748B0
:1005C000FFF75AFE012149020448FFF7C1FE01214D
:1005D00009030248FFF7BCFE1CBD000000040048F0
:1005E00010B500F08FF800F06BF9EE2000F028F95C
:1005F00000F09EF81E2000F023F900F099F800F0BA
:1006000079F910BD1CB501200090002069460871E1
:100610000148FFF731FE1CBD000400481CB58020D6
:100620000090012168460171002181710121C17191
:100630000321417169460448FFF71EFE80210248EC
:10064000FFF784FE1CBD00000004004810B588B010
:1006500004461D4800F02AFE0121880300F066FAD6
:100660000121480400F042FA01220921C806FFF7DF
:100670004BFE01220921C806FFF746FE0320400277
:1006800000900221684601710021817103214171AE
:100690000121C17169460920C006FFF7EDFD7D20EB
:1006A000C0020290002007900C20069000200590C8
:1006B0000490039002A9044800F070FE0121024852
:1006C00000F0E8FD08B010BD0038014010B5FFF79C
:1006D0003BFFFFF709FF3020FFF7C6FEFFF73CFEA8
:1006E000AA20FFF7C1FEFFF737FE0020FFF7BCFE90
:1006F000FFF732FE0020FFF7B7FEFFF72DFEFFF7F2
:100700000DFF10BD1CB50121880400F0EFF9602039
:10071000009001216846017181710021C17103219E
:10072000417169460148FFF7A7FD1CBD0004004860
:1007300010B500242020114988610520FFF772FDC3
:1007400040200E4988610520FFF76CFD00F03CF861
:100750001420FFF767FD0948008A20210840441152
:1007600000F046F80520FFF75DFD402003492031E9
:1007700008811920FFF756FD204610BD00040048EF
:1007800070B5002400F020F8002516E040200D4947
:1007900088610520FFF746FD6006040E0948008ABF
:1007A000202108404011044340200649203108819F
:1007B0000520FFF737FD681CC5B2082DE6DB204693
:1007C00070BD0000000400481CB5202000900021EE
:1007D00068460171012181710021C17103214171BC
:1007E00069460248FFF748FD1CBD000000040048B0
:1007F0001CB5202000900121684601718171002103
:10080000C1710321417169460148FFF735FD1CBDE7
:100810000004004810B5FFF7EBFF202007490881CE
:1008200040200649203988610520FFF7FBFC402065
:10083000024908810520FFF7F5FC10BD200400489F
:1008400070B5044600251FE080202040002803D01A
:1008500020200F49886103E020200D4920310881C4
:100860006006040E0520FFF7DDFC40200849886182
:100870000520FFF7D7FC40200549203108810520DD
:10088000FFF7D0FC681CC5B2082DDDDB70BD000091
:100890000004004810B5FFF7ABFF2020074988612E
:1008A000402088610520FFF7BDFC4020034920312E
:1008B00008810520FFF7B6FC10BD000000040048C9
:1008C00010B5FFF795FF2020094988614020886115
:1008D0000520FFF7A7FC20200549203108810520CD
:1008E000FFF7A0FC402002492031088110BD000024
:1008F0000004004810B5202008490881402007491D
:10090000203988610520FFF78DFC2020034920391C
:1009100088610520FFF786FC10BD00002004004818
:1009200070B50446FFF7CCFFEE20FFF789FFFFF715
:10093000FFFE230000F0AEFD0604080C1014181C86
:10094000A220FFF77DFF14E0A420FFF779FF10E05D
:10095000A620FFF775FF0CE0A820FFF771FF08E065
:10096000AA20FFF76DFF04E0AE20FFF769FF00E06B
:1009700000BF00BFFFF7DCFEFFF7BCFFFFF7A0FFE3
:10098000EF20FFF75DFFFFF7D3FEFFF7F9FE054607
:10099000FFF740FFFFF7F4FE0646FFF77BFFFFF788
:1009A000A9FF2802801980B270BD10B50446FFF778
:1009B00087FFEE20FFF744FFFFF7BAFE002C02D0BE
:1009C000012C08D103E04020FFF73AFF04E050205B
:1009D000FFF736FF00E000BF00BFFFF7A9FEFFF7FB
:1009E00089FF10BD70B5FFF76BFFEE20FFF728FF02
:1009F000FFF79EFE0020FFF723FFFFF799FEFFF7AA
:100A000079FFFFF75DFFEF20FFF71AFFFFF790FE7A
:100A1000FFF7B6FE44B2FFF7FDFEFFF7B1FE45B2A9
:100A2000FFF7F8FEFFF7ACFE46B2FFF733FFFFF724
:100A300061FF200429024018801970BD7047000032
:100A400000218278002A27D0184A03231B02D218DB
:100A500003789B109B00D15802789207D30EFF2297
:100A60009A400B469343194642789207120E037838
:100A70009B07DB0E9A4011430C4A03231B02D2183A
:100A800003789B109B00D1500278D306DB0E012225
:100A90009A40064B1A6007E00278D306DB0E01226B
:100AA0009A40024B80331A607047000000E100E07A
:100AB000704700000C4949680122920391430A4A99
:100AC00051601146496882B21143074A516011468C
:100AD000096B92159143044A11631146096B020C8C
:100AE0001143014A1163704700100240002905D0EC
:100AF000054A52690243044B5A6104E0024A5269B2
:100B00008243014B5A61704700100240002905D012
:100B1000054A12690243044B1A6104E0024A126951
:100B20008243014B1A61704700100240002905D032
:100B3000054A92690243044B9A6104E0024A9269B1
:100B40008243014B9A61704700100240002905D092
:100B5000054AD2680243044BDA6004E0024AD268D4
:100B60008243014BDA6070470010024010B500F07C
:100B700025F80521C904002000F0E2F9012000F069
:100B8000CBF900BF192000F079F90028FAD0022033
:100B900000F0E8F900BF00F095F90828FBD100202B
:100BA00000F098F9002000F0A5F90348FFF782FF54
:100BB00000F054FA10BD0000004000011948006820
:100BC0000121084317490860084640681649084053
:100BD00014494860084600681449084011490860F3
:100BE000084600680121890488430E4908600846C8
:100BF00040683F21090488430A4948600846C06AA2
:100C000000090001C8620846006B0949084005490F
:100C100008630846406B4008400048630020886035
:100C200070470000001002400CB8FF08FFFFF6FEFE
:100C3000ACFEF0FFFEB50446002500260020029021
:100C4000019000900027864840680C210840054626
:100C5000002D06D0042D07D0082D08D00C2D2CD146
:100C600028E0804820602BE07E48206028E07C4817
:100C700040680F21890408400646794840680321EE
:100C8000C90308400290B00C861C0298002803D1CA
:100C90007548374647430BE07148C06A0007000FAC
:100CA000401C01906F480199FFF740FA70430746D6
:100CB000276005E06D48206002E06A48206000BFC0
:100CC00000BF67484068F021084005462D09684884
:100CD000405D009020680099C840606060484068AE
:100CE00007210902084005462D0A6148405D009031
:100CF00061680098C140A1605948006BFF21013133
:100D00000840884202D05B48E0600DE054484068EB
:100D1000012189030840884203D0A0684008E060B0
:100D200002E0A0688008E0604D48006B4021084068
:100D3000402802D05048206102E00120C003206119
:100D40004748006B10210840102802D045486061D8
:100D500001E0206860614248006B8007800F002836
:100D600002D1A068A06119E03D48006B8007800FA8
:100D7000012802D12068A06110E03948006B80078B
:100D8000800F022802D18003A06107E03448006B85
:100D90008007800F032801D13248A0613048006BE2
:100DA000032109040840002802D1A068E06120E086
:100DB0002B48006B032109040840012109048842E3
:100DC00002D12068E06114E02548006B032109048A
:100DD000084001214904884202D18010E06108E006
:100DE0001F48006B032109040840884201D11D48B7
:100DF000E0611B48006B032189040840002802D1F0
:100E0000A068206220E01648006B03218904084096
:100E100001218904884202D12068206214E0104830
:100E2000006B0321890408400121C904884202D1D2
:100E30000011206208E00A48006B03218904084081
:100E4000884201D1074820620548006B8021084094
:100E5000802802D00548606200E06762FEBD0000A5
:100E60000010024000127A0000093D00006CDC0214
:100E700014000020809FD5001280000010B50246AB
:100E80000021002300205111002902D10C4C2368BD
:100E90000BE0012902D10A4C236A06E0022902D1A3
:100EA000074C636A01E0064C636BD106C90E01244E
:100EB0008C401C40002C01D0012000E0002010BD1F
:100EC00000100240024840680C21084070470000B2
:100ED0000010024001460020054A5068F0230246F7
:100EE0009A43104602460A431046014A5060704732
:100EF0000010024001460020064A506807231B02EA
:100F000002469A43104602460A431046014A506080
:100F10007047000000100240002807D00749096808
:100F2000012212061143054A116006E003490968CF
:100F3000012212069143014A1160704700100240DD
:100F4000074A52687B23DB039A43054B5A601A46D3
:100F5000526803460B431A43014B5A607047000026
:100F60000010024001460020044A506880088000BA
:100F700002460A431046014A506070470010024082
:100F8000704700000CB500200190009027480068D1
:100F900001210843254908600846006802210840ED
:100FA000002802D00820009001E001200090009865
:100FB000082839D111201E4908601C4840681B4987
:100FC0004860084640684860084640687F21C90379
:100FD000884316494860084640681521490408437B
:100FE00012494860084600680121090608430F4974
:100FF000086000BF0D48006801214906084000282C
:10100000F8D00A48406880088000084948600846CF
:101010004068022108430549486000BF0348406812
:101020000C2108400828F9D10CBD00000010024036
:1010300000200240042806D1064909690422114310
:10104000044A116105E00349096904229143014AF8
:101050001161704700E000E070470000F8B500251E
:10106000002400260027244840680C21084005463B
:10107000002D04D0042D06D0082D2AD107E01F48EA
:101080001F49086029E01D481D49086025E01A48ED
:1010900040680F218904084004461748406803212E
:1010A000C90308400646A00C841C002E04D1154834
:1010B0006043134908600BE00F48C06A0007000F47
:1010C000471C39460D48FFF731F860430C4908606A
:1010D00003E00A480A49086000BF00BF06484068AC
:1010E000F0210840000908490D5C05480068E84007
:1010F00003490860F8BD00000010024000127A00A9
:101100000000002000093D000400002010B51B482D
:1011100000680121084319490860084640681849D9
:1011200008401649486008460068164908401349B7
:101130000860084600680121890488430F49086057
:10114000084640683F21090488430C494860084626
:10115000C06A00090001C8620846006BFF215431D3
:101160008843064908630846406B400840004863CE
:1011700000208860FFF706FF10BD0000001002404D
:101180000CB8FF08FFFFF6FE10B50121054800F07E
:101190001FF8002805D000F0B9FA0121014800F03D
:1011A00006F810BD00440140CA4302827047CA439A
:1011B00002827047002904D0028801231A4302806A
:1011C00003E00288014B1A4002807047FEFF0000D6
:1011D00030B50246002000230024158A0D402B461E
:1011E00095890D402C46002B03D0002C01D0012006
:1011F00000E0002030BD002A03D083890B438381A7
:1012000002E083898B4383817047000000220288BB
:10121000154B984206D001239B07984202D0134BEE
:10122000984203D1124B1A404B881A43114B9842F3
:1012300003D0114B1A400B891A4302804B68C362DA
:101240000B880385084B984208D00C4B984205D078
:101250000B4B984202D00B4B984201D18B7A0386FC
:101260000123838270470000002C014000040040ED
:101270008FFF000000100040FFFC00000040014014
:1012800000440140004801400148C0697047000027
:1012900000380140002904D0026801231A4302608B
:1012A00003E00268520852000260704710B504461D
:1012B0003248844209D101218803FFF747FC00210D
:1012C00001208003FFF742FC56E02D48844209D1FB
:1012D00001214804FFF71AFC002101204004FFF718
:1012E00015FC49E02748844209D101218804FFF711
:1012F0000DFC002101208004FFF708FC3CE022489F
:10130000844209D10121C804FFF700FC002101201B
:10131000C004FFF7FBFB2FE01C48844209D10121E8
:101320000805FFF7F3FB002101200005FFF7EEFBA6
:1013300022E01748844208D101212020FFF706FC53
:1013400000212020FFF702FC16E01248844208D159
:1013500001214020FFF7FAFB00214020FFF7F6FBB8
:101360000AE00D48844207D101218020FFF7EEFBFF
:1013700000218020FFF7EAFB10BD0000003801408B
:101380000044004000480040004C00400050004035
:101390000014014000180140001C0140F0B58BB062
:1013A00004460D46002700200A90002620684008C9
:1013B00040002060666803210903304688430646E2
:1013C000A8680643666026682D480640E968686894
:1013D00008432969084306432660A66803210902D9
:1013E00030468843064668690643A6606846FFF7AC
:1013F00021FC2448844202D106980A900DE022483C
:10140000844202D107980A9007E02048844202D122
:1014100008980A9001E002980A9020680121C90307
:10142000084000280CD029680A9A5000FEF77EFE7A
:10143000074629680A9A5000FEF778FE0E4609E032
:1014400029680A98FEF772FE074629680A98FEF78F
:101450006DFE0E4628684008B04200D87F1C206808
:101460000121C9030840002806D03807460F384636
:101470000749084030430746A7810BB0F0BD000084
:10148000F3E9FFFF003801400044004000480040FD
:10149000F0FF000030B47446641E2578641CAB4233
:1014A00004D3635D5B00E31830BC18471D46F8E7C2
:1014B00002E008C8121F08C1002AFAD1704770471D
:1014C000002001E001C1121F002AFBD1704700007B
:1014D00010B50420C043FFF7ADFD08490848006877
:1014E000FEF724FE40B207490870002008567D210F
:1014F000C900484300B20449088010BD00127A00B8
:101500000000002024000020260000200146124A8E
:101510000023D35E0A465A43104B5A6100229A6157
:101520001A46126901231A430C4B1A6100BF0B4A79
:101530001069C207D20F002A04D00122120402400F
:10154000002AF4D0054A126952085200034B1A616E
:1015500000229A61704700002600002000E000E0B1
:101560000146124A0023D3560A465A43104B5A6189
:1015700000229A611A46126901231A430C4B1A6120
:1015800000BF0B4A1069C207D20F002A04D0012203
:1015900012040240002AF4D0054A1269520852008F
:1015A000034B1A6100229A6170470000240000205A
:1015B00000E000E0F8B5FEF797FF3120FEF754FF9A
:1015C000FEF7CAFEFEF7F0FE0446FEF737FFFEF711
:1015D000EBFE0546FEF732FFFEF7E6FE0646FEF797
:1015E0002DFFFEF7E1FE0746FEF768FFFEF796FFC8
:1015F00020062904401831024018C019F8BD10B562
:10160000012107204004FFF771FAFEF7CBFFFEF738
:10161000F9FFFEF7AFFF7D20C002FFF717F8FEF7D6
:10162000FDFF10BD10B5FFF7EAFF022201210348BC
:1016300000F04AF8002000F071F810BDD117000842
:101640001FB501214804FFF771FA152168460170A2
:101650000021417001218170FFF7F2F97D21C9005D
:101660000E480068FEF762FD401E029000216846A9
:1016700081808181C180817301A90948FFF7C6FD7E
:1016800001210748FFF790FD012211460448FFF7AA
:10169000B2FD01210248FFF78DFD1FBD00000020B3
:1016A0000044014010B5FFF761FAFFF711FF00F0A9
:1016B00029F800220121034800F006F800F040F864
:1016C000002010BD2516000870B5034600BF104667
:1016D0000C2444430A4D641961710C244443641979
:1016E00022710C2444432B5100250C244443044E06
:1016F000A419E5800C244443A419A56070BD000022
:101700008000002010B5FFF79BFF10BD0248006865
:10171000401C0149086070477400002010B50E2875
:1017200000DD10BD00BF014600230C224A43034CDC
:101730001219537100BF00BFF3E7000080000020C2
:101740003EE000201F49086036E01E4800680C217A
:1017500048431D4940184079012828D1194800689C
:101760000C214843184940188168164800680C222B
:101770005043154A8018C0880818144909688842DF
:1017800015D800210F4800680C2250430E4A8018DB
:1017900081600C4800680C2250430B4A8018C180BD
:1017A000084909680C225143074A505880470548A8
:1017B0000068401C03490860024800680F28C4D331
:1017C000BFE700007C0000208000002074000020A3
:1017D00090B0FEF77BFF0520FEF71EFDFEF700FF31
:1017E0000520FEF719FD0020FFF79AF85C490880F4
:1017F0000120FFF795F85B4908800220FFF790F879
:10180000594908800320FFF78BF8584908800420C5
:10181000FFF786F8564908800520FFF781F85549FB
:1018200008809BE0FEF752FF0020FFF7BEF8012082
:10183000FEF7F2FCFFF7D6F84F4908600120FFF7EA
:10184000B4F80120FEF7E8FCFFF7CCF84B4908603C
:101850000320FEF7E1FC4A4800684A490860FFF7A8
:10186000A9FE4949086042480088C0014349096807
:10187000081A0021454A03C24448036842683D48AB
:1018800000880F930E920C910D90184611460C9BF8
:101890000D9AFEF761FCCA02400D10434E157D21E2
:1018A000090100220346304659185041384A116058
:1018B00050602C4800884604F7172C480488002004
:1018C000324A06CA09920A910B902046099B0A9A4D
:1018D0000B99FEF741FCCA06400910434911301824
:1018E0004F412C4981C11E480088C603F7171E4886
:1018F00005880020254A06CA0692079108902846C6
:10190000069B079A0899FEF727FC4A06C009104370
:10191000C91130184F41204981C1083903C9CA0291
:10192000400D10434A15144909680023029304929C
:10193000039105901146039AFEF70EFC154B0CCB54
:10194000801A99414904C00B0843144908600C48A7
:101950000068134908600120019000BF62E70000A1
:101960003C0000203E0000204000002042000020FB
:1019700044000020460000203400002038000020F1
:1019800074000020280000203000002048000020C3
:101990005000002058000020600000206800002057
:1019A0002C000020C4190008000000208000000066
:1019B000B0140008441A000880000020B804000099
:1019C000C0140008006CDC020000000000000000F1
:1019D00001020304060708090000000001020304D5
:1019E00001020304060708090000000000000000CF
:1019F00000000000000000000000000000000000E7
:101A000000000000000000000000000000000000D6
:101A100000000000000000000000000000000000C6
:101A200000000000000000000000000000000000B6
:101A300003010001000000000000000000000000A1
:041A400000000000A2
:04000005080000C12E
:00000001FF
