:020000040800F2
:1000000038060020D50000080D1000082D0A000851
:1000100000000000000000000000000000000000E0
:10002000000000000000000000000000DF170008D2
:10003000000000000000000081100008B518000852
:100040000501000800000000050100080501000886
:10005000050100080909000805010008050100085C
:100060000000000005010008050100080501000866
:100070000501000805010008050100080000000056
:100080000501000805010008050100080501000838
:1000900005010008E5190008050100080501000830
:1000A000050100080501000805010008E51A00081F
:1000B0000501000805010008000000000501000816
:1000C0000348854600F056FA00480047911F000893
:1000D000380600200C4880F308880C480168090E97
:1000E0000B4A914205D10B480B4901600B480C4962
:1000F00001600C4880470C480047FEE7FEE7FEE73A
:10010000FEE7FEE7FEE700003806002004000000DE
:100110001F00000018100240010000000000014014
:100120000000000069190008C100000830B50B4646
:10013000014600202022012409E00D46D5409D42C1
:1001400005D31D469540491B254695404019154647
:10015000521E002DF1DC30BD70B50024254600286C
:1001600001DA01244042002901DA01254942FFF762
:10017000DDFFAC4200D04042002C00D0494270BDAF
:10018000D2B201E00270401C491EFBD2704700222F
:10019000F6E710B513460A4604461946FFF7F0FF86
:1001A000204610BDF0B51FB488B00B990998002403
:1001B00048400999C00F490049080991C0070B99A7
:1001C0000090490049080B9109990898A6460843F0
:1001D0001CD00B990A98084318D0099801244000B4
:1001E000420D4800410D099824050003000B2043EF
:1001F00009900B980003000B20430B9050181C49EA
:100200004018002201901446104605E000200146E7
:100210000DB0F0BD032801DA034600E003239C463D
:10022000C11A0AAE0AE05F0008ADED5B4F00F75B54
:100230007D430027AA187C41491C5B1E6145F2DD05
:10024000410004AB5A522104120C0A43240C401CF6
:100250000828DFDB01980290009970460191009018
:10026000059B049A0799069800F0E0F8D0E7000093
:100270000DFCFFFFF0B50C465C4085B0E40FE407D1
:1002800003944C000026640859009446490802462D
:100290000296224321D062460A431ED06200570DC7
:1002A0004A000E032303550D012402462C49240560
:1002B000781B1B0B360B40182343264361460090E6
:1002C0001C46501AB44103D30098401C009002E031
:1002D000921800985B41002803DA0020014605B01F
:1002E000F0BD0020012109050746864611E064465D
:1002F0001D46141BB54106D36546521BB3417446D7
:1003000007430C43A646CD074008490828439218E6
:100310005B4105460D43EAD11046184313D06046B1
:10032000194650407140084306D06046101AB34148
:1003300006D20122002306E000220123DB0702E0AF
:100340000122D2435310009874460105381C6141C4
:10035000029C039D0019694100F05BF8BFE70000B3
:10036000FD0300000EB5C217C10F5040CA07401868
:100370000021054B0293019200910A460B4600F0C2
:1003800055F803B000BD0000330400000EB5054968
:100390000291002100910A460B46019100F046F8B7
:1003A00003B000BD3304000070B5CD0F4A0009034F
:1003B0000123090B1B0519430B4BED070024520DBC
:1003C0009A4201DA002070BD074B34339A4203DCB5
:1003D0009A1A00F00DF802E00449511888402C43A5
:1003E000F1D0404270BD0000FF030000CDFBFFFFD5
:1003F00010B5202A04DB0846203AD040002110BD69
:100400000B46D340D0402024A21A914008431946FD
:1004100010BD10B5002B08DA0024401C6141921871
:100420005B411A4301D14008400010BDF0B51FB434
:1004300082B005460C0003D0084601F067FC02E0DC
:1004400001F064FC2030024600902146284600F06E
:10045000A3F8049B059A04460F461843114308432A
:1004600014D0184610431BD0009840210A1A184691
:100470000599FFF7BDFF05460E46009A05990498B9
:1004800000F08AF8084305D0012004E020463946F0
:1004900007B0F0BD0020C11705430E432C4337437E
:1004A00000990E986305401A7905E40A00220C436E
:1004B000FD0A0A3002D500200146E9E701051019BE
:1004C00069410C9C0D9D00196941FFF7A2FFDFE710
:1004D000FEB500231A461B1A8A4103DB00200146A1
:1004E00003B0F0BD4A000D0301212D0B0905520D8B
:1004F0000D43D10702D100186D41521E5110FF313A
:10050000FF310131002704463E46384600970191ED
:100510000246012100200905FFF76AFFC319714156
:10052000F818324684468E464A4161462846611A8A
:10053000904104D36046241A954176461F462419FB
:1005400000986D41401C00903428E1DDF9193046D7
:100550007041091BA84103D20022D243134601E097
:100560000022134601980105381C7141FFF751FF25
:10057000B6E70000064C0125064E05E0E36807CC0F
:100580002B430C3C98471034B442F7D3FFF79CFD43
:10059000CC210008EC21000810B5202A04DB01461C
:1005A000203A9140002010BD914020239C1A034620
:1005B000E3401943904010BD70B58C180578401C7D
:1005C0006B075B0F01D10378401C2A1106D102781A
:1005D000401C03E006780E70401C491C5B1EF9D1DC
:1005E0002B0705D40023521E0DD40B70491CFAE7CB
:1005F0000378401CCB1A921C03E01D780D70491C37
:100600005B1C521EF9D5A142D8D3002070BD10B595
:100610000B460021846A1C43846200BF0C461443CD
:100620002146416110BD002904D0826801231A438C
:10063000826003E0826802231A43826070470029C7
:1006400004D0C26801231A43C26003E0C2685208A2
:100650005200C2607047C26802239A43C260C268F7
:100660000A43C2607047000010B504460548844242
:1006700007D10121401500F051FD0021601500F067
:100680004DFD10BD0024014030B501460020002280
:1006900000238C680125ED072C438C6000BF8C681B
:1006A000E30FDB07521C0F242403A24201D0002BCE
:1006B000F5D18C68E40FE407002C01D1086C00E050
:1006C000002030BD30B5024600200023012424065E
:1006D0000C40002C05D0946801252D06AC43234620
:1006E00000E013681C460C40002C01D0012000E003
:1006F000002030BD10B50022C268084B1A400C79AA
:1007000064030B6823438C682343CC6823430C6940
:1007100023434C6923431A43C26010BD03D2FFFF39
:1007200081680422114381607047002101600171DA
:100730008160C1600161416170470000002904D0FF
:10074000026801231A43026003E00268014B1A4069
:1007500002607047FEFF00000168554A11400160C9
:100760000021016041608160C1605249884208D126
:100770005049083949680F2211434E4A083A5160DE
:1007800094E04C491431884208D14A4908394968F3
:10079000F0221143474A083A516087E04549283121
:1007A000884209D14349083949680F22120211438E
:1007B000404A083A516079E03E493C31884209D1CB
:1007C0003C49083949680F2212031143394A083A53
:1007D00051606BE037495031884209D135490839B9
:1007E00049680F2212041143324A083A51605DE011
:1007F00030496431884209D12E49083949680F22AD
:10080000120511432B4A083A51604FE029497831CB
:10081000884209D12749083949680F221206114335
:10082000244A083A516041E02349884208D12249CC
:10083000083949680F2211431F4A083A516035E0D0
:100840001D491431884208D11B4908394968F022F2
:100850001143194A083A516028E017492831884263
:1008600009D11549083949680F2212021143124A69
:10087000083A51601AE010493C31884209D10E49CA
:10088000083949680F22120311430B4A083A516094
:100890000CE009495031884208D1074908394968B4
:1008A0000F2212041143044A083A516070470000B5
:1008B000FEFF0000080002400804024010B50022BC
:1008C00002680D4B1A400C6A8B6823430C69234362
:1008D0004C6923438C692343CC6923434C6A2343EB
:1008E0008C6A23431A430260CB6843600B688360C1
:1008F0004B68C36010BD00000F80FFFF10B50446B9
:10090000204601F05BFA10BD10B5012000F012F88E
:10091000002802D0022003490870012000F004F8EA
:1009200010BD0000D300002001494861704700005D
:100930000004014001460020044A52690A40002A8E
:1009400001D0012000E000207047000000040140B9
:10095000F0B50A4600210023002400BF3DE0012538
:100960008D402B4615681D402C469C4234D115798C
:10097000012D02D01579022D16D185684F0003266E
:10098000BE40B543856055794E00B5408668354315
:100990008560858801268E40B54385808588967957
:1009A0008E40B6B23543858005684F000326BE40B1
:1009B000B543056015794E00B540066835430560BE
:1009C000C5684F000326BE40B543C560D5794E00CB
:1009D000B540C6683543C560491C1029BFD3F0BD7A
:1009E000F0B5002300244D07EE0E1546B5402B460A
:1009F000CD10AE0005462035AD594E07F70E0F2637
:100A0000BE40B543CE10B60007462037BD51CD10CD
:100A1000AE003D46AD591D432C46CD10AD003E46BF
:100A20007451F0BD018570478161704700BFFEE7DA
:100A300010B500240820114988610520FFF75EFFEA
:100A400010200E4988610520FFF758FF00F03CF8A0
:100A50001420FFF753FF0948008A08210840C410FA
:100A600000F046F80520FFF749FF10200349203128
:100A700008811920FFF742FF204610BD00040048FE
:100A800070B5002400F020F8002516E010200D4974
:100A900088610520FFF732FF6006040E0948008ACE
:100AA00008210840C0100443102006492031088165
:100AB0000520FFF723FF681CC5B2082DE6DB2046A2
:100AC00070BD0000000400481CB508200090002103
:100AD00068460171012181710021C17103214171B9
:100AE00069460248FFF734FF1CBD000000040048BF
:100AF0001CB5082000900121684601718171002118
:100B0000C1710321417169460148FFF721FF1CBDF6
:100B10000004004810B5FFF7EBFF082007490881E3
:100B200010200649203988610520FFF7E7FE1020D4
:100B3000024908810520FFF7E1FE10BD20040048AE
:100B400070B5044600251FE080202040002803D017
:100B500008200F49886103E008200D4920310881F1
:100B60006006040E0520FFF7C9FE102008498861C1
:100B70000520FFF7C3FE102005492031088105201C
:100B8000FFF7BCFE681CC5B2082DDDDB70BD0000A0
:100B90000004004810B5FFF7ABFF08200749886143
:100BA000102088610520FFF7A9FE1020034920319D
:100BB00008810520FFF7A2FE10BD000000040048D8
:100BC00010B5FFF795FF082009498861102088615A
:100BD0000520FFF793FE08200549203108810520F4
:100BE000FFF78CFE102002492031088110BD000063
:100BF0000004004810B50820084908811020074962
:100C0000203988610520FFF779FE08200349203943
:100C100088610520FFF772FE10BD00002004004827
:100C200000B593B00121480400F048FA0220119069
:100C3000032110A801720021C17211A90920C00668
:100C4000FFF786FE0121480200F058FA012108460C
:100C500000F034FA2A48FFF707FD2A48FFF77CFD29
:100C6000274840300690284807900020089001202F
:100C7000099000200A9080200B9040000C9080008A
:100C80000D9020200E9000020F900020109006A9D9
:100C90001C48FFF713FE01211A48FFF74FFD022100
:100CA0001748FFF7D8FC01211548FFF7C8FC684634
:100CB000FFF73BFD002000900121684601710020F4
:100CC000029004900420059069460D48FFF712FD3C
:100CD000072202210A48FFF79AFC0948FFF7D4FCD3
:100CE00001210748FFF79FFC00BF08490448FFF7B0
:100CF000E9FC0028F9D00248FFF712FD13B000BD4F
:100D000000240140080002402800002001000001EA
:100D10001CB5FF20013000900121684601710021BF
:100D20008171C1710321417169460548FFF710FEC9
:100D3000FF2101310920C006FFF774FE1CBD000031
:100D4000000800481CB503200002009001216846FD
:100D5000017100218171C171032141716946074808
:100D6000FFF7F6FD012149020448FFF75DFEFF2170
:100D700001310248FFF758FE1CBD00000004004886
:100D80001CB5012000900020694608710148FFF75A
:100D9000DFFD1CBD000400481CB52020009001218F
:100DA00068460171002181710121C17103214171E6
:100DB00069460448FFF7CCFD20210248FFF734FEC6
:100DC0001CBD0000000400481CB54020009001211B
:100DD00068460171002181710121C17103214171B6
:100DE00069460448FFF7B4FD40210248FFF71AFEA8
:100DF0001CBD00000004004810B588B004461D4822
:100E000000F082FE0121880300F078F901214804F6
:100E100000F054F901220921C806FFF7E1FD012283
:100E20000921C806FFF7DCFD0320400200900221E3
:100E30006846017100218171032141710121C17155
:100E400069460920C006FFF783FD7D20C00202909D
:100E5000002007900C20069000200590049003903D
:100E600002A9044800F0D2FE0121024800F040FE31
:100E700008B010BD0038014000B502460B0000F07C
:100E80005CFF06040B121920272E3348334B1860E1
:100E90003348344B186023E03348304B18603348F4
:100EA000304B18601CE032482C4B186031482D4BF9
:100EB000186015E03048294B18603048294B1860FD
:100EC0000EE02F48254B18602E48264B186007E08F
:100ED0002D48224B18602D48224B186000BF00BFE0
:100EE00000BF1E4800680078012809D12848006822
:100EF0001C4B1B6818600020184B1B68187029E0F9
:100F0000234800688018224B1B68984210D2204862
:100F1000006880181E4B1B6898421BD101200F4BA4
:100F20001B68187000200F4B1B681860012000BD63
:100F30000C4800680068164B1B68181A904209D3C9
:100F40000120064B1B6818700020064B1B681860B8
:100F50000120ECE70020EAE73C000020C800002068
:100F60006800002080000020D8000020DC00002065
:100F7000EF000020F4000020F0000020F800002026
:100F8000F1000020FC0000201501002018010020C5
:100F90002001002010B51848007801281DD1052136
:100FA0006420FFF769FF002817D014490988144A04
:100FB00051430846C917090D091809135210891A17
:100FC0008A00891809B20F4A127852000E4B9952C2
:100FD0000C480078401C0B4908700A480078042827
:100FE00005D10020074908700220034908700A2132
:100FF000062000F0F7FF10BD14010020280000209B
:10100000102700001C0100200C0100207047000088
:1010100000218278002A27D0184A03231B02D21805
:1010200003789B109B00D15802789207D30EFF22C1
:101030009A400B469343194642789207120E037862
:101040009B07DB0E9A4011430C4A03231B02D21864
:1010500003789B109B00D1500278D306DB0E01224F
:101060009A40064B1A6007E00278D306DB0E012295
:101070009A40024B80331A607047000000E100E0A4
:10108000704700000C4949680122920391430A4AC3
:1010900051601146496882B21143074A51601146B6
:1010A000096B92159143044A11631146096B020CB6
:1010B0001143014A1163704700100240002905D016
:1010C000054A52690243044B5A6104E0024A5269DC
:1010D0008243014B5A61704700100240002905D03D
:1010E000054A12690243044B1A6104E0024A12697C
:1010F0008243014B1A61704700100240002905D05D
:10110000054A92690243044B9A6104E0024A9269DB
:101110008243014B9A61704700100240002905D0BC
:10112000054AD2680243044BDA6004E0024AD268FE
:101130008243014BDA6070470010024010B500F0A6
:1011400025F80521C904002000F0E2F9012000F093
:10115000CBF900BF192000F079F90028FAD002205D
:1011600000F0E8F900BF00F095F90828FBD1002055
:1011700000F098F9002000F0A5F90348FFF782FF7E
:1011800000F09AFB10BD0000004000011948006803
:10119000012108431749086008464068164908407D
:1011A000144948600846006814490840114908601D
:1011B000084600680121890488430E4908600846F2
:1011C00040683F21090488430A4948600846C06ACC
:1011D00000090001C8620846006B0949084005493A
:1011E00008630846406B4008400048630020886060
:1011F00070470000001002400CB8FF08FFFFF6FE29
:10120000ACFEF0FFFEB5044600250026002002904B
:10121000019000900027864840680C210840054650
:10122000002D06D0042D07D0082D08D00C2D2CD170
:1012300028E0804820602BE07E48206028E07C4841
:1012400040680F2189040840064679484068032118
:10125000C90308400290B00C861C0298002803D1F4
:101260007548374647430BE07148C06A0007000FD6
:10127000401C01906F480199FEF758FF70430746E4
:10128000276005E06D48206002E06A48206000BFEA
:1012900000BF67484068F021084005462D096848AE
:1012A000405D009020680099C840606060484068D8
:1012B00007210902084005462D0A6148405D00905B
:1012C00061680098C140A1605948006BFF2101315D
:1012D0000840884202D05B48E0600DE05448406816
:1012E000012189030840884203D0A0684008E060DB
:1012F00002E0A0688008E0604D48006B4021084093
:10130000402802D05048206102E00120C003206143
:101310004748006B10210840102802D04548606102
:1013200001E0206860614248006B8007800F002860
:1013300002D1A068A06119E03D48006B8007800FD2
:10134000012802D12068A06110E03948006B8007B5
:10135000800F022802D18003A06107E03448006BAF
:101360008007800F032801D13248A0613048006B0C
:10137000032109040840002802D1A068E06120E0B0
:101380002B48006B0321090408400121090488420D
:1013900002D12068E06114E02548006B03210904B4
:1013A000084001214904884202D18010E06108E030
:1013B0001F48006B032109040840884201D11D48E1
:1013C000E0611B48006B032189040840002802D11A
:1013D000A068206220E01648006B032189040840C1
:1013E00001218904884202D12068206214E010485B
:1013F000006B0321890408400121C904884202D1FD
:101400000011206208E00A48006B032189040840AB
:10141000884201D1074820620548006B80210840BE
:10142000802802D00548606200E06762FEBD0000CF
:101430000010024000127A0000093D00006CDC023E
:1014400014000020809FD5001280000010B50246D5
:101450000021002300205111002902D10C4C2368E7
:101460000BE0012902D10A4C236A06E0022902D1CD
:10147000074C636A01E0064C636BD106C90E012478
:101480008C401C40002C01D0012000E0002010BD49
:1014900000100240024840680C21084070470000DC
:1014A0000010024001460020054A5068F023024621
:1014B0009A43104602460A431046014A506070475C
:1014C0000010024001460020064A506807231B0214
:1014D00002469A43104602460A431046014A5060AB
:1014E0007047000000100240002807D00749096833
:1014F000012212061143054A116006E003490968FA
:10150000012212069143014A116070470010024007
:10151000074A52687B23DB039A43054B5A601A46FD
:10152000526803460B431A43014B5A607047000050
:101530000010024001460020044A506880088000E4
:1015400002460A431046014A5060704700100240AC
:101550001CB501218804FFF7B1FD1820009001217E
:101560006846017181710021C17103214171694691
:101570000148FFF7EDF91CBD0004004870B5FFF706
:101580001FFB4320FFF7DCFAFFF752FAFFF778FA68
:101590000446FFF7BFFAFFF773FA0546FFF7BAFAFA
:1015A000FFF76EFA0646FFF7F5FAFFF723FB200276
:1015B000401900B270BD10B5FFF702FB0020FFF725
:1015C000BFFAFFF735FA0620FFF7BAFAFFF730FA4D
:1015D000FFF710FB10BD0000F0B58BB06C48007831
:1015E000012804D1FFF7B4FF022069490870684858
:1015F0000078022813D102217D200001FFF73CFC76
:10160000002803D003206249087008E06148007890
:10161000012804D1FFF7CFFF00205E4908705C4825
:101620000078032816D103217D200001FFF724FC58
:10163000002805D000F0CCF804205549087097E048
:10164000554800780128FAD100F0B4F8002052493A
:1016500008708DE04E4800780428F0D10421642001
:10166000FFF70AFC00287DD0FFF788FF4B49088070
:1016700008460021415E002938DB01460020085E53
:101680004749086011242046FEF780FE059104902A
:101690004349096849006422514308463C21FEF74A
:1016A0005BFD0D2148430746FEF75CFE019100906B
:1016B00000F068FD054600223A4BFEF773FD0391EA
:1016C0000290059B049AFEF76DFD0022364B0791B0
:1016D0000690FEF7CFFD09910890FEF765FE00B277
:1016E000324909784900324A505239E02B490020EA
:1016F000085E40422A49086015242046FEF746FE4F
:10170000059104902649096849006422514308461E
:101710003C21FEF721FD0D2148430746FEF722FE3E
:101720000191009000F02EFD054600221D4BFEF7B2
:1017300039FD03910290059B049AFEF733FD0022C8
:10174000194B07910690FEF795FD09910890FEF759
:101750002BFE404200B2154909784900144A505204
:10176000124800E003E00078401C1049087000BFF8
:101770000E480078042805D100200C490870052087
:10178000034908700A21052000F02CFC0BB0F0BDC5
:10179000EC000020EE000020ED00002008010020F9
:1017A0000401002000804540000059400001002055
:1017B000E400002010B5FFF703FA4220FFF7C0F95C
:1017C000FFF736F93620FFF7BBF9FFF731F910BD07
:1017D00010B51E20FFF7B4F9FFF72AF910BD7047C6
:1017E0000CB50020019000902748006801210843B3
:1017F000254908600846006802210840002802D0F8
:101800000820009001E0012000900098082839D1BC
:1018100011201E4908601C4840681B494860084662
:1018200040684860084640687F21C90388431649DC
:101830004860084640681521490408431249486039
:10184000084600680121090608430F49086000BFE7
:101850000D4800680121490608400028F8D00A48D0
:1018600040688008800008494860084640680221B6
:1018700008430549486000BF034840680C21084000
:101880000828F9D10CBD00000010024000200240E1
:10189000042806D10649096904221143044A11614A
:1018A00005E00349096904229143014A1161704727
:1018B00000E000E070470000F8B500250024002695
:1018C0000027244840680C2108400546002D04D01C
:1018D000042D06D0082D2AD107E01F481F490860B3
:1018E00029E01D481D49086025E01A4840680F217D
:1018F000890408400446174840680321C90308408A
:101900000646A00C841C002E04D1154860431349E0
:1019100008600BE00F48C06A0007000F471C3946FB
:101920000D48FEF703FC60430C49086003E00A48D9
:101930000A49086000BF00BF06484068F02108401F
:10194000000908490D5C05480068E8400349086043
:10195000F8BD00000010024000127A0000000020D4
:1019600000093D000400002010B51B48006801215B
:101970000843194908600846406818490840164954
:101980004860084600681649084013490860084640
:1019900000680121890488430F49086008464068AF
:1019A0003F21090488430C4948600846C06A000981
:1019B0000001C8620846006BFF2154318843064984
:1019C00008630846406B4008400048630020886078
:1019D000FFF706FF10BD0000001002400CB8FF0822
:1019E000FFFFF6FE10B50121054800F01FF80028A2
:1019F00005D000F01DFB0121014800F006F810BDE4
:101A000000440140CA4302827047CA4302827047C1
:101A1000002904D0028801231A43028003E00288CF
:101A2000014B1A4002807047FEFF000030B50246AD
:101A3000002000230024158A0D402B4695890D4077
:101A40002C46002B03D0002C01D0012000E0002008
:101A500030BD002A03D083890B43838102E0838950
:101A60008B4383817047000000220288154B984207
:101A700006D001239B07984202D0134B984203D112
:101A8000124B1A404B881A43114B984203D0114B0A
:101A90001A400B891A4302804B68C3620B88038586
:101AA000084B984208D00C4B984205D00B4B9842FB
:101AB00002D00B4B984201D18B7A0386012383829B
:101AC00070470000002C0140000400408FFF000020
:101AD00000100040FFFC00000040014000440140B5
:101AE000004801400148C0697047000000380140CB
:101AF000002904D0026801231A43026003E002684F
:101B0000520852000260704710B5044632488442C1
:101B100009D101218803FFF701FB00210120800387
:101B2000FFF7FCFA56E02D48844209D10121480410
:101B3000FFF7D4FA002101204004FFF7CFFA49E073
:101B40002748844209D101218804FFF7C7FA002100
:101B500001208004FFF7C2FA3CE02248844209D108
:101B60000121C804FFF7BAFA00210120C004FFF7E1
:101B7000B5FA2FE01C48844209D101210805FFF77E
:101B8000ADFA002101200005FFF7A8FA22E017486E
:101B9000844208D101212020FFF7C0FA0021202033
:101BA000FFF7BCFA16E01248844208D10121402018
:101BB000FFF7B4FA00214020FFF7B0FA0AE00D4821
:101BC000844207D101218020FFF7A8FA002180205C
:101BD000FFF7A4FA10BD00000038014000440040A7
:101BE00000480040004C00400050004000140140FC
:101BF00000180140001C014002460020D3690B4040
:101C0000002B01D0012000E000207047F0B58BB020
:101C100004460D46002700200A9000262068400850
:101C20004000206066680321090330468843064669
:101C3000A8680643666026682D480640E96868681B
:101C400008432969084306432660A6680321090260
:101C500030468843064668690643A6606846FFF733
:101C6000D1FA2448844202D106980A900DE0224815
:101C7000844202D107980A9007E02048844202D1AA
:101C800008980A9001E002980A9020680121C9038F
:101C9000084000280CD029680A9A5000FEF746FA3E
:101CA000074629680A9A5000FEF740FA0E4609E0F6
:101CB00029680A98FEF73AFA074629680A98FEF753
:101CC00035FA0E4628684008B04200D87F1C2068CC
:101CD0000121C9030840002806D03807460F3846BE
:101CE0000749084030430746A7810BB0F0BD00000C
:101CF000F3E9FFFF00380140004400400048004085
:101D0000F0FF0000CA05D20D028570472021020CA9
:101D100001D010211046020A01D0104608390209EC
:101D200001D01046091F820801D01046891E4208C2
:101D300001D0881E7047081A704730B47446641E7C
:101D40002578641CAB4204D3635D5B00E31830BCB0
:101D500018471D46F8E702E008C8121F08C1002A0C
:101D6000FAD170477047002001E001C1121F002A1C
:101D7000FBD1704701490860704700002C0100202A
:101D800010B50420C043FFF783FD084908480068E8
:101D9000FEF7CCF940B207490870002008567D21B3
:101DA000C900484300B20449088010BD00127A00FF
:101DB0000000002024000020260000200146124AD6
:101DC0000023D3560A465A43104B5A6100229A61A7
:101DD0001A46126901231A430C4B1A6100BF0B4AC1
:101DE0001069C207D20F002A04D001221204024057
:101DF000002AF4D0054A126952085200034B1A61B6
:101E000000229A61704700002400002000E000E0FA
:101E100070B50446002520784519FF202070641C09
:101E2000002017E04100244A515A49198DB241005F
:101E3000515A0904090E2170641C42001E4B995E20
:101E4000CA17120E5218121212028A1A2270641C39
:101E5000411CC8B20428E5DB002017E04100174A06
:101E6000515A49198DB24100515A0904090E217085
:101E7000641C4200114B995ECA17120E52181212BE
:101E800012028A1A2270641C411CC8B20428E5DBC5
:101E900028122070641C2846E917090E0918091237
:101EA0000902691A217008210448FEF770F9082117
:101EB0000148FEF76CF970BD0C010020E400002021
:101EC00010B5012107204004FFF7F8F8FEF73AFFAC
:101ED000FEF756FFFEF71CFF7D20C002FEF78CFFC9
:101EE000FEF75AFFFEF770FFFEF79AFE10BD0000E6
:101EF00010B5FFF7E5FF05220121084800F05AF868
:101F000006220121064800F055F803220121054868
:101F100000F050F8002000F093F810BDD91500082B
:101F2000950F0008DD2000081FB501214804FFF7C8
:101F3000E5F815216846017000214170012181708A
:101F4000FFF766F80F4910480068FEF7EFF8401EEB
:101F500002900021684681808181C180817301A93E
:101F60000A48FFF781FD01210848FFF74BFD0122D8
:101F700011460648FFF76DFD01210448FFF748FDB3
:101F80001FBD0000A08601000000002000440140A9
:101F900010B5FFF7D3F8FFF7F3FE00F045F8002285
:101FA0000121034800F006F800F05AF8002010BDA7
:101FB000F11E000870B50346002010460401084DCC
:101FC0006419617104016419227104012B51002408
:101FD0000501034EAD19AC600501AD19EC6070BD93
:101FE0004401002070B504460D460E2C00DD70BD86
:101FF00000BF2646094800683101094A8918C860AF
:102000000849694308460749FEF790F83101044A38
:102010008918886000BF00BFE9E7000020010020A8
:1020200044010020A086010010B5FFF77DFF10BD20
:1020300002480068401C01490860704720010020E8
:1020400010B50E2800DD10BD0021014600220B0155
:10205000024C1B195A7100BF00BFF4E74401002075
:1020600034E000201A4908602CE01948006800019B
:1020700018494018407901281FD11548006800010F
:102080004018C068124909680901124A891889680C
:1020900040181149096888420FD800200C49096886
:1020A00009018918C8600A49096809018918886006
:1020B0000749096809015058804705480068401CD5
:1020C00003490860024800680F28CED3C9E7000022
:1020D00028010020440100202001002010B52348E1
:1020E0000078002808D100212148FEF7C5FE00280D
:1020F00002D006201D4908701E48007805280CD122
:102100001D480078022808D104201A4908700120CF
:1021100019490870052015490870144800780528E9
:102120001ED101217D200001FEF7A6FE002817D058
:102130001248FFF76DFE00240DE000BF402110485B
:10214000FFF75AFD0028F9D00C48015D0C48FFF755
:10215000D9FD601CC4B2132CEFD3062003490870CC
:102160000A210320FFF73EFF10BD0000E000002021
:10217000204E0000EC00002014010020300100205F
:1021800000380140F8B506460C46FEF7A1F9051ED9
:102190000F4600D00120014349000B484908411A6D
:1021A000C90F0DD0002E01D0012100E000210C4309
:1021B00061004908401AC00F02D10120FFF7DAFD83
:1021C00028463946F8BD00000000F07FEC210008E9
:1021D0000000002030010000B80500081C220008A3
:1021E0003001002008050000661D000811846CDC29
:1021F00002680901020304060708090CA91001146A
:102200004A0101690E013909383A09103C4B0301B2
:0C22100013091254B9AF091A540919241B
:04000005080000C12E
:00000001FF
