:020000040800F2
:1000000038060020D50000085D1200083D0C0008ED
:1000100000000000000000000000000000000000E0
:10002000000000000000000000000000971A000817
:10003000000000000000000035130008AD1B0008A0
:100040000501000800000000050100080501000886
:10005000050100085D0A0008050100080501000807
:100060000000000005010008050100080501000866
:100070000501000805010008050100080000000056
:100080000501000805010008050100080501000838
:1000900005010008DD1C0008050100080501000835
:1000A000050100080501000805010008DD1D000824
:1000B0000501000805010008000000000501000816
:1000C0000348854600F048FA0048004785230008A9
:1000D000380600200C4880F308880C480168090E97
:1000E0000B4A914205D10B480B4901600B480C4962
:1000F00001600C4880470C480047FEE7FEE7FEE73A
:10010000FEE7FEE7FEE700003806002004000000DE
:100110001F00000018100240010000000000014014
:1001200000000000611C0008C100000830B50B464B
:10013000014600202022012409E00D46D5409D42C1
:1001400005D31D469540491B254695404019154647
:10015000521E002DF1DC30BD70B50024254600286C
:1001600001DA01244042002901DA01254942FFF762
:10017000DDFFAC4200D04042002C00D0494270BDAF
:10018000D2B201E00270401C491EFBD2704700222F
:10019000F6E710B513460A4604461946FFF7F0FF86
:1001A000204610BDF0B51FB488B00B990998002403
:1001B00048400999C00F490049080991C0070B99A7
:1001C0000090490049080B9109990898A6460843F0
:1001D0001CD00B990A98084318D0099801244000B4
:1001E000420D4800410D099824050003000B2043EF
:1001F00009900B980003000B20430B9050181C49EA
:100200004018002201901446104605E000200146E7
:100210000DB0F0BD032801DA034600E003239C463D
:10022000C11A0AAE0AE05F0008ADED5B4F00F75B54
:100230007D430027AA187C41491C5B1E6145F2DD05
:10024000410004AB5A522104120C0A43240C401CF6
:100250000828DFDB01980290009970460191009018
:10026000059B049A0799069800F0D2F8D0E70000A1
:100270000DFCFFFFF0B50C465C4085B0E40FE407D1
:1002800003944C000026640859009446490802462D
:100290000296224321D062460A431ED06200570DC7
:1002A0004A000E032303550D012402462C49240560
:1002B000781B1B0B360B40182343264361460090E6
:1002C0001C46501AB44103D30098401C009002E031
:1002D000921800985B41002803DA0020014605B01F
:1002E000F0BD0020012109050746864611E064465D
:1002F0001D46141BB54106D36546521BB3417446D7
:1003000007430C43A646CD074008490828439218E6
:100310005B4105460D43EAD11046184313D06046B1
:10032000194650407140084306D06046101AB34148
:1003300006D20122002306E000220123DB0702E0AF
:100340000122D2435310009874460105381C6141C4
:10035000029C039D0019694100F04DF8BFE70000C1
:10036000FD0300000EB5C217C10F5040CA07401868
:100370000021054B0293019200910A460B4600F0C2
:1003800047F803B000BD00003304000070B5CD0F86
:100390004A0009030123090B1B0519430B4BED0709
:1003A0000024520D9A4201DA002070BD074B34330D
:1003B0009A4203DC9A1A00F00DF802E00449511841
:1003C00088402C43F1D0404270BD0000FF03000084
:1003D000CDFBFFFF10B5202A04DB0846203AD040B1
:1003E000002110BD0B46D340D0402024A21A9140DA
:1003F0000843194610BD10B5002B08DA0024401C34
:10040000614192185B411A4301D14008400010BD80
:10041000F0B51FB482B005460C0003D0084601F0C9
:10042000F1FD02E001F0EEFD203002460090214691
:10043000284600F0A3F8049B059A04460F4618438B
:100440001143084314D0184610431BD00098402194
:100450000A1A18460599FFF7BDFF05460E46009A91
:100460000599049800F08AF8084305D0012004E0BB
:100470002046394607B0F0BD0020C11705430E43A2
:100480002C43374300990E986305401A7905E40A16
:1004900000220C43FD0A0A3002D500200146E9E79C
:1004A0000105101969410C9C0D9D00196941FFF768
:1004B000A2FFDFE7FEB500231A461B1A8A4103DBC1
:1004C0000020014603B0F0BD4A000D0301212D0BB1
:1004D0000905520D0D43D10702D100186D41521E7E
:1004E0005110FF31FF310131002704463E463846A6
:1004F000009701910246012100200905FFF76AFFDC
:10050000C3197141F818324684468E464A41614605
:100510002846611A904104D36046241A95417646D4
:100520001F46241900986D41401C00903428E1DDDD
:10053000F91930467041091BA84103D20022D24369
:10054000134601E00022134601980105381C714151
:10055000FFF751FFB6E70000064C0125064E05E007
:10056000E36807CC2B430C3C98471034B442F7D3D4
:10057000FFF7AAFD102600083026000810B5202A33
:1005800004DB0146203A9140002010BD9140202319
:100590009C1A0346E3401943904010BD70B58C1877
:1005A0000578401C6B075B0F01D10378401C2A11B2
:1005B00006D10278401C03E006780E70401C491CEE
:1005C0005B1EF9D12B0705D40023521E0DD40B70EE
:1005D000491CFAE70378401CCB1A921C03E01D78F3
:1005E0000D70491C5B1C521EF9D5A142D8D30020C6
:1005F00070BD10B50B460021846A1C43846200BFA5
:100600000C4614432146416110BD002904D0826884
:1006100001231A43826003E0826802231A43826046
:100620007047002904D0C26801231A43C26003E066
:10063000C26852085200C2607047C26802239A43DF
:10064000C260C2680A43C2607047000010B5044629
:100650000548844207D10121401500F0C9FE002160
:10066000601500F0C5FE10BD0024014030B5014604
:100670000020002200238C680125ED072C438C60AC
:1006800000BF8C68E30FDB07521C0F242403A24237
:1006900001D0002BF5D18C68E40FE407002C01D1C8
:1006A000086C00E0002030BD30B502460020002379
:1006B000012424060C40002C05D0946801252D0649
:1006C000AC43234600E013681C460C40002C01D0CC
:1006D000012000E0002030BD10B50022C268084BA8
:1006E0001A400C7964030B6823438C682343CC685D
:1006F00023430C6923434C6923431A43C26010BD52
:1007000003D2FFFF816804221143816070470021FA
:10071000016001718160C160016141617047000049
:1007200000B589B001210320400400F021FE18200B
:100730000790032108A841700121017000218170F8
:100740000121C17007A90920C00600F0FFF9182196
:100750000920C00600F070FA0220059003216846C7
:1007600001760021C17605A90920C00600F0EEF946
:100770000021244800F08CF800212348FFF751FFA6
:1007800000212148FFF741FFFF20013003900321A2
:100790006846417401210174002181740121C174F2
:1007A00003A90920C00600F0D1F9FF210131092079
:1007B000C00600F041FA0320400201900321684680
:1007C000417201210172002181720121C17201A9CE
:1007D0000920C00600F0BAF9032149020920C00629
:1007E00000F02AFA00210748503000F051F80021AB
:1007F00004483C3000F04CF80021044801F0F4FAC1
:1008000009B000BD0800024000240140004400403F
:1008100000B585B001210320400400F0A9FD0121AD
:10082000880300F0D5FD0121480400F0B1FD01214D
:10083000084600F0CDFD0121480400F0C9FD00216B
:1008400068460174C17441740120039003A90F48E4
:1008500000F07CF90021012001F01EF90120019037
:100860000021684601720C2141720121817201A8A8
:1008700000F018F9012168468170022141700521BC
:10088000017000F0EDFC05B000BD00000004004860
:10089000002904D0026801231A43026003E00268C1
:1008A000014B1A4002607047FEFF00000168554A84
:1008B000114001600021016041608160C1605249C6
:1008C000884208D15049083949680F2211434E4ADD
:1008D000083A516094E04C491431884208D14A49A1
:1008E00008394968F0221143474A083A516087E0C5
:1008F00045492831884209D14349083949680F22BE
:1009000012021143404A083A516079E03E493C31B5
:10091000884209D13C49083949680F221203114322
:10092000394A083A51606BE037495031884209D161
:100930003549083949680F2212041143324A083AEE
:1009400051605DE030496431884209D12E4908394F
:1009500049680F22120511432B4A083A51604FE0B3
:1009600029497831884209D12749083949680F2235
:1009700012061143244A083A516041E02349884253
:1009800008D12249083949680F2211431F4A083A01
:10099000516035E01D491431884208D11B4908399E
:1009A0004968F0221143194A083A516028E0174972
:1009B0002831884209D11549083949680F221202A5
:1009C0001143124A083A51601AE010493C318842FA
:1009D00009D10E49083949680F22120311430B4A05
:1009E000083A51600CE009495031884208D1074962
:1009F000083949680F2212041143044A083A516029
:100A000070470000FEFF000008000240080402409A
:100A100010B5002202680D4B1A400C6A8B68234304
:100A20000C6923434C6923438C692343CC692343DA
:100A30004C6A23438C6A23431A430260CB684360A9
:100A40000B6883604B68C36010BD00000F80FFFF20
:100A500010B50446204601F02DFB10BD10B5012055
:100A600000F012F8002802D002200349087001208B
:100A700000F004F810BD0000D300002001494861D7
:100A8000704700000004014001460020044A5269FA
:100A90000A40002A01D0012000E000207047000039
:100AA00000040140002120498279002A35D00A46FD
:100AB000126803689A430B461A600A465268036834
:100AC0009A430B465A60027951180A6803681A4320
:100AD0000A60154A926803689A43134B9A601A4653
:100AE000D26803689A43104BDA604279102A0CD11D
:100AF0001A46926803681A430B4B9A601A46D268EA
:100B000003681A43084BDA600DE00749427951182F
:100B10000A6803681A430A6005E0027951180A68F6
:100B200003689A430A6070470004014010B500F062
:100B30009BFAFFF76DFEFFF7F3FD0121080700F0B8
:100B400027FC0121084600F0C3FB10BDF0B50A46A2
:100B500000210023002400BF3DE001258D402B46ED
:100B600015681D402C469C4234D11579012D02D0C8
:100B70001579022D16D185684F000326BE40B54376
:100B8000856055794E00B540866835438560858817
:100B900001268E40B5438580858896798E40B6B211
:100BA0003543858005684F000326BE40B543056088
:100BB00015794E00B540066835430560C5684F009D
:100BC0000326BE40B543C560D5794E00B540C66822
:100BD0003543C560491C1029BFD3F0BDF0B50023D3
:100BE00000244D07EE0E1546B5402B46CD10AE0045
:100BF00005462035AD594E07F70E0F26BE40B543CA
:100C0000CE10B60007462037BD51CD10AE003D4690
:100C1000AD591D432C46CD10AD003E467451F0BD7C
:100C200002460020138A0B40002B01D0012000E077
:100C300000207047018570478161704700BFFEE763
:100C400010B500240820114988610520FFF700FF36
:100C500010200E4988610520FFF7FAFE00F03CF8ED
:100C60001420FFF7F5FE0948008A08210840C41047
:100C700000F046F80520FFF7EBFE10200349203175
:100C800008811920FFF7E4FE204610BD000400484B
:100C900070B5002400F020F8002516E010200D4962
:100CA00088610520FFF7D4FE6006040E0948008A1B
:100CB00008210840C0100443102006492031088153
:100CC0000520FFF7C5FE681CC5B2082DE6DB2046EF
:100CD00070BD0000000400481CB5082000900021F1
:100CE00068460171012181710021C17103214171A7
:100CF00069460248FFF72AFF1CBD000000040048B7
:100D00001CB5082000900121684601718171002105
:100D1000C1710321417169460148FFF717FF1CBDEE
:100D20000004004810B5FFF7EBFF082007490881D1
:100D300010200649203988610520FFF789FE102020
:100D4000024908810520FFF783FE10BD20040048FA
:100D500070B5044600251FE080202040002803D005
:100D600008200F49886103E008200D4920310881DF
:100D70006006040E0520FFF76BFE1020084988610D
:100D80000520FFF765FE1020054920310881052068
:100D9000FFF75EFE681CC5B2082DDDDB70BD0000EC
:100DA0000004004810B5FFF7ABFF08200749886131
:100DB000102088610520FFF74BFE102003492031E9
:100DC00008810520FFF744FE10BD00000004004824
:100DD00010B5FFF795FF0820094988611020886148
:100DE0000520FFF735FE0820054920310881052040
:100DF000FFF72EFE102002492031088110BD0000AF
:100E00000004004810B5082008490881102007494F
:100E1000203988610520FFF71BFE0820034920398F
:100E200088610520FFF714FE10BD00002004004873
:100E300000B593B00121480400F09AFA0220119005
:100E4000032110A801720021C17211A90920C00656
:100E5000FFF77CFE0121480200F0BAFA01210846A2
:100E600000F086FA2A48FFF7F1FB2A48FFF71EFD3B
:100E7000274840300690284807900020089001201D
:100E8000099000200A9080200B9040000C90800078
:100E90000D9020200E9000020F900020109006A9C7
:100EA0001C48FFF7B5FD01211A48FFF7F1FC0221AC
:100EB0001748FFF7C2FB01211548FFF7B2FB684650
:100EC000FFF725FC002000900121684601710020F9
:100ED000029004900420059069460D48FFF7FCFB42
:100EE000072202210A48FFF784FB0948FFF7BEFBEF
:100EF00001210748FFF789FB00BF08490448FFF7B5
:100F0000D3FB0028F9D00248FFF7FCFB13B000BD6B
:100F100000240140080002402800002001000001D8
:100F20001CB5FF20013000900121684601710021AD
:100F30008171C1710321417169460920C006FFF723
:100F400005FEFF2101310920C006FFF773FE1CBD1D
:100F50001CB51820009001216846017100218171A3
:100F6000C1710321417169460920C006FFF7EEFDFA
:100F700008210920C006FFF75FFE10210920C006E6
:100F8000FFF75AFE1CBD00001CB520200090012177
:100F900068460171002181710121C17103214171F4
:100FA00069460448FFF7D2FD20210248FFF744FEBE
:100FB0001CBD0000000400481CB540200090012129
:100FC00068460171002181710121C17103214171C4
:100FD00069460448FFF7BAFD40210248FFF72AFEA0
:100FE0001CBD00000004004810B588B004461D4830
:100FF00000F006FF0121880300F0EAF9012148040E
:1010000000F0B6F901220921C806FFF7E7FD012229
:101010000921C806FFF7E2FD0320400200900221EB
:101020006846017100218171032141710121C17163
:1010300069460920C006FFF789FD7D20C0020290A5
:10104000002007900C20069000200590049003904B
:1010500002A9044800F056FF0121024800F0C4FE36
:1010600008B010BD0038014001200649087006494B
:1010700008700020054908700549088002200549CC
:1010800008707047D3000020D1000020200100200C
:101090001E0100201401002000B502460B0000F0E4
:1010A000C8FF06040B121920272E3348334B186053
:1010B0003348344B186023E03348304B18603348D2
:1010C000304B18601CE032482C4B186031482D4BD7
:1010D000186015E03048294B18603048294B1860DB
:1010E0000EE02F48254B18602E48264B186007E06D
:1010F0002D48224B18602D48224B186000BF00BFBE
:1011000000BF1E4800680078012809D128480068FF
:101110001C4B1B6818600020184B1B68187029E0D6
:10112000234800688018224B1B68984210D2204840
:10113000006880181E4B1B6898421BD101200F4B82
:101140001B68187000200F4B1B681860012000BD41
:101150000C4800680068164B1B68181A904209D3A7
:101160000120064B1B6818700020064B1B68186096
:101170000120ECE70020EAE73C000020C800002046
:101180006800002080000020D8000020DC00002043
:10119000EF000020F4000020F0000020F800002004
:1011A000F1000020FC0000201501002018010020A3
:1011B0002401002010B52048007802282DD10521F7
:1011C0006420FFF769FF002827D01C48007800281A
:1011D00008D11B48008800B21A490880012017492D
:1011E00008701AE016490988164A0023D35EC91A06
:1011F000154A514308461549FEF7AEFF00B214499F
:1012000008800020085E134909784900124A5052AC
:1012100010480078401C0F4908700E4800780428D8
:1012200005D100200B4908700320034908700A21EA
:10123000062001F0D1F810BD14010020200100208B
:10124000280000201E0100201027000039030000A4
:10125000220100201C0100200C010020704700002A
:1012600000218278002A27D0184A03231B02D218B3
:1012700003789B109B00D15802789207D30EFF226F
:101280009A400B469343194642789207120E037810
:101290009B07DB0E9A4011430C4A03231B02D21812
:1012A00003789B109B00D1500278D306DB0E0122FD
:1012B0009A40064B1A6007E00278D306DB0E012243
:1012C0009A40024B80331A607047000000E100E052
:1012D00010B502460020154B1868800880000346B0
:1012E00013431846114B1860114B1B690424234308
:1012F0000F4C2361012907D130BF23461B69042409
:10130000A3430B4C23610FE0022907D120BF084BF8
:101310001B690424A343064C236105E0044B1B69AD
:1013200002242343024C236110BD000000700040E2
:1013300000ED00E0704700000C494968012292036B
:1013400091430A4A51601146496882B21143074AE3
:1013500051601146096B92159143044A116311467D
:10136000096B020C1143014A1163704700100240DF
:10137000002905D0054A52690243044B5A6104E032
:10138000024A52698243014B5A6170470010024081
:10139000002905D0054AD2690243044BDA6104E012
:1013A000024AD2698243014BDA6170470010024061
:1013B000002905D0054A12690243044B1A6104E072
:1013C000024A12698243014B1A61704700100240C1
:1013D000002905D0054A92690243044B9A6104E052
:1013E000024A92698243014B9A61704700100240A1
:1013F000002905D0054AD2680243044BDA6004E0B4
:10140000024AD2688243014BDA6070470010024002
:1014100010B500F025F80521C904002000F0E2F91C
:10142000012000F0CBF900BF192000F079F9002865
:10143000FAD0022000F0E8F900BF00F095F9082882
:10144000FBD1002000F098F9002000F0A5F9034836
:10145000FFF772FF00F0ACFB10BD00000040000180
:101460001948006801210843174908600846406888
:101470001649084014494860084600681449084065
:1014800011490860084600680121890488430E4913
:101490000860084640683F21090488430A494860BB
:1014A0000846C06A00090001C8620846006B094985
:1014B0000840054908630846406B400840004863FF
:1014C0000020886070470000001002400CB8FF0840
:1014D000FFFFF6FEACFEF0FFFEB504460025002639
:1014E00000200290019000900027864840680C215F
:1014F00008400546002D06D0042D07D0082D08D041
:101500000C2D2CD128E0804820602BE07E48206004
:1015100028E07C4840680F21890408400646794845
:1015200040680321C90308400290B00C861C029851
:10153000002803D17548374647430BE07148C06A1D
:101540000007000F401C01906F480199FEF7EEFD67
:1015500070430746276005E06D48206002E06A4856
:10156000206000BF00BF67484068F0210840054682
:101570002D096848405D009020680099C84060606F
:101580006048406807210902084005462D0A614865
:10159000405D009061680098C140A1605948006BAF
:1015A000FF2101310840884202D05B48E0600DE035
:1015B00054484068012189030840884203D0A0684C
:1015C0004008E06002E0A0688008E0604D48006BE1
:1015D00040210840402802D05048206102E001200C
:1015E000C00320614748006B10210840102802D03A
:1015F0004548606101E0206860614248006B8007F7
:10160000800F002802D1A068A06119E03D48006B5E
:101610008007800F012802D12068A06110E03948BE
:10162000006B8007800F022802D18003A06107E0D1
:101630003448006B8007800F032801D13248A06135
:101640003048006B032109040840002802D1A0683B
:10165000E06120E02B48006B0321090408400121D0
:101660000904884202D12068E06114E02548006B3B
:1016700003210904084001214904884202D1801055
:10168000E06108E01F48006B03210904084088421C
:1016900001D11D48E0611B48006B0321890408400B
:1016A000002802D1A068206220E01648006B0321C8
:1016B0008904084001218904884202D120682062FF
:1016C00014E01048006B0321890408400121C9047B
:1016D000884202D10011206208E00A48006B032111
:1016E00089040840884201D1074820620548006B00
:1016F00080210840802802D00548606200E06762CF
:10170000FEBD00000010024000127A0000093D00FA
:10171000006CDC0214000020809FD50012800000C5
:1017200010B502460021002300205111002902D1EA
:101730000C4C23680BE0012902D10A4C236A06E015
:10174000022902D1074C636A01E0064C636BD106A3
:10175000C90E01248C401C40002C01D0012000E067
:10176000002010BD00100240024840680C210840D3
:10177000704700000010024001460020054A5068F2
:10178000F02302469A43104602460A431046014A95
:10179000506070470010024001460020064A506821
:1017A00007231B0202469A43104602460A4310468C
:1017B000014A50607047000000100240002807D026
:1017C00007490968012212061143054A116006E023
:1017D00003490968012212069143014A11607047CA
:1017E00000100240074A52687B23DB039A43054BF3
:1017F0005A601A46526803460B431A43014B5A601B
:10180000704700000010024001460020044A506862
:101810008008800002460A431046014A5060704723
:10182000001002401CB501218804FFF7A1FD18201B
:10183000009001216846017181710021C17103216D
:10184000417169460148FFF781F91CBD0004004859
:1018500070B5FFF7BDFA4320FFF77AFAFFF7F0F90A
:10186000FFF716FA0446FFF75DFAFFF711FA05468F
:10187000FFF758FAFFF70CFA0646FFF793FAFFF75F
:10188000C1FA2002401900B270BD10B5FFF7A0FAEE
:101890000020FFF75DFAFFF7D3F90620FFF758FAAB
:1018A000FFF7CEF9FFF7AEFA10BD0000F0B589B032
:1018B00062480078012804D1FFF7B4FF02205F4995
:1018C00008705E480078022812D102215C48FFF7B8
:1018D000E3FB002803D003205849087008E059486A
:1018E0000078012804D1FFF7D0FF00205549087087
:1018F00052480078032815D103215148FFF7CCFB4B
:10190000002805D000F0C0F804204C49087085E09C
:101910004D4800780128FAD100F0A8F800204A4983
:1019200008707BE045480078042877D10421C8205E
:10193000FFF7B2FB002871D0FFF78AFF4349088008
:1019400008460021415E002930DB01460020085E88
:101950003F490860096849006422514308463C2118
:10196000FEF7FAFB0D2148430190FEF7FBFC0391C3
:10197000029000F029FE06460022364BFEF712FCCC
:101980000022354B05910490FEF70CFC0446002222
:10199000324BFEF76FFC07910690FEF7F7FC00B2A2
:1019A0002F49097849002F4A505232E02749002038
:1019B000085E404226490860096849006422514394
:1019C00008463C21FEF7C8FB0D2148430446FEF7BC
:1019D000C9FC0191009000F0F7FD054600221D4B67
:1019E000FEF7E0FB0022204B03910290FEF7DAFBAA
:1019F00000221A4B05910490FEF73CFC07910690DB
:101A0000FEF7C4FC404200B2154909784900154A66
:101A1000505213480078401C114908701048007853
:101A2000042805D100200E490870052003490870DC
:101A30000A21052000F0D0FC09B0F0BDEC00002028
:101A4000C4090000EE000020ED0000200801002085
:101A5000040100200080454000003D400000594046
:101A600000010020E400002000003B4010B5FFF71B
:101A7000AFF94220FFF76CF9FFF7E2F83620FFF7E5
:101A800067F9FFF7DDF810BD10B51E20FFF760F90C
:101A9000FFF7D6F810BD704730B500228B071C0F3A
:101AA0000F23A3401A460B4B8C10A4001B599343E1
:101AB000084C8D10AD00635123468C10A4001B59B7
:101AC0008C07250F0446AC402343024C8D10AD001B
:101AD000635130BD080001400CB50020019000901A
:101AE0002748006801210843254908600846006826
:101AF00002210840002802D00820009001E00120C7
:101B000000900098082839D111201E4908601C480F
:101B100040681B494860084640684860084640687D
:101B20007F21C9038843164948600846406815214B
:101B30004904084312494860084600680121090623
:101B400008430F49086000BF0D480068012149069D
:101B500008400028F8D00A484068800880000849FA
:101B6000486008464068022108430549486000BFB4
:101B7000034840680C2108400828F9D10CBD00003A
:101B80000010024000200240042806D106490969DD
:101B900004221143044A116105E003490969042242
:101BA0009143014A1161704700E000E07047000076
:101BB000F8B50025002400260027244840680C21A1
:101BC00008400546002D04D0042D06D0082D2AD14A
:101BD00007E01F481F49086029E01D481D490860AB
:101BE00025E01A4840680F21890408400446174838
:101BF00040680321C90308400646A00C841C002E3F
:101C000004D115486043134908600BE00F48C06ACF
:101C10000007000F471C39460D48FEF787FA60435E
:101C20000C49086003E00A480A49086000BF00BF89
:101C300006484068F0210840000908490D5C054845
:101C40000068E84003490860F8BD00000010024049
:101C500000127A000000002000093D00040000206E
:101C600010B51B480068012108431949086008465F
:101C700040681849084016494860084600681649F7
:101C80000840134908600846006801218904884318
:101C90000F490860084640683F21090488430C4901
:101CA00048600846C06A00090001C8620846006B27
:101CB000FF2154318843064908630846406B4008B9
:101CC0004000486300208860FFF706FF10BD000059
:101CD000001002400CB8FF08FFFFF6FE10B501210E
:101CE000054800F01FF8002805D000F09BFB0121FB
:101CF000014800F006F810BD00440140CA430282CA
:101D00007047CA4302827047002904D00288012329
:101D10001A43028003E00288014B1A400280704798
:101D2000FEFF000030B50246002000230024158A83
:101D30000D402B4695890D402C46002B03D0002CDE
:101D400001D0012000E0002030BD002A03D08389AB
:101D50000B43838102E083898B43838170470000BA
:101D600000220288154B984206D001239B07984217
:101D700002D0134B984203D1124B1A404B881A439E
:101D8000114B984203D0114B1A400B891A43028021
:101D90004B68C3620B880385084B984208D00C4BF4
:101DA000984205D00B4B984202D00B4B984201D180
:101DB0008B7A03860123838270470000002C014048
:101DC000000400408FFF000000100040FFFC0000F6
:101DD0000040014000440140004801400148C06902
:101DE0007047000000380140002904D00268012338
:101DF0001A43026003E00268520852000260704712
:101E000010B504463248844209D101218803FFF706
:101E1000EFFA002101208003FFF7EAFA56E02D488F
:101E2000844209D101214804FFF7C2FA00210120B0
:101E30004004FFF7BDFA49E02748844209D1012157
:101E40008804FFF7B5FA002101208004FFF7B0FAFB
:101E50003CE02248844209D10121C804FFF7A8FAD6
:101E600000210120C004FFF7A3FA2FE01C488442A0
:101E700009D101210805FFF79BFA00210120000587
:101E8000FFF796FA22E01748844208D1012120206A
:101E9000FFF7AEFA00212020FFF7AAFA16E0124859
:101EA000844208D101214020FFF7A2FA00214020FE
:101EB000FFF79EFA0AE00D48844207D101218020F5
:101EC000FFF796FA00218020FFF792FA10BD00007C
:101ED000003801400044004000480040004C0040F1
:101EE000005000400014014000180140001C014057
:101EF00002460020D3690B40002B01D0012000E0F6
:101F000000207047F0B58BB004460D460027002036
:101F10000A9000262068400840002060666803217F
:101F20000903304688430646A8680643666026686B
:101F30002D480640E9686868084329690843064354
:101F40002660A66803210902304688430646686970
:101F50000643A6606846FFF7BFFA2448844202D1D0
:101F600006980A900DE02248844202D107980A9010
:101F700007E02048844202D108980A9001E00298C4
:101F80000A9020680121C903084000280CD0296864
:101F90000A9A5000FEF7CAF8074629680A9A5000C4
:101FA000FEF7C4F80E4609E029680A98FEF7BEF865
:101FB000074629680A98FEF7B9F80E4628684008CF
:101FC000B04200D87F1C20680121C90308400028C6
:101FD00006D03807460F38460749084030430746C1
:101FE000A7810BB0F0BD0000F3E9FFFF003801400E
:101FF0000044004000480040F0FF0000CA05D20D38
:10200000028570472021020C01D010211046020ADF
:1020100001D010460839020901D01046091F820874
:1020200001D01046891E420801D0881E7047081A48
:10203000704730B47446641E2578641CAB4204D3E8
:10204000635D5B00E31830BC18471D46F8E702E00B
:1020500008C8121F08C1002AFAD170477047002033
:1020600001E001C1121F002AFBD17047014908603D
:10207000704700003001002010B50420C043FFF776
:1020800083FD084908480068FEF750F840B2074948
:102090000870002008567D21C900484300B2044959
:1020A000088010BD00127A000000002024000020EB
:1020B000260000200146124A0023D3560A465A43FE
:1020C000104B5A6100229A611A46126901231A4381
:1020D0000C4B1A6100BF0B4A1069C207D20F002ACD
:1020E00004D0012212040240002AF4D0054A1269E9
:1020F00052085200034B1A6100229A617047000097
:102100002400002000E000E070B50446002520789F
:102110004519FF202070641C002017E04100244A6C
:10212000515A49198DB24100515A0904090E2170C2
:10213000641C42001E4B995ECA17120E52181212EE
:1021400012028A1A2270641C411CC8B20428E5DB02
:10215000002017E04100174A515A49198DB2410039
:10216000515A0904090E2170641C4200114B995EFA
:10217000CA17120E5218121212028A1A2270641C06
:10218000411CC8B20428E5DB28122070641C2846D4
:10219000E917090E091809120902691A21700821A4
:1021A0000448FDF7F4FF08210148FDF7F0FF70BD7A
:1021B0000C010020E400002010B50121072040049C
:1021C000FFF7D6F8FEF7C4FEFEF7AAFE7D20C00298
:1021D000FEF70AFFFEF7D8FEFEF7EEFEFEF728FE3A
:1021E00010BD000010B5002005490860FFF710F988
:1021F000FFF742FF00F012F900F004F810BD0000F4
:102200002401002010B5FFF7D7FF012211460B482B
:1022100000F0CAF805220121094800F0C5F806229D
:102220000121084800F0C0F803220121064800F00F
:10223000BBF8002000F0FEF810BD0000B522000839
:10224000AD180008B5110008D12400081FB5012100
:102250004804FFF7BDF81521684601700021417060
:1022600001218170FEF7FCFF0F4910480068FDF75F
:102270005DFF401E02900021684681808181C180FF
:10228000817301A90A48FFF76BFD01210848FFF798
:1022900035FD012211460648FFF757FD012104488C
:1022A000FFF732FD1FBD0000A086010000000020E6
:1022B0000044014010B52E480078022837D1012192
:1022C0002C48FEF7ADFC002827D12B4800780528C4
:1022D0001DD100202849087028480078002801D125
:1022E000012000E0002025490870084600780028F9
:1022F00006D000202249087004201D49087016E00D
:1023000001201F4908700020194908700FE01A4881
:102310000078401C1849087009E000201649087030
:1023200016480078002802D103201149087010488F
:102330000078032803D1FEF7F9FBFFF753FF0C48A1
:102340000078042806D10121002000F015F90120B1
:102350000749087006480078002803D1FEF7E6FB1D
:10236000FFF740FF7D210901012000F035F810BD85
:10237000D300002000040048D5000020D200002037
:10238000D100002010B5FFF743F8FFF775FE00F00D
:1023900045F800220121034800F006F800F05AF841
:1023A000002010BD0522000870B50346002010462D
:1023B0000401084D6419617104016419227104015A
:1023C0002B5100240501034EAD19AC600501AD1978
:1023D000EC6070BD4801002070B504460D460E2C1F
:1023E00000DD70BD00BF2646094800683101094A7A
:1023F0008918C8600849694308460749FDF796FEF1
:102400003101044A8918886000BF00BFE9E7000075
:102410002401002048010020A086010010B5FFF72C
:1024200015FF10BD02480068401C01490860704754
:102430002401002010B50E2800DD10BD002101464A
:1024400000220B01024C1B195A7100BF00BFF4E7B8
:102450004801002034E000201A4908602CE01948A7
:102460000068000118494018407901281FD115481B
:10247000006800014018C068124909680901124A41
:102480008918896840181149096888420FD80020C6
:102490000C49096809018918C8600A4909680901D5
:1024A000891888600749096809015058804705481C
:1024B0000068401C03490860024800680F28CED31A
:1024C000C9E700002C010020480100202401002061
:1024D00010B523480078002808D100212148FEF7D4
:1024E000DBFD002802D006201D4908701E48007838
:1024F00005280CD11D480078032808D104201A496A
:102500000870022019490870052015490870144800
:10251000007805281ED101217D200001FEF7BCFDB9
:10252000002817D01248FFF7EFFD00240DE000BF90
:1025300040211048FFF7DCFC0028F9D00C48015D71
:102540000C48FFF75BFD601CC4B2132CEFD30620D0
:10255000034908700A210320FFF73EFF10BD000069
:10256000E0000020204E0000EC00002014010020BC
:10257000340100200038014070B505460C46002D9E
:1025800002D0012D1CD10DE0012C05D1082109201C
:10259000C006FEF74FFB04E008210920C006FEF745
:1025A0004BFB0EE0012C05D110210920C006FEF7DF
:1025B00041FB04E010210920C006FEF73DFB00E0CE
:1025C00000BF00BF70BD0000F8B506460C46FDF721
:1025D00071FF051E0F4600D00120014349000B4842
:1025E0004908411AC90F0DD0002E01D0012100E089
:1025F00000210C4361004908401AC00F02D101209C
:10260000FFF734FD28463946F8BD00000000F07F92
:102610003026000800000020340100009C0500085E
:102620006026000834010020040500005E20000838
:1026300011846CDC02680901020304060708090C16
:10264000A91001144A0101690E013909383A09102B
:102650003C4B030113091254B9AF011B0A1D02249C
:04000005080000C12E
:00000001FF
