:020000040800F2
:1000000088060020D5000008C50F00087D070008FD
:1000100000000000000000000000000000000000E0
:1000200000000000000000000000000009150008AA
:10003000000000000000000039100008E115000871
:100040000501000800000000050100080501000886
:10005000050100085906000805010008050100080F
:100060000000000005010008050100080501000866
:100070000501000805010008050100080000000056
:100080000501000805010008050100080501000838
:100090000501000811170008050100080501000806
:1000A00005010008050100080501000811180008F5
:1000B0000501000805010008000000000501000816
:1000C0000348854600F084FA00480047451F0008B1
:1000D000880600200C4880F308880C480168090E47
:1000E0000B4A914205D10B480B4901600B480C4962
:1000F00001600C4880470C480047FEE7FEE7FEE73A
:10010000FEE7FEE7FEE7000088060020040000008E
:100110001F00000018100240010000000000014014
:100120000000000095160008C100000830B50B461D
:10013000014600202022012409E00D46D5409D42C1
:1001400005D31D469540491B254695404019154647
:10015000521E002DF1DC30BD70B50024254600286C
:1001600001DA01244042002901DA01254942FFF762
:10017000DDFFAC4200D04042002C00D0494270BDAF
:10018000F0B51FB486B00020009001900290069850
:10019000069980B204900798090C020400141143D8
:1001A00007900027089D099806913E463C4603901B
:1001B0000398A9B20204000C039004982D0C154377
:1001C00048430021224600F031F9C719714110342B
:1001D0000E46402CECDB3846029A00F027F9009AD4
:1001E000019B8018009059410298019110300290B3
:1001F0004028CCDB00980BB0F0BD0000F0B51FB478
:1002000088B00B990998002448400999C00F49000B
:1002100049080991C0070B990090490049080B91C2
:1002200009990898A64608431CD00B990A980843D8
:1002300018D0099801244000420D4800410D09984A
:1002400024050003000B204309900B980003000BCA
:1002500020430B9050181C4940180022019014466E
:10026000104605E0002001460DB0F0BD032801DA7C
:10027000034600E003239C46C11A0AAE0AE05F0071
:1002800008ADED5B4F00F75B7D430027AA187C416A
:10029000491C5B1E6145F2DD410004AB5A5221044A
:1002A000120C0A43240C401C0828DFDB0198029042
:1002B0000099704601910090059B049A0799069851
:1002C00000F0E2F8D0E700000DFCFFFFF0B50C46AF
:1002D0005C4085B0E40FE40703944C0000266408FA
:1002E00059009446490802460296224321D06246AC
:1002F0000A431ED06200570D4A000E032303550D1A
:10030000012402462C492405781B1B0B360B401890
:1003100023432643614600901C46501AB44103D340
:100320000098401C009002E0921800985B41002861
:1003300003DA0020014605B0F0BD002001210905C7
:100340000746864611E064461D46141BB54106D398
:100350006546521BB341744607430C43A646CD077E
:1003600040084908284392185B4105460D43EAD1ED
:100370001046184313D06046194650407140084358
:1003800006D06046101AB34106D20122002306E0CF
:1003900000220123DB0702E00122D2435310009820
:1003A00074460105381C6141029C039D0019694196
:1003B00000F05DF8BFE70000FD0300000EB5C217B6
:1003C000C10F5040CA0740180021054B029301920B
:1003D00000910A460B4600F057F803B000BD00003C
:1003E0003304000070B5CD0F4A0009030123090B47
:1003F0001B0519430B4BED070024520D9A4201DAFD
:10040000002070BD074B34339A4203DC9A1A00F087
:100410001DF802E00449511888402C43F1D04042B5
:1004200070BD0000FF030000CDFBFFFF10B5202AC8
:1004300004DB0146203A9140002010BD914020236A
:100440009C1A0346E3401943904010BD10B5202A82
:1004500004DB0846203AD040002110BD0B46D340B3
:10046000D0402024A21A91400843194610BD10B56F
:10047000002B08DA0024401C614192185B411A43AA
:1004800001D14008400010BDF0B51FB482B0054650
:100490000C0003D0084601F0CFFA02E001F0CCFADC
:1004A00020300246009021462846FFF7BFFF049BFC
:1004B000059A04460F4618431143084314D01846C2
:1004C00010431BD0009840210A1A18460599FFF7DF
:1004D000BDFF05460E46009A05990498FFF7A6FF52
:1004E000084305D0012004E02046394607B0F0BD9E
:1004F0000020C11705430E432C43374300990E9843
:100500006305401A7905E40A00220C43FD0A0A300B
:1005100002D500200146E9E70105101969410C9C4C
:100520000D9D00196941FFF7A2FFDFE7FEB500232B
:100530001A461B1A8A4103DB0020014603B0F0BDB6
:100540004A000D0301212D0B0905520D0D43D10762
:1005500002D100186D41521E5110FF31FF3101319F
:10056000002704463E463846009701910246012185
:1005700000200905FFF76AFFC3197141F8183246D8
:1005800084468E464A4161462846611A904104D30A
:100590006046241A954176461F46241900986D41FD
:1005A000401C00903428E1DDF91930467041091BE8
:1005B000A84103D20022D243134601E00022134691
:1005C00001980105381C7141FFF751FFB6E70000A3
:1005D000064C0125064E05E0E36807CC2B430C3C96
:1005E00098471034B442F7D3FFF76EFD6822000835
:1005F0008822000870B58C180578401C6B075B0FCB
:1006000001D10378401C2A1106D10278401C03E076
:1006100006780E70401C491C5B1EF9D12B0705D4CF
:100620000023521E0DD40B70491CFAE70378401CBE
:10063000CB1A921C03E01D780D70491C5B1C521EE6
:10064000F9D5A142D8D3002070BD10B5044620468C
:1006500001F036FB10BD000010B5012000F012F8CB
:10066000002802D0022003490870012000F004F89D
:1006700010BD0000E70000200149486170470000FC
:100680000004014001460020044A52690A40002A41
:1006900001D0012000E0002070470000000401406C
:1006A000F0B50A4600210023002400BF3DE00125EB
:1006B0008D402B4615681D402C469C4234D115793F
:1006C000012D02D01579022D16D185684F00032621
:1006D000BE40B543856055794E00B54086683543C8
:1006E0008560858801268E40B5438580858896790A
:1006F0008E40B6B23543858005684F000326BE4064
:10070000B543056015794E00B54006683543056070
:10071000C5684F000326BE40B543C560D5794E007D
:10072000B540C6683543C560491C1029BFD3F0BD2C
:10073000F0B5002300244D07EE0E1546B5402B46BC
:10074000CD10AE0005462035AD594E07F70E0F26E9
:10075000BE40B543CE10B60007462037BD51CD1080
:10076000AE003D46AD591D432C46CD10AD003E4672
:100770007451F0BD018570478161704700BFFEE78D
:1007800010B500240820114988610520FFF75DFF9E
:1007900010200E4988610520FFF757FF00F03CF854
:1007A0001420FFF752FF0948008A08210840C410AE
:1007B00000F046F80520FFF748FF102003492031DC
:1007C00008811920FFF741FF204610BD00040048B2
:1007D00070B5002400F020F8002516E010200D4927
:1007E00088610520FFF731FF6006040E0948008A82
:1007F00008210840C0100443102006492031088118
:100800000520FFF722FF681CC5B2082DE6DB204655
:1008100070BD0000000400481CB5082000900021B5
:1008200068460171012181710021C171032141716B
:1008300069460248FFF734FF1CBD00000004004871
:100840001CB50820009001216846017181710021CA
:10085000C1710321417169460148FFF721FF1CBDA9
:100860000004004810B5FFF7EBFF08200749088196
:1008700010200649203988610520FFF7E6FE102088
:10088000024908810520FFF7E0FE10BD2004004862
:1008900070B5044600251FE080202040002803D0CA
:1008A00008200F49886103E008200D4920310881A4
:1008B0006006040E0520FFF7C8FE10200849886175
:1008C0000520FFF7C2FE10200549203108810520D0
:1008D000FFF7BBFE681CC5B2082DDDDB70BD000054
:1008E0000004004810B5FFF7ABFF082007498861F6
:1008F000102088610520FFF7A8FE10200349203151
:1009000008810520FFF7A1FE10BD0000000400488B
:1009100010B5FFF795FF082009498861102088610C
:100920000520FFF792FE08200549203108810520A7
:10093000FFF78BFE102002492031088110BD000016
:100940000004004810B50820084908811020074914
:10095000203988610520FFF778FE082003492039F7
:1009600088610520FFF771FE10BD000020040048DB
:100970001CB50121880400F07DFB102000900121AE
:100980006846017181710021C1710321417169467D
:100990000148FFF785FE1CBD000400481CB501207E
:1009A0004003009001216846017100218171C171ED
:1009B0000321417169460448FFF772FE0121490392
:1009C0000148FFF7D7FE1CBD000800481CB50920F0
:1009D0004002009001216846017100218171C171BE
:1009E0000321417169460748FFF75AFE0121490278
:1009F0000448FFF7C1FE012109030248FFF7BCFECE
:100A00001CBD00000004004810B500F0EFF800F035
:100A1000CBF9EE2000F088F900F0FEF81E2000F07F
:100A200083F900F0F9F800F0D9F910BD1CB50120E8
:100A300000900020694608710148FFF731FE1CBD97
:100A4000000400481CB58020009001216846017117
:100A5000002181710121C17103214171694604485E
:100A6000FFF71EFE80210248FFF784FE1CBD000038
:100A70000004004810B588B004461D4800F0DAFEB6
:100A80000121880300F016FB0121480400F0F2FA6E
:100A900001220921C806FFF74BFE01220921C806E1
:100AA000FFF746FE032040020090022168460171D4
:100AB00000218171032141710121C1716946092021
:100AC000C006FFF7EDFD7D20C002029000200790D8
:100AD0000C200690002005900490039002A9044881
:100AE00000F02AFF0121024800F098FE08B010BD76
:100AF0000038014010B5FFF73BFFFFF709FF30203A
:100B0000FFF7C6FEFFF73CFEAA20FFF7C1FEFFF786
:100B100037FE0020FFF7BCFEFFF732FE0020FFF794
:100B2000B7FEFFF72DFEFFF70DFF10BD02460029AF
:100B300002D004290ED106E02548264B186026482D
:100B4000264B186007E02648224B18602548234BA7
:100B5000186000BF00BF00BF1E4800680078012871
:100B600009D1214800681D4B1B6818600020194BF3
:100B70001B68187029E01C48006880181A4B1B6815
:100B8000984210D2184800688018174B1B6898428A
:100B90001BD101200F4B1B68187000200F4B1B68E6
:100BA0001860012070470D48006800680E4B1B68F4
:100BB000181A904209D30120064B1B6818700020B8
:100BC000064B1B6818600120ECE70020EAE70000F4
:100BD00038000020DC0000207C0000209400002071
:100BE000480000204C000020700100201CB50121AD
:100BF000880400F03FFA60200090012168460171EE
:100C000081710021C1710321417169460148FFF7DB
:100C100047FD1CBD0004004810B5002420201149E8
:100C200088610520FFF711FD40200E4988610520ED
:100C3000FFF70BFD00F03CF81420FFF706FD094814
:100C4000008A20210840441100F046F80520FFF7F3
:100C5000FCFC40200349203108811920FFF7F5FCF6
:100C6000204610BD0004004870B5002400F020F8B4
:100C7000002516E040200D4988610520FFF7E5FCBE
:100C80006006040E0948008A2021084040110443F0
:100C900040200649203108810520FFF7D6FC681C5A
:100CA000C5B2082DE6DB204670BD000000040048F8
:100CB0001CB520200090002168460171012181713E
:100CC0000021C1710321417169460248FFF7E8FC28
:100CD0001CBD0000000400481CB52020009001212C
:100CE0006846017181710021C1710321417169461A
:100CF0000148FFF7D5FC1CBD0004004810B5FFF704
:100D0000EBFF2020074908814020064920398861EF
:100D10000520FFF79AFC4020024908810520FFF7D3
:100D200094FC10BD2004004870B5044600251FE067
:100D300080202040002803D020200F49886103E054
:100D400020200D49203108816006040E0520FFF7A0
:100D50007CFC4020084988610520FFF776FC402094
:100D60000549203108810520FFF76FFC681CC5B2DA
:100D7000082DDDDB70BD00000004004810B5FFF752
:100D8000ABFF202007498861402088610520FFF7DC
:100D90005CFC40200349203108810520FFF755FC09
:100DA00010BD00000004004810B5FFF795FF20209B
:100DB00009498861402088610520FFF746FC202012
:100DC0000549203108810520FFF73FFC40200249FA
:100DD0002031088110BD00000004004810B520201B
:100DE0000849088140200749203988610520FFF71C
:100DF0002CFC20200349203988610520FFF725FCC1
:100E000010BD00002004004870B50446FFF7CCFF79
:100E1000EE20FFF789FFFFF7FFFE230000F023FE1F
:100E20000604080C1014181CA220FFF77DFF14E024
:100E3000A420FFF779FF10E0A620FFF775FF0CE074
:100E4000A820FFF771FF08E0AA20FFF76DFF04E07C
:100E5000AE20FFF769FF00E000BF00BFFFF7DCFE38
:100E6000FFF7BCFFFFF7A0FFEF20FFF75DFFFFF7E5
:100E7000D3FEFFF7F9FE0546FFF740FFFFF7F4FE4C
:100E80000646FFF77BFFFFF7A9FF2802801980B213
:100E900070BD10B50446FFF787FFEE20FFF744FF53
:100EA000FFF7BAFE002C02D0012C08D103E040204D
:100EB000FFF73AFF04E05020FFF736FF00E000BFE5
:100EC00000BFFFF7A9FEFFF789FF10BD70B5FFF760
:100ED0006BFFEE20FFF728FFFFF79EFE0020FFF7D5
:100EE00023FFFFF799FEFFF779FFFFF75DFFEF2084
:100EF000FFF71AFFFFF790FEFFF7B6FE44B2FFF7C9
:100F0000FDFEFFF7B1FE45B2FFF7F8FEFFF7ACFEBE
:100F100046B2FFF733FFFFF761FF200429024018B4
:100F2000801970BD10B521480078002804D1FFF762
:100F3000B0FF02201D4908701C48007802280FD11C
:100F400001216420FFF7F2FD002809D0FFF7BEFF62
:100F5000174908600120FFF79CFF03201349087020
:100F60001248007803281BD102216420FFF7DEFD20
:100F7000002815D0FFF7AAFF0E49086000F0D8FD41
:100F80000D4908600D480078002806D00846006822
:100F90000B490860002009490870042003490870C3
:100FA0000A21062000F0F8FF10BD000040010020DB
:100FB000380100203C0100200001002048010020F1
:100FC000440100207047000000218278002A27D0C9
:100FD000184A03231B02D21803789B109B00D15898
:100FE00002789207D30EFF229A400B46934319468C
:100FF00042789207120E03789B07DB0E9A4011434A
:101000000C4A03231B02D21803789B109B00D1507B
:101010000278D306DB0E01229A40064B1A6007E0E5
:101020000278D306DB0E01229A40024B80331A600D
:101030007047000000E100E0704700000C4949687B
:101040000122920391430A4A51601146496882B2D3
:101050001143074A51601146096B92159143044AA6
:1010600011631146096B020C1143014A1163704769
:1010700000100240002905D0054A52690243044B82
:101080005A6104E0024A52698243014B5A61704737
:1010900000100240002905D0054A12690243044BA2
:1010A0001A6104E0024A12698243014B1A617047D7
:1010B00000100240002905D0054A92690243044B02
:1010C0009A6104E0024A92698243014B9A61704737
:1010D00000100240002905D0054AD2680243044BA3
:1010E000DA6004E0024AD2688243014BDA6070475A
:1010F0000010024010B500F025F80521C9040020B9
:1011000000F0E2F9012000F0CBF900BF192000F057
:1011100079F90028FAD0022000F0E8F900BF00F0C9
:1011200095F90828FBD1002000F098F9002000F084
:10113000A5F90348FFF782FF00F054FA10BD000044
:101140000040000119480068012108431749086060
:101150000846406816490840144948600846006837
:1011600014490840114908600846006801218904B3
:1011700088430E490860084640683F2109048843B7
:101180000A4948600846C06A00090001C86208466A
:10119000006B09490840054908630846406B400850
:1011A0004000486300208860704700000010024043
:1011B0000CB8FF08FFFFF6FEACFEF0FFFEB50446DC
:1011C000002500260020029001900090002786480C
:1011D00040680C2108400546002D06D0042D07D09C
:1011E000082D08D00C2D2CD128E0804820602BE061
:1011F0007E48206028E07C4840680F218904084030
:101200000646794840680321C90308400290B00CA3
:10121000861C0298002803D17548374647430BE0E7
:101220007148C06A0007000F401C01906F48019987
:10123000FEF77CFF70430746276005E06D4820609D
:1012400002E06A48206000BF00BF67484068F021A4
:10125000084005462D096848405D009020680099C7
:10126000C8406060604840680721090208400546A0
:101270002D0A6148405D009061680098C140A160FE
:101280005948006BFF2101310840884202D05B4879
:10129000E0600DE05448406801218903084088421D
:1012A00003D0A0684008E06002E0A0688008E06029
:1012B0004D48006B40210840402802D05048206132
:1012C00002E00120C00320614748006B1021084064
:1012D000102802D04548606101E020686061424802
:1012E000006B8007800F002802D1A068A06119E080
:1012F0003D48006B8007800F012802D12068A06163
:1013000010E03948006B8007800F022802D180036B
:10131000A06107E03448006B8007800F032801D1EB
:101320003248A0613048006B0321090408400028BE
:1013300002D1A068E06120E02B48006B0321090482
:10134000084001210904884202D12068E06114E0CC
:101350002548006B03210904084001214904884203
:1013600002D18010E06108E01F48006B03210904EE
:101370000840884201D11D48E0611B48006B0321F1
:1013800089040840002802D1A068206220E01648A5
:10139000006B03218904084001218904884202D19D
:1013A0002068206214E01048006B03218904084083
:1013B0000121C904884202D10011206208E00A48D4
:1013C000006B032189040840884201D1074820624C
:1013D0000548006B80210840802802D005486062E3
:1013E00000E06762FEBD00000010024000127A00BB
:1013F00000093D00006CDC0214000020809FD50035
:101400001280000010B50246002100230020511177
:10141000002902D10C4C23680BE0012902D10A4CAF
:10142000236A06E0022902D1074C636A01E0064CF8
:10143000636BD106C90E01248C401C40002C01D0E6
:10144000012000E0002010BD00100240024840686A
:101450000C210840704700000010024001460020A7
:10146000054A5068F02302469A43104602460A4352
:101470001046014A506070470010024001460020AB
:10148000064A506807231B0202469A43104602464A
:101490000A431046014A50607047000000100240A5
:1014A000002807D007490968012212061143054A9E
:1014B000116006E003490968012212069143014ABE
:1014C0001160704700100240074A52687B23DB031B
:1014D0009A43054B5A601A46526803460B431A4317
:1014E000014B5A6070470000001002400146002086
:1014F000044A50688008800002460A431046014AA8
:101500005060704700100240704700000CB500208A
:101510000190009027480068012108432549086090
:101520000846006802210840002802D008200090E8
:1015300001E0012000900098082839D111201E49AF
:1015400008601C4840681B4948600846406848607D
:10155000084640687F21C903884316494860084609
:10156000406815214904084312494860084600684C
:101570000121090608430F49086000BF0D480068B3
:101580000121490608400028F8D00A484068800830
:101590008000084948600846406802210843054920
:1015A000486000BF034840680C2108400828F9D172
:1015B0000CBD00000010024000200240042806D1AB
:1015C0000649096904221143044A116105E00349EF
:1015D000096904229143014A1161704700E000E06B
:1015E00070470000F8B50025002400260027244895
:1015F00040680C2108400546002D04D0042D06D07B
:10160000082D2AD107E01F481F49086029E01D481E
:101610001D49086025E01A4840680F2189040840E8
:101620000446174840680321C90308400646A00C39
:10163000841C002E04D115486043134908600BE058
:101640000F48C06A0007000F471C39460D48FEF7D7
:101650006DFD60430C49086003E00A480A490860D0
:1016600000BF00BF06484068F02108400009084953
:101670000D5C05480068E84003490860F8BD0000BB
:101680000010024000127A000000002000093D0016
:101690000400002010B51B480068012108431949C7
:1016A00008600846406818490840164948600846DE
:1016B000006816490840134908600846006801217F
:1016C000890488430F490860084640683F2109049F
:1016D00088430C4948600846C06A00090001C86296
:1016E0000846006BFF2154318843064908630846C9
:1016F000406B40084000486300208860FFF706FF09
:1017000010BD0000001002400CB8FF08FFFFF6FEFD
:1017100010B50121054800F01FF8002805D000F0A1
:1017200061FC0121014800F006F810BD00440140B1
:10173000CA4302827047CA4302827047002904D01C
:10174000028801231A43028003E00288014B1A40F9
:1017500002807047FEFF000030B5024600200023E3
:101760000024158A0D402B4695890D402C46002BF0
:1017700003D0002C01D0012000E0002030BD002A61
:1017800003D083890B43838102E083898B43838168
:101790007047000000220288154B984206D00123B2
:1017A0009B07984202D0134B984203D1124B1A4028
:1017B0004B881A43114B984203D0114B1A400B89A6
:1017C0001A4302804B68C3620B880385084B98421A
:1017D00008D00C4B984205D00B4B984202D00B4BD3
:1017E000984201D18B7A03860123838270470000DF
:1017F000002C0140000400408FFF0000001000405A
:10180000FFFC00000040014000440140004801404E
:101810000148C0697047000000380140002904D029
:10182000026801231A43026003E002685208520072
:101830000260704710B504463248844209D1012144
:101840008803FFF747FC002101208003FFF742FCDB
:1018500056E02D48844209D101214804FFF71AFCC3
:10186000002101204004FFF715FC49E0274884428D
:1018700009D101218804FFF70DFC0021012080041B
:10188000FFF708FC3CE02248844209D10121C8044A
:10189000FFF700FC00210120C004FFF7FBFB2FE055
:1018A0001C48844209D101210805FFF7F3FB002100
:1018B00001200005FFF7EEFB22E01748844208D123
:1018C00001212020FFF706FC00212020FFF702FC69
:1018D00016E01248844208D101214020FFF7FAFBAC
:1018E00000214020FFF7F6FB0AE00D48844207D1B3
:1018F00001218020FFF7EEFB00218020FFF7EAFBAB
:1019000010BD000000380140004400400048004085
:10191000004C0040005000400014014000180140FD
:10192000001C014002460020D3690B40002B01D06F
:10193000012000E000207047F0B58BB004460D4652
:10194000002700200A900026206840084000206000
:10195000666803210903304688430646A8680643A3
:10196000666026682D480640E9686868084329696A
:10197000084306432660A6680321090230468843CF
:10198000064668690643A6606846FFF717FC2448C8
:10199000844202D106980A900DE02248844202D186
:1019A00007980A9007E02048844202D108980A90DC
:1019B00001E002980A9020680121C903084000282C
:1019C0000CD029680A9A5000FEF7B0FB0746296838
:1019D0000A9A5000FEF7AAFB0E4609E029680A9809
:1019E000FEF7A4FB074629680A98FEF79FFB0E4600
:1019F00028684008B04200D87F1C20680121C90334
:101A00000840002806D03807460F384607490840E6
:101A100030430746A7810BB0F0BD0000F3E9FFFF9C
:101A2000003801400044004000480040F0FF000042
:101A3000CA05D20D028570472021020C01D0102169
:101A40001046020A01D010460839020901D010469A
:101A5000091F820801D01046891E420801D0881E45
:101A60007047081A704730B47446641E2578641CA9
:101A7000AB4204D3635D5B00E31830BC18471D46DE
:101A8000F8E702E008C8121F08C1002AFAD170471F
:101A90007047002001E001C1121F002AFBD17047EE
:101AA00001490860704700007C01002070B588B0D3
:101AB0000446194800684042001918490860084661
:101AC0000068002826DD096849000D2251430846B8
:101AD000FEF774FC0191009000F0A2FB0546002285
:101AE0000F4BFEF78BFB00220E4B03910290FEF78B
:101AF00085FB00220C4B05910490FEF7E7FB079154
:101B00000690FEF76FFC094908600846008880B21D
:101B100008B070BD00BFFBE74401002018010020A1
:101B20000080494000405F40000059401C010020F7
:101B3000F0B58FB03B480088C0013B490968081ADE
:101B400000213A4A03C239480CC8394800880D932D
:101B50000E920B910C90104619460B9B0C9AFEF7B7
:101B60000FFBCA02400D10434B157D2212010021CC
:101B700006461846B21848412E490A6048602E4869
:101B800000884604F7172D4804880020274A06CA13
:101B9000089209910A902046089B099A0A99FEF733
:101BA000EFFACA0640091043491130184F41244941
:101BB00081C124480088C603F71723480588002000
:101BC0001A4A06CA0592069107902846059B069A6E
:101BD0000799FEF7D5FA4A06C0091043C911301813
:101BE0004F411A4981C1194801684068C202490D34
:101BF0001143421516480068002301930392049193
:101C0000029008461146029AFEF7BAFA0C4B0CCB2A
:101C1000801A99414904C00B0843009000980FB006
:101C2000F0BD0000F40000203C0100205001002025
:101C3000F600002058010020EE000020F2000020F5
:101C400060010020EC000020F0000020680100206E
:101C50003801002070B5044608480068251A002D98
:101C60000ADDFF219131694308460549FEF774FA00
:101C70006421484380B270BD0020FCE730010020A1
:101C80003333330010B50420C043FFF797FC0849F5
:101C900008480068FEF74AFA40B207490870002079
:101CA00008567D21C900484300B20449088010BD90
:101CB00000127A00000000202400002026000020EE
:101CC0000146124A0023D3560A465A43104B5A6122
:101CD00000229A611A46126901231A430C4B1A61B9
:101CE00000BF0B4A1069C207D20F002A04D001229C
:101CF00012040240002AF4D0054A12695208520028
:101D0000034B1A6100229A617047000024000020F2
:101D100000E000E030B5002102785118FF22027087
:101D2000401C002216E05300224CE35A5B1899B283
:101D30005300E35A1B120370401C54001D4D2B5BD3
:101D4000DC17240EE418241224021C1B0470401C0F
:101D5000531CDAB2042AE6DB002216E05300164CCC
:101D6000E35A5B1899B25300E35A1B120370401CEC
:101D70005400114D2B5BDC17240EE41824122402AE
:101D80001C1B0470401C531CDAB2042AE6DB0A1246
:101D90000270401C0A46CB171B0E9B181B121B021D
:101DA000CB1A0370034A002313805380024A138026
:101DB000538030BD060100200E010020F8B5FEF76B
:101DC000A7FD3120FEF764FDFEF7DAFCFEF700FD0B
:101DD0000746FEF747FDFEF7FBFC0446FEF742FD13
:101DE000FEF7F6FC0546FEF73DFDFEF7F1FC064664
:101DF000FEF778FDFEF7A6FD2004290240188019A1
:101E0000F8BD000010B519480078002804D1FEF78D
:101E100071FE02201549087014480078022809D183
:101E20000421FF20F430FEF781FE002802D00320B9
:101E30000E4908700D480078032811D1FFF7BEFF46
:101E40000B4908600B480078012806D10846006855
:101E500009490860002007490870042003490870F8
:101E60000A21052000F098F810BD00002D01002087
:101E7000280100202C0100203001002010B5012194
:101E800007204004FFF7F6F8FEF7A0FDFEF7CEFDB1
:101E9000FEF784FD7D20C002FEF7ECFDFEF7D2FDCB
:101EA00010BD000010B5FFF7E9FF05220121084829
:101EB00000F05AF806220121064800F055F80322E6
:101EC0000121054800F050F8002000F093F810BD03
:101ED000051E0008250F0008912000081FB50121EC
:101EE0004804FFF7E7F815216846017000214170AA
:101EF00001218170FFF768F80F4910480068FEF76C
:101F000015F9401E02900021684681808181C180C0
:101F1000817301A90A48FFF73DFC01210848FFF73A
:101F200007FC012211460648FFF729FC012104485D
:101F3000FFF704FC1FBD0000A08601000000002088
:101F40000044014010B5FFF7D5F8FFF79BFE00F005
:101F500045F800220121034800F006F800F05AF885
:101F6000002010BDA51E000870B5034600201046D5
:101F70000401084D6419617104016419227104019E
:101F80002B5100240501034EAD19AC600501AD19BC
:101F9000EC6070BD9401002070B504460D460E2C17
:101FA00000DD70BD00BF2646094800683101094ABE
:101FB0008918C8600849694308460749FEF7B6F81A
:101FC0003101044A8918886000BF00BFE9E70000BA
:101FD0007001002094010020A086010010B5FFF7D9
:101FE0007DFF10BD02480068401C01490860704731
:101FF0007001002010B50E2800DD10BD0021014643
:1020000000220B01024C1B195A7100BF00BFF4E7FC
:102010009401002034E000201A4908602CE019489F
:102020000068000118494018407901281FD115485F
:10203000006800014018C068124909680901124A85
:102040008918896840181149096888420FD800200A
:102050000C49096809018918C8600A490968090119
:102060008918886007490968090150588047054860
:102070000068401C03490860024800680F28CED35E
:10208000C9E70000780100209401002070010020C1
:1020900010B54F480078002837D100214D48FEF791
:1020A00045FD002826D00620494908700020FEF78B
:1020B000ABFE494908800120FEF7A6FE474908808B
:1020C0000220FEF7A1FE464908800320FEF79CFE91
:1020D000444908800420FEF797FE43490880052004
:1020E000FEF792FE414908800020414908704149AD
:1020F00008700AE040480078002806D0FEF7FAFC95
:10210000FEF782FC00203C4908703948007804281A
:1021100034D138480078042830D1FFF74FFE3749D2
:102120000860FFF705FD3649086034480068FFF78E
:1021300091FD344909884900334A505230480068BB
:10214000FFF7B4FC314908802D480068FFF7AEFC6A
:102150002C49098849002E4A50522A480088401CC0
:102160002849088008460088042807D10520184916
:10217000087000201E4908701E4908701448007835
:1021800005281FD12348FFF7C5FD00240DE000BF3F
:1021900040212148FFF7C6FB0028F9D01D48015D0A
:1021A0001D48FFF745FC601CC4B2132CEFD31B483D
:1021B0000068133019490860002012490880062081
:1021C000034908700A210320FFF7E6FE10BD000056
:1021D000F8000020204E0000EC000020EE0000205F
:1021E000F0000020F2000020F4000020F6000020A3
:1021F0002D01002040010020F9000020FC000020FB
:102200000001002004010020060100202001002020
:102210000E01002080010020003801402401002030
:10222000F8B506460C46FEF781F9051E0F4600D0AC
:102230000120014349000B484908411AC90F0DD03C
:10224000002E01D0012100E000210C43610049086B
:10225000401AC00F02D10120FFF722FC2846394660
:10226000F8BD00000000F07F882200080000002078
:1022700080010000F4050008C02200088001002051
:1022800008050000921A000811846CDC026809013C
:10229000020304060708090CA91001101A0101B96C
:1022A000109918891AB923012D09383A09103C0BE5
:1022B0001103014F093161C9F2D9F801370000005B
:04000005080000C12E
:00000001FF
